{"abi":[{"inputs":[],"stateMutability":"nonpayable","type":"constructor"},{"inputs":[{"internalType":"address","name":"Address","type":"address"}],"name":"addAdmin","outputs":[],"stateMutability":"nonpayable","type":"function"},{"inputs":[{"internalType":"address","name":"Address","type":"address"}],"name":"addCarDealer","outputs":[],"stateMutability":"nonpayable","type":"function"},{"inputs":[{"internalType":"address","name":"Address","type":"address"}],"name":"addCarMaintenance","outputs":[],"stateMutability":"nonpayable","type":"function"},{"inputs":[{"internalType":"address","name":"Address","type":"address"}],"name":"addSecondHandCarSale","outputs":[],"stateMutability":"nonpayable","type":"function"},{"inputs":[{"internalType":"address","name":"","type":"address"}],"name":"admin","outputs":[{"internalType":"bool","name":"","type":"bool"}],"stateMutability":"view","type":"function"},{"inputs":[{"internalType":"address","name":"","type":"address"}],"name":"carDealer","outputs":[{"internalType":"bool","name":"","type":"bool"}],"stateMutability":"view","type":"function"},{"inputs":[{"internalType":"string","name":"","type":"string"},{"internalType":"uint256","name":"","type":"uint256"}],"name":"carHistory","outputs":[{"internalType":"string","name":"VIN","type":"string"},{"internalType":"string","name":"date","type":"string"},{"internalType":"string","name":"location","type":"string"},{"internalType":"string","name":"details","type":"string"}],"stateMutability":"view","type":"function"},{"inputs":[{"internalType":"address","name":"","type":"address"}],"name":"carMaintenance","outputs":[{"internalType":"bool","name":"","type":"bool"}],"stateMutability":"view","type":"function"},{"inputs":[{"internalType":"string","name":"Vin","type":"string"},{"internalType":"string","name":"Date","type":"string"},{"internalType":"string","name":"Location","type":"string"},{"internalType":"string","name":"Details","type":"string"}],"name":"changeOwner","outputs":[],"stateMutability":"nonpayable","type":"function"},{"inputs":[{"internalType":"string","name":"Vin","type":"string"}],"name":"displayAll","outputs":[{"components":[{"internalType":"string","name":"VIN","type":"string"},{"internalType":"string","name":"date","type":"string"},{"internalType":"string","name":"location","type":"string"},{"internalType":"string","name":"details","type":"string"}],"internalType":"struct transaction.transactionDetails[]","name":"","type":"tuple[]"}],"stateMutability":"view","type":"function"},{"inputs":[{"internalType":"string","name":"Vin","type":"string"},{"internalType":"string","name":"Date","type":"string"},{"internalType":"string","name":"Location","type":"string"},{"internalType":"string","name":"Details","type":"string"}],"name":"maintenance","outputs":[],"stateMutability":"nonpayable","type":"function"},{"inputs":[{"internalType":"string","name":"Vin","type":"string"},{"internalType":"string","name":"Date","type":"string"},{"internalType":"string","name":"Location","type":"string"},{"internalType":"string","name":"Details","type":"string"}],"name":"newCar","outputs":[],"stateMutability":"nonpayable","type":"function"},{"inputs":[{"internalType":"address","name":"","type":"address"}],"name":"secondHandCarSale","outputs":[{"internalType":"bool","name":"","type":"bool"}],"stateMutability":"view","type":"function"},{"inputs":[{"internalType":"string","name":"","type":"string"}],"name":"transactionCount","outputs":[{"internalType":"uint256","name":"","type":"uint256"}],"stateMutability":"view","type":"function"}],"devdoc":{"kind":"dev","methods":{},"version":1},"evm":{"assembly":"    /* \"Transaction.sol\":33:3057  contract transaction{... */\n  mstore(0x40, 0x80)\n    /* \"Transaction.sol\":553:608  constructor() {... */\n  callvalue\n  dup1\n  iszero\n  tag_1\n  jumpi\n  0x00\n  dup1\n  revert\ntag_1:\n  pop\n    /* \"Transaction.sol\":597:601  true */\n  0x01\n    /* \"Transaction.sol\":577:582  admin */\n  0x00\n    /* \"Transaction.sol\":577:594  admin[msg.sender] */\n  dup1\n    /* \"Transaction.sol\":583:593  msg.sender */\n  caller\n    /* \"Transaction.sol\":577:594  admin[msg.sender] */\n  0xffffffffffffffffffffffffffffffffffffffff\n  and\n  0xffffffffffffffffffffffffffffffffffffffff\n  and\n  dup2\n  mstore\n  0x20\n  add\n  swap1\n  dup2\n  mstore\n  0x20\n  add\n  0x00\n  keccak256\n  0x00\n    /* \"Transaction.sol\":577:601  admin[msg.sender] = true */\n  0x0100\n  exp\n  dup2\n  sload\n  dup2\n  0xff\n  mul\n  not\n  and\n  swap1\n  dup4\n  iszero\n  iszero\n  mul\n  or\n  swap1\n  sstore\n  pop\n    /* \"Transaction.sol\":33:3057  contract transaction{... */\n  dataSize(sub_0)\n  dup1\n  dataOffset(sub_0)\n  0x00\n  codecopy\n  0x00\n  return\nstop\n\nsub_0: assembly {\n        /* \"Transaction.sol\":33:3057  contract transaction{... */\n      mstore(0x40, 0x80)\n      callvalue\n      dup1\n      iszero\n      tag_1\n      jumpi\n      0x00\n      dup1\n      revert\n    tag_1:\n      pop\n      jumpi(tag_2, lt(calldatasize, 0x04))\n      shr(0xe0, calldataload(0x00))\n      dup1\n      0x70480275\n      gt\n      tag_17\n      jumpi\n      dup1\n      0x865ce8e3\n      gt\n      tag_18\n      jumpi\n      dup1\n      0x865ce8e3\n      eq\n      tag_13\n      jumpi\n      dup1\n      0xab1c5f4a\n      eq\n      tag_14\n      jumpi\n      dup1\n      0xadfb4d07\n      eq\n      tag_15\n      jumpi\n      dup1\n      0xfc2d68f0\n      eq\n      tag_16\n      jumpi\n      jump(tag_2)\n    tag_18:\n      dup1\n      0x70480275\n      eq\n      tag_10\n      jumpi\n      dup1\n      0x75061fd9\n      eq\n      tag_11\n      jumpi\n      dup1\n      0x7e2b3e08\n      eq\n      tag_12\n      jumpi\n      jump(tag_2)\n    tag_17:\n      dup1\n      0x2c92ed07\n      gt\n      tag_19\n      jumpi\n      dup1\n      0x2c92ed07\n      eq\n      tag_6\n      jumpi\n      dup1\n      0x2d7784d6\n      eq\n      tag_7\n      jumpi\n      dup1\n      0x2ef704f2\n      eq\n      tag_8\n      jumpi\n      dup1\n      0x63a846f8\n      eq\n      tag_9\n      jumpi\n      jump(tag_2)\n    tag_19:\n      dup1\n      0x061a507a\n      eq\n      tag_3\n      jumpi\n      dup1\n      0x2164bd61\n      eq\n      tag_4\n      jumpi\n      dup1\n      0x2b4b8c0d\n      eq\n      tag_5\n      jumpi\n    tag_2:\n      0x00\n      dup1\n      revert\n        /* \"Transaction.sol\":201:250  mapping(address => bool) public secondHandCarSale */\n    tag_3:\n      tag_20\n      0x04\n      dup1\n      calldatasize\n      sub\n      dup2\n      add\n      swap1\n      tag_21\n      swap2\n      swap1\n      tag_22\n      jump\t// in\n    tag_21:\n      tag_23\n      jump\t// in\n    tag_20:\n      mload(0x40)\n      tag_24\n      swap2\n      swap1\n      tag_25\n      jump\t// in\n    tag_24:\n      mload(0x40)\n      dup1\n      swap2\n      sub\n      swap1\n      return\n        /* \"Transaction.sol\":1954:2434  function maintenance(string memory Vin, string memory Date, string memory Location, string memory Details) public restrictedToCarMaintenance {... */\n    tag_4:\n      tag_26\n      0x04\n      dup1\n      calldatasize\n      sub\n      dup2\n      add\n      swap1\n      tag_27\n      swap2\n      swap1\n      tag_28\n      jump\t// in\n    tag_27:\n      tag_29\n      jump\t// in\n    tag_26:\n      stop\n        /* \"Transaction.sol\":1356:1470  function addSecondHandCarSale(address Address) public restricted{... */\n    tag_5:\n      tag_30\n      0x04\n      dup1\n      calldatasize\n      sub\n      dup2\n      add\n      swap1\n      tag_31\n      swap2\n      swap1\n      tag_22\n      jump\t// in\n    tag_31:\n      tag_32\n      jump\t// in\n    tag_30:\n      stop\n        /* \"Transaction.sol\":256:303  mapping(string => uint) public transactionCount */\n    tag_6:\n      tag_33\n      0x04\n      dup1\n      calldatasize\n      sub\n      dup2\n      add\n      swap1\n      tag_34\n      swap2\n      swap1\n      tag_35\n      jump\t// in\n    tag_34:\n      tag_36\n      jump\t// in\n    tag_33:\n      mload(0x40)\n      tag_37\n      swap2\n      swap1\n      tag_38\n      jump\t// in\n    tag_37:\n      mload(0x40)\n      dup1\n      swap2\n      sub\n      swap1\n      return\n        /* \"Transaction.sol\":1242:1350  function addCarMaintenance(address Address) public restricted{... */\n    tag_7:\n      tag_39\n      0x04\n      dup1\n      calldatasize\n      sub\n      dup2\n      add\n      swap1\n      tag_40\n      swap2\n      swap1\n      tag_22\n      jump\t// in\n    tag_40:\n      tag_41\n      jump\t// in\n    tag_39:\n      stop\n        /* \"Transaction.sol\":2440:2922  function changeOwner(string memory Vin, string memory Date, string memory Location, string memory Details) public restrictedToSecondHandCarSale{... */\n    tag_8:\n      tag_42\n      0x04\n      dup1\n      calldatasize\n      sub\n      dup2\n      add\n      swap1\n      tag_43\n      swap2\n      swap1\n      tag_28\n      jump\t// in\n    tag_43:\n      tag_44\n      jump\t// in\n    tag_42:\n      stop\n        /* \"Transaction.sol\":59:96  mapping(address => bool) public admin */\n    tag_9:\n      tag_45\n      0x04\n      dup1\n      calldatasize\n      sub\n      dup2\n      add\n      swap1\n      tag_46\n      swap2\n      swap1\n      tag_22\n      jump\t// in\n    tag_46:\n      tag_47\n      jump\t// in\n    tag_45:\n      mload(0x40)\n      tag_48\n      swap2\n      swap1\n      tag_25\n      jump\t// in\n    tag_48:\n      mload(0x40)\n      dup1\n      swap2\n      sub\n      swap1\n      return\n        /* \"Transaction.sol\":1042:1132  function addAdmin(address Address) public restricted{... */\n    tag_10:\n      tag_49\n      0x04\n      dup1\n      calldatasize\n      sub\n      dup2\n      add\n      swap1\n      tag_50\n      swap2\n      swap1\n      tag_22\n      jump\t// in\n    tag_50:\n      tag_51\n      jump\t// in\n    tag_49:\n      stop\n        /* \"Transaction.sol\":149:195  mapping(address => bool) public carMaintenance */\n    tag_11:\n      tag_52\n      0x04\n      dup1\n      calldatasize\n      sub\n      dup2\n      add\n      swap1\n      tag_53\n      swap2\n      swap1\n      tag_22\n      jump\t// in\n    tag_53:\n      tag_54\n      jump\t// in\n    tag_52:\n      mload(0x40)\n      tag_55\n      swap2\n      swap1\n      tag_25\n      jump\t// in\n    tag_55:\n      mload(0x40)\n      dup1\n      swap2\n      sub\n      swap1\n      return\n        /* \"Transaction.sol\":438:496  mapping (string => transactionDetails[]) public carHistory */\n    tag_12:\n      tag_56\n      0x04\n      dup1\n      calldatasize\n      sub\n      dup2\n      add\n      swap1\n      tag_57\n      swap2\n      swap1\n      tag_58\n      jump\t// in\n    tag_57:\n      tag_59\n      jump\t// in\n    tag_56:\n      mload(0x40)\n      tag_60\n      swap5\n      swap4\n      swap3\n      swap2\n      swap1\n      tag_61\n      jump\t// in\n    tag_60:\n      mload(0x40)\n      dup1\n      swap2\n      sub\n      swap1\n      return\n        /* \"Transaction.sol\":102:143  mapping(address => bool) public carDealer */\n    tag_13:\n      tag_62\n      0x04\n      dup1\n      calldatasize\n      sub\n      dup2\n      add\n      swap1\n      tag_63\n      swap2\n      swap1\n      tag_22\n      jump\t// in\n    tag_63:\n      tag_64\n      jump\t// in\n    tag_62:\n      mload(0x40)\n      tag_65\n      swap2\n      swap1\n      tag_25\n      jump\t// in\n    tag_65:\n      mload(0x40)\n      dup1\n      swap2\n      sub\n      swap1\n      return\n        /* \"Transaction.sol\":1138:1236  function addCarDealer(address Address) public restricted{... */\n    tag_14:\n      tag_66\n      0x04\n      dup1\n      calldatasize\n      sub\n      dup2\n      add\n      swap1\n      tag_67\n      swap2\n      swap1\n      tag_22\n      jump\t// in\n    tag_67:\n      tag_68\n      jump\t// in\n    tag_66:\n      stop\n        /* \"Transaction.sol\":1476:1948  function newCar(string memory Vin, string memory Date, string memory Location, string memory Details) public restrictedToCarDealer {... */\n    tag_15:\n      tag_69\n      0x04\n      dup1\n      calldatasize\n      sub\n      dup2\n      add\n      swap1\n      tag_70\n      swap2\n      swap1\n      tag_28\n      jump\t// in\n    tag_70:\n      tag_71\n      jump\t// in\n    tag_69:\n      stop\n        /* \"Transaction.sol\":2928:3055  function displayAll(string memory Vin) public view returns (transactionDetails[] memory){... */\n    tag_16:\n      tag_72\n      0x04\n      dup1\n      calldatasize\n      sub\n      dup2\n      add\n      swap1\n      tag_73\n      swap2\n      swap1\n      tag_35\n      jump\t// in\n    tag_73:\n      tag_74\n      jump\t// in\n    tag_72:\n      mload(0x40)\n      tag_75\n      swap2\n      swap1\n      tag_76\n      jump\t// in\n    tag_75:\n      mload(0x40)\n      dup1\n      swap2\n      sub\n      swap1\n      return\n        /* \"Transaction.sol\":201:250  mapping(address => bool) public secondHandCarSale */\n    tag_23:\n      mstore(0x20, 0x03)\n      dup1\n      0x00\n      mstore\n      keccak256(0x00, 0x40)\n      0x00\n      swap2\n      pop\n      sload\n      swap1\n      0x0100\n      exp\n      swap1\n      div\n      0xff\n      and\n      dup2\n      jump\t// out\n        /* \"Transaction.sol\":1954:2434  function maintenance(string memory Vin, string memory Date, string memory Location, string memory Details) public restrictedToCarMaintenance {... */\n    tag_29:\n        /* \"Transaction.sol\":893:897  true */\n      0x01\n        /* \"Transaction.sol\":863:897  carMaintenance[msg.sender] == true */\n      iszero\n      iszero\n        /* \"Transaction.sol\":863:877  carMaintenance */\n      0x02\n        /* \"Transaction.sol\":863:889  carMaintenance[msg.sender] */\n      0x00\n        /* \"Transaction.sol\":878:888  msg.sender */\n      caller\n        /* \"Transaction.sol\":863:889  carMaintenance[msg.sender] */\n      0xffffffffffffffffffffffffffffffffffffffff\n      and\n      0xffffffffffffffffffffffffffffffffffffffff\n      and\n      dup2\n      mstore\n      0x20\n      add\n      swap1\n      dup2\n      mstore\n      0x20\n      add\n      0x00\n      keccak256\n      0x00\n      swap1\n      sload\n      swap1\n      0x0100\n      exp\n      swap1\n      div\n      0xff\n      and\n        /* \"Transaction.sol\":863:897  carMaintenance[msg.sender] == true */\n      iszero\n      iszero\n      eq\n        /* \"Transaction.sol\":855:898  require(carMaintenance[msg.sender] == true) */\n      tag_78\n      jumpi\n      0x00\n      dup1\n      revert\n    tag_78:\n        /* \"Transaction.sol\":2123:2133  carHistory */\n      0x05\n        /* \"Transaction.sol\":2134:2137  Vin */\n      dup5\n        /* \"Transaction.sol\":2123:2138  carHistory[Vin] */\n      mload(0x40)\n      tag_80\n      swap2\n      swap1\n      tag_81\n      jump\t// in\n    tag_80:\n      swap1\n      dup2\n      mstore\n      0x20\n      add\n      mload(0x40)\n      dup1\n      swap2\n      sub\n      swap1\n      keccak256\n        /* \"Transaction.sol\":2105:2120  allTransactions */\n      0x06\n        /* \"Transaction.sol\":2105:2138  allTransactions = carHistory[Vin] */\n      swap1\n      dup1\n      sload\n      tag_82\n      swap3\n      swap2\n      swap1\n      tag_83\n      jump\t// in\n    tag_82:\n      pop\n        /* \"Transaction.sol\":2148:2176  transactionDetails memory BD */\n      0x00\n        /* \"Transaction.sol\":2179:2317  transactionDetails({... */\n      mload(0x40)\n      dup1\n      0x80\n      add\n      0x40\n      mstore\n      dup1\n        /* \"Transaction.sol\":2217:2220  Vin */\n      dup7\n        /* \"Transaction.sol\":2179:2317  transactionDetails({... */\n      dup2\n      mstore\n      0x20\n      add\n        /* \"Transaction.sol\":2240:2244  Date */\n      dup6\n        /* \"Transaction.sol\":2179:2317  transactionDetails({... */\n      dup2\n      mstore\n      0x20\n      add\n        /* \"Transaction.sol\":2268:2276  Location */\n      dup5\n        /* \"Transaction.sol\":2179:2317  transactionDetails({... */\n      dup2\n      mstore\n      0x20\n      add\n        /* \"Transaction.sol\":2299:2306  Details */\n      dup4\n        /* \"Transaction.sol\":2179:2317  transactionDetails({... */\n      dup2\n      mstore\n      pop\n        /* \"Transaction.sol\":2148:2317  transactionDetails memory BD = transactionDetails({... */\n      swap1\n      pop\n        /* \"Transaction.sol\":2327:2342  allTransactions */\n      0x06\n        /* \"Transaction.sol\":2348:2350  BD */\n      dup2\n        /* \"Transaction.sol\":2327:2351  allTransactions.push(BD) */\n      swap1\n      dup1\n      0x01\n      dup2\n      sload\n      add\n      dup1\n      dup3\n      sstore\n      dup1\n      swap2\n      pop\n      pop\n      0x01\n      swap1\n      sub\n      swap1\n      0x00\n      mstore\n      keccak256(0x00, 0x20)\n      swap1\n      0x04\n      mul\n      add\n      0x00\n      swap1\n      swap2\n      swap1\n      swap2\n      swap1\n      swap2\n      pop\n      0x00\n      dup3\n      add\n      mload\n      dup2\n      0x00\n      add\n      swap1\n      dup1\n      mload\n      swap1\n      0x20\n      add\n      swap1\n      tag_85\n      swap3\n      swap2\n      swap1\n      tag_86\n      jump\t// in\n    tag_85:\n      pop\n      0x20\n      dup3\n      add\n      mload\n      dup2\n      0x01\n      add\n      swap1\n      dup1\n      mload\n      swap1\n      0x20\n      add\n      swap1\n      tag_87\n      swap3\n      swap2\n      swap1\n      tag_86\n      jump\t// in\n    tag_87:\n      pop\n      0x40\n      dup3\n      add\n      mload\n      dup2\n      0x02\n      add\n      swap1\n      dup1\n      mload\n      swap1\n      0x20\n      add\n      swap1\n      tag_88\n      swap3\n      swap2\n      swap1\n      tag_86\n      jump\t// in\n    tag_88:\n      pop\n      0x60\n      dup3\n      add\n      mload\n      dup2\n      0x03\n      add\n      swap1\n      dup1\n      mload\n      swap1\n      0x20\n      add\n      swap1\n      tag_89\n      swap3\n      swap2\n      swap1\n      tag_86\n      jump\t// in\n    tag_89:\n      pop\n      pop\n      pop\n        /* \"Transaction.sol\":2379:2394  allTransactions */\n      0x06\n        /* \"Transaction.sol\":2361:2371  carHistory */\n      0x05\n        /* \"Transaction.sol\":2372:2375  Vin */\n      dup7\n        /* \"Transaction.sol\":2361:2376  carHistory[Vin] */\n      mload(0x40)\n      tag_90\n      swap2\n      swap1\n      tag_81\n      jump\t// in\n    tag_90:\n      swap1\n      dup2\n      mstore\n      0x20\n      add\n      mload(0x40)\n      dup1\n      swap2\n      sub\n      swap1\n      keccak256\n        /* \"Transaction.sol\":2361:2394  carHistory[Vin] = allTransactions */\n      swap1\n      dup1\n      sload\n      tag_91\n      swap3\n      swap2\n      swap1\n      tag_83\n      jump\t// in\n    tag_91:\n      pop\n        /* \"Transaction.sol\":2404:2420  transactionCount */\n      0x04\n        /* \"Transaction.sol\":2421:2424  Vin */\n      dup6\n        /* \"Transaction.sol\":2404:2425  transactionCount[Vin] */\n      mload(0x40)\n      tag_92\n      swap2\n      swap1\n      tag_81\n      jump\t// in\n    tag_92:\n      swap1\n      dup2\n      mstore\n      0x20\n      add\n      mload(0x40)\n      dup1\n      swap2\n      sub\n      swap1\n      keccak256\n      0x00\n        /* \"Transaction.sol\":2404:2427  transactionCount[Vin]++ */\n      dup2\n      sload\n      dup1\n      swap3\n      swap2\n      swap1\n      tag_93\n      swap1\n      tag_94\n      jump\t// in\n    tag_93:\n      swap2\n      swap1\n      pop\n      sstore\n      pop\n        /* \"Transaction.sol\":2095:2434  {... */\n      pop\n        /* \"Transaction.sol\":1954:2434  function maintenance(string memory Vin, string memory Date, string memory Location, string memory Details) public restrictedToCarMaintenance {... */\n      pop\n      pop\n      pop\n      pop\n      jump\t// out\n        /* \"Transaction.sol\":1356:1470  function addSecondHandCarSale(address Address) public restricted{... */\n    tag_32:\n        /* \"Transaction.sol\":675:679  true */\n      0x01\n        /* \"Transaction.sol\":654:679  admin[msg.sender] == true */\n      iszero\n      iszero\n        /* \"Transaction.sol\":654:659  admin */\n      0x00\n        /* \"Transaction.sol\":654:671  admin[msg.sender] */\n      dup1\n        /* \"Transaction.sol\":660:670  msg.sender */\n      caller\n        /* \"Transaction.sol\":654:671  admin[msg.sender] */\n      0xffffffffffffffffffffffffffffffffffffffff\n      and\n      0xffffffffffffffffffffffffffffffffffffffff\n      and\n      dup2\n      mstore\n      0x20\n      add\n      swap1\n      dup2\n      mstore\n      0x20\n      add\n      0x00\n      keccak256\n      0x00\n      swap1\n      sload\n      swap1\n      0x0100\n      exp\n      swap1\n      div\n      0xff\n      and\n        /* \"Transaction.sol\":654:679  admin[msg.sender] == true */\n      iszero\n      iszero\n      eq\n        /* \"Transaction.sol\":646:680  require(admin[msg.sender] == true) */\n      tag_96\n      jumpi\n      0x00\n      dup1\n      revert\n    tag_96:\n        /* \"Transaction.sol\":1459:1463  true */\n      0x01\n        /* \"Transaction.sol\":1430:1447  secondHandCarSale */\n      0x03\n        /* \"Transaction.sol\":1430:1456  secondHandCarSale[Address] */\n      0x00\n        /* \"Transaction.sol\":1448:1455  Address */\n      dup4\n        /* \"Transaction.sol\":1430:1456  secondHandCarSale[Address] */\n      0xffffffffffffffffffffffffffffffffffffffff\n      and\n      0xffffffffffffffffffffffffffffffffffffffff\n      and\n      dup2\n      mstore\n      0x20\n      add\n      swap1\n      dup2\n      mstore\n      0x20\n      add\n      0x00\n      keccak256\n      0x00\n        /* \"Transaction.sol\":1430:1463  secondHandCarSale[Address] = true */\n      0x0100\n      exp\n      dup2\n      sload\n      dup2\n      0xff\n      mul\n      not\n      and\n      swap1\n      dup4\n      iszero\n      iszero\n      mul\n      or\n      swap1\n      sstore\n      pop\n        /* \"Transaction.sol\":1356:1470  function addSecondHandCarSale(address Address) public restricted{... */\n      pop\n      jump\t// out\n        /* \"Transaction.sol\":256:303  mapping(string => uint) public transactionCount */\n    tag_36:\n      0x04\n      dup2\n      dup1\n      mload\n      0x20\n      dup2\n      add\n      dup3\n      add\n      dup1\n      mload\n      dup5\n      dup3\n      mstore\n      0x20\n      dup4\n      add\n      0x20\n      dup6\n      add\n      keccak256\n      dup2\n      dup4\n      mstore\n      dup1\n      swap6\n      pop\n      pop\n      pop\n      pop\n      pop\n      pop\n      0x00\n      swap2\n      pop\n      swap1\n      pop\n      sload\n      dup2\n      jump\t// out\n        /* \"Transaction.sol\":1242:1350  function addCarMaintenance(address Address) public restricted{... */\n    tag_41:\n        /* \"Transaction.sol\":675:679  true */\n      0x01\n        /* \"Transaction.sol\":654:679  admin[msg.sender] == true */\n      iszero\n      iszero\n        /* \"Transaction.sol\":654:659  admin */\n      0x00\n        /* \"Transaction.sol\":654:671  admin[msg.sender] */\n      dup1\n        /* \"Transaction.sol\":660:670  msg.sender */\n      caller\n        /* \"Transaction.sol\":654:671  admin[msg.sender] */\n      0xffffffffffffffffffffffffffffffffffffffff\n      and\n      0xffffffffffffffffffffffffffffffffffffffff\n      and\n      dup2\n      mstore\n      0x20\n      add\n      swap1\n      dup2\n      mstore\n      0x20\n      add\n      0x00\n      keccak256\n      0x00\n      swap1\n      sload\n      swap1\n      0x0100\n      exp\n      swap1\n      div\n      0xff\n      and\n        /* \"Transaction.sol\":654:679  admin[msg.sender] == true */\n      iszero\n      iszero\n      eq\n        /* \"Transaction.sol\":646:680  require(admin[msg.sender] == true) */\n      tag_99\n      jumpi\n      0x00\n      dup1\n      revert\n    tag_99:\n        /* \"Transaction.sol\":1339:1343  true */\n      0x01\n        /* \"Transaction.sol\":1313:1327  carMaintenance */\n      0x02\n        /* \"Transaction.sol\":1313:1336  carMaintenance[Address] */\n      0x00\n        /* \"Transaction.sol\":1328:1335  Address */\n      dup4\n        /* \"Transaction.sol\":1313:1336  carMaintenance[Address] */\n      0xffffffffffffffffffffffffffffffffffffffff\n      and\n      0xffffffffffffffffffffffffffffffffffffffff\n      and\n      dup2\n      mstore\n      0x20\n      add\n      swap1\n      dup2\n      mstore\n      0x20\n      add\n      0x00\n      keccak256\n      0x00\n        /* \"Transaction.sol\":1313:1343  carMaintenance[Address] = true */\n      0x0100\n      exp\n      dup2\n      sload\n      dup2\n      0xff\n      mul\n      not\n      and\n      swap1\n      dup4\n      iszero\n      iszero\n      mul\n      or\n      swap1\n      sstore\n      pop\n        /* \"Transaction.sol\":1242:1350  function addCarMaintenance(address Address) public restricted{... */\n      pop\n      jump\t// out\n        /* \"Transaction.sol\":2440:2922  function changeOwner(string memory Vin, string memory Date, string memory Location, string memory Details) public restrictedToSecondHandCarSale{... */\n    tag_44:\n        /* \"Transaction.sol\":1013:1017  true */\n      0x01\n        /* \"Transaction.sol\":980:1017  secondHandCarSale[msg.sender] == true */\n      iszero\n      iszero\n        /* \"Transaction.sol\":980:997  secondHandCarSale */\n      0x03\n        /* \"Transaction.sol\":980:1009  secondHandCarSale[msg.sender] */\n      0x00\n        /* \"Transaction.sol\":998:1008  msg.sender */\n      caller\n        /* \"Transaction.sol\":980:1009  secondHandCarSale[msg.sender] */\n      0xffffffffffffffffffffffffffffffffffffffff\n      and\n      0xffffffffffffffffffffffffffffffffffffffff\n      and\n      dup2\n      mstore\n      0x20\n      add\n      swap1\n      dup2\n      mstore\n      0x20\n      add\n      0x00\n      keccak256\n      0x00\n      swap1\n      sload\n      swap1\n      0x0100\n      exp\n      swap1\n      div\n      0xff\n      and\n        /* \"Transaction.sol\":980:1017  secondHandCarSale[msg.sender] == true */\n      iszero\n      iszero\n      eq\n        /* \"Transaction.sol\":972:1018  require(secondHandCarSale[msg.sender] == true) */\n      tag_102\n      jumpi\n      0x00\n      dup1\n      revert\n    tag_102:\n        /* \"Transaction.sol\":2611:2621  carHistory */\n      0x05\n        /* \"Transaction.sol\":2622:2625  Vin */\n      dup5\n        /* \"Transaction.sol\":2611:2626  carHistory[Vin] */\n      mload(0x40)\n      tag_104\n      swap2\n      swap1\n      tag_81\n      jump\t// in\n    tag_104:\n      swap1\n      dup2\n      mstore\n      0x20\n      add\n      mload(0x40)\n      dup1\n      swap2\n      sub\n      swap1\n      keccak256\n        /* \"Transaction.sol\":2593:2608  allTransactions */\n      0x06\n        /* \"Transaction.sol\":2593:2626  allTransactions = carHistory[Vin] */\n      swap1\n      dup1\n      sload\n      tag_105\n      swap3\n      swap2\n      swap1\n      tag_83\n      jump\t// in\n    tag_105:\n      pop\n        /* \"Transaction.sol\":2636:2664  transactionDetails memory BD */\n      0x00\n        /* \"Transaction.sol\":2667:2805  transactionDetails({... */\n      mload(0x40)\n      dup1\n      0x80\n      add\n      0x40\n      mstore\n      dup1\n        /* \"Transaction.sol\":2705:2708  Vin */\n      dup7\n        /* \"Transaction.sol\":2667:2805  transactionDetails({... */\n      dup2\n      mstore\n      0x20\n      add\n        /* \"Transaction.sol\":2728:2732  Date */\n      dup6\n        /* \"Transaction.sol\":2667:2805  transactionDetails({... */\n      dup2\n      mstore\n      0x20\n      add\n        /* \"Transaction.sol\":2756:2764  Location */\n      dup5\n        /* \"Transaction.sol\":2667:2805  transactionDetails({... */\n      dup2\n      mstore\n      0x20\n      add\n        /* \"Transaction.sol\":2787:2794  Details */\n      dup4\n        /* \"Transaction.sol\":2667:2805  transactionDetails({... */\n      dup2\n      mstore\n      pop\n        /* \"Transaction.sol\":2636:2805  transactionDetails memory BD = transactionDetails({... */\n      swap1\n      pop\n        /* \"Transaction.sol\":2815:2830  allTransactions */\n      0x06\n        /* \"Transaction.sol\":2836:2838  BD */\n      dup2\n        /* \"Transaction.sol\":2815:2839  allTransactions.push(BD) */\n      swap1\n      dup1\n      0x01\n      dup2\n      sload\n      add\n      dup1\n      dup3\n      sstore\n      dup1\n      swap2\n      pop\n      pop\n      0x01\n      swap1\n      sub\n      swap1\n      0x00\n      mstore\n      keccak256(0x00, 0x20)\n      swap1\n      0x04\n      mul\n      add\n      0x00\n      swap1\n      swap2\n      swap1\n      swap2\n      swap1\n      swap2\n      pop\n      0x00\n      dup3\n      add\n      mload\n      dup2\n      0x00\n      add\n      swap1\n      dup1\n      mload\n      swap1\n      0x20\n      add\n      swap1\n      tag_107\n      swap3\n      swap2\n      swap1\n      tag_86\n      jump\t// in\n    tag_107:\n      pop\n      0x20\n      dup3\n      add\n      mload\n      dup2\n      0x01\n      add\n      swap1\n      dup1\n      mload\n      swap1\n      0x20\n      add\n      swap1\n      tag_108\n      swap3\n      swap2\n      swap1\n      tag_86\n      jump\t// in\n    tag_108:\n      pop\n      0x40\n      dup3\n      add\n      mload\n      dup2\n      0x02\n      add\n      swap1\n      dup1\n      mload\n      swap1\n      0x20\n      add\n      swap1\n      tag_109\n      swap3\n      swap2\n      swap1\n      tag_86\n      jump\t// in\n    tag_109:\n      pop\n      0x60\n      dup3\n      add\n      mload\n      dup2\n      0x03\n      add\n      swap1\n      dup1\n      mload\n      swap1\n      0x20\n      add\n      swap1\n      tag_110\n      swap3\n      swap2\n      swap1\n      tag_86\n      jump\t// in\n    tag_110:\n      pop\n      pop\n      pop\n        /* \"Transaction.sol\":2867:2882  allTransactions */\n      0x06\n        /* \"Transaction.sol\":2849:2859  carHistory */\n      0x05\n        /* \"Transaction.sol\":2860:2863  Vin */\n      dup7\n        /* \"Transaction.sol\":2849:2864  carHistory[Vin] */\n      mload(0x40)\n      tag_111\n      swap2\n      swap1\n      tag_81\n      jump\t// in\n    tag_111:\n      swap1\n      dup2\n      mstore\n      0x20\n      add\n      mload(0x40)\n      dup1\n      swap2\n      sub\n      swap1\n      keccak256\n        /* \"Transaction.sol\":2849:2882  carHistory[Vin] = allTransactions */\n      swap1\n      dup1\n      sload\n      tag_112\n      swap3\n      swap2\n      swap1\n      tag_83\n      jump\t// in\n    tag_112:\n      pop\n        /* \"Transaction.sol\":2892:2908  transactionCount */\n      0x04\n        /* \"Transaction.sol\":2909:2912  Vin */\n      dup6\n        /* \"Transaction.sol\":2892:2913  transactionCount[Vin] */\n      mload(0x40)\n      tag_113\n      swap2\n      swap1\n      tag_81\n      jump\t// in\n    tag_113:\n      swap1\n      dup2\n      mstore\n      0x20\n      add\n      mload(0x40)\n      dup1\n      swap2\n      sub\n      swap1\n      keccak256\n      0x00\n        /* \"Transaction.sol\":2892:2915  transactionCount[Vin]++ */\n      dup2\n      sload\n      dup1\n      swap3\n      swap2\n      swap1\n      tag_114\n      swap1\n      tag_94\n      jump\t// in\n    tag_114:\n      swap2\n      swap1\n      pop\n      sstore\n      pop\n        /* \"Transaction.sol\":2583:2922  {... */\n      pop\n        /* \"Transaction.sol\":2440:2922  function changeOwner(string memory Vin, string memory Date, string memory Location, string memory Details) public restrictedToSecondHandCarSale{... */\n      pop\n      pop\n      pop\n      pop\n      jump\t// out\n        /* \"Transaction.sol\":59:96  mapping(address => bool) public admin */\n    tag_47:\n      mstore(0x20, 0x00)\n      dup1\n      0x00\n      mstore\n      keccak256(0x00, 0x40)\n      0x00\n      swap2\n      pop\n      sload\n      swap1\n      0x0100\n      exp\n      swap1\n      div\n      0xff\n      and\n      dup2\n      jump\t// out\n        /* \"Transaction.sol\":1042:1132  function addAdmin(address Address) public restricted{... */\n    tag_51:\n        /* \"Transaction.sol\":675:679  true */\n      0x01\n        /* \"Transaction.sol\":654:679  admin[msg.sender] == true */\n      iszero\n      iszero\n        /* \"Transaction.sol\":654:659  admin */\n      0x00\n        /* \"Transaction.sol\":654:671  admin[msg.sender] */\n      dup1\n        /* \"Transaction.sol\":660:670  msg.sender */\n      caller\n        /* \"Transaction.sol\":654:671  admin[msg.sender] */\n      0xffffffffffffffffffffffffffffffffffffffff\n      and\n      0xffffffffffffffffffffffffffffffffffffffff\n      and\n      dup2\n      mstore\n      0x20\n      add\n      swap1\n      dup2\n      mstore\n      0x20\n      add\n      0x00\n      keccak256\n      0x00\n      swap1\n      sload\n      swap1\n      0x0100\n      exp\n      swap1\n      div\n      0xff\n      and\n        /* \"Transaction.sol\":654:679  admin[msg.sender] == true */\n      iszero\n      iszero\n      eq\n        /* \"Transaction.sol\":646:680  require(admin[msg.sender] == true) */\n      tag_116\n      jumpi\n      0x00\n      dup1\n      revert\n    tag_116:\n        /* \"Transaction.sol\":1121:1125  true */\n      0x01\n        /* \"Transaction.sol\":1104:1109  admin */\n      0x00\n        /* \"Transaction.sol\":1104:1118  admin[Address] */\n      dup1\n        /* \"Transaction.sol\":1110:1117  Address */\n      dup4\n        /* \"Transaction.sol\":1104:1118  admin[Address] */\n      0xffffffffffffffffffffffffffffffffffffffff\n      and\n      0xffffffffffffffffffffffffffffffffffffffff\n      and\n      dup2\n      mstore\n      0x20\n      add\n      swap1\n      dup2\n      mstore\n      0x20\n      add\n      0x00\n      keccak256\n      0x00\n        /* \"Transaction.sol\":1104:1125  admin[Address] = true */\n      0x0100\n      exp\n      dup2\n      sload\n      dup2\n      0xff\n      mul\n      not\n      and\n      swap1\n      dup4\n      iszero\n      iszero\n      mul\n      or\n      swap1\n      sstore\n      pop\n        /* \"Transaction.sol\":1042:1132  function addAdmin(address Address) public restricted{... */\n      pop\n      jump\t// out\n        /* \"Transaction.sol\":149:195  mapping(address => bool) public carMaintenance */\n    tag_54:\n      mstore(0x20, 0x02)\n      dup1\n      0x00\n      mstore\n      keccak256(0x00, 0x40)\n      0x00\n      swap2\n      pop\n      sload\n      swap1\n      0x0100\n      exp\n      swap1\n      div\n      0xff\n      and\n      dup2\n      jump\t// out\n        /* \"Transaction.sol\":438:496  mapping (string => transactionDetails[]) public carHistory */\n    tag_59:\n      0x05\n      dup3\n      dup1\n      mload\n      0x20\n      dup2\n      add\n      dup3\n      add\n      dup1\n      mload\n      dup5\n      dup3\n      mstore\n      0x20\n      dup4\n      add\n      0x20\n      dup6\n      add\n      keccak256\n      dup2\n      dup4\n      mstore\n      dup1\n      swap6\n      pop\n      pop\n      pop\n      pop\n      pop\n      pop\n      dup2\n      dup2\n      sload\n      dup2\n      lt\n      tag_118\n      jumpi\n      0x00\n      dup1\n      revert\n    tag_118:\n      swap1\n      0x00\n      mstore\n      keccak256(0x00, 0x20)\n      swap1\n      0x04\n      mul\n      add\n      0x00\n      swap2\n      pop\n      swap2\n      pop\n      pop\n      dup1\n      0x00\n      add\n      dup1\n      sload\n      tag_120\n      swap1\n      tag_121\n      jump\t// in\n    tag_120:\n      dup1\n      0x1f\n      add\n      0x20\n      dup1\n      swap2\n      div\n      mul\n      0x20\n      add\n      mload(0x40)\n      swap1\n      dup2\n      add\n      0x40\n      mstore\n      dup1\n      swap3\n      swap2\n      swap1\n      dup2\n      dup2\n      mstore\n      0x20\n      add\n      dup3\n      dup1\n      sload\n      tag_122\n      swap1\n      tag_121\n      jump\t// in\n    tag_122:\n      dup1\n      iszero\n      tag_123\n      jumpi\n      dup1\n      0x1f\n      lt\n      tag_124\n      jumpi\n      0x0100\n      dup1\n      dup4\n      sload\n      div\n      mul\n      dup4\n      mstore\n      swap2\n      0x20\n      add\n      swap2\n      jump(tag_123)\n    tag_124:\n      dup3\n      add\n      swap2\n      swap1\n      0x00\n      mstore\n      keccak256(0x00, 0x20)\n      swap1\n    tag_125:\n      dup2\n      sload\n      dup2\n      mstore\n      swap1\n      0x01\n      add\n      swap1\n      0x20\n      add\n      dup1\n      dup4\n      gt\n      tag_125\n      jumpi\n      dup3\n      swap1\n      sub\n      0x1f\n      and\n      dup3\n      add\n      swap2\n    tag_123:\n      pop\n      pop\n      pop\n      pop\n      pop\n      swap1\n      dup1\n      0x01\n      add\n      dup1\n      sload\n      tag_126\n      swap1\n      tag_121\n      jump\t// in\n    tag_126:\n      dup1\n      0x1f\n      add\n      0x20\n      dup1\n      swap2\n      div\n      mul\n      0x20\n      add\n      mload(0x40)\n      swap1\n      dup2\n      add\n      0x40\n      mstore\n      dup1\n      swap3\n      swap2\n      swap1\n      dup2\n      dup2\n      mstore\n      0x20\n      add\n      dup3\n      dup1\n      sload\n      tag_127\n      swap1\n      tag_121\n      jump\t// in\n    tag_127:\n      dup1\n      iszero\n      tag_128\n      jumpi\n      dup1\n      0x1f\n      lt\n      tag_129\n      jumpi\n      0x0100\n      dup1\n      dup4\n      sload\n      div\n      mul\n      dup4\n      mstore\n      swap2\n      0x20\n      add\n      swap2\n      jump(tag_128)\n    tag_129:\n      dup3\n      add\n      swap2\n      swap1\n      0x00\n      mstore\n      keccak256(0x00, 0x20)\n      swap1\n    tag_130:\n      dup2\n      sload\n      dup2\n      mstore\n      swap1\n      0x01\n      add\n      swap1\n      0x20\n      add\n      dup1\n      dup4\n      gt\n      tag_130\n      jumpi\n      dup3\n      swap1\n      sub\n      0x1f\n      and\n      dup3\n      add\n      swap2\n    tag_128:\n      pop\n      pop\n      pop\n      pop\n      pop\n      swap1\n      dup1\n      0x02\n      add\n      dup1\n      sload\n      tag_131\n      swap1\n      tag_121\n      jump\t// in\n    tag_131:\n      dup1\n      0x1f\n      add\n      0x20\n      dup1\n      swap2\n      div\n      mul\n      0x20\n      add\n      mload(0x40)\n      swap1\n      dup2\n      add\n      0x40\n      mstore\n      dup1\n      swap3\n      swap2\n      swap1\n      dup2\n      dup2\n      mstore\n      0x20\n      add\n      dup3\n      dup1\n      sload\n      tag_132\n      swap1\n      tag_121\n      jump\t// in\n    tag_132:\n      dup1\n      iszero\n      tag_133\n      jumpi\n      dup1\n      0x1f\n      lt\n      tag_134\n      jumpi\n      0x0100\n      dup1\n      dup4\n      sload\n      div\n      mul\n      dup4\n      mstore\n      swap2\n      0x20\n      add\n      swap2\n      jump(tag_133)\n    tag_134:\n      dup3\n      add\n      swap2\n      swap1\n      0x00\n      mstore\n      keccak256(0x00, 0x20)\n      swap1\n    tag_135:\n      dup2\n      sload\n      dup2\n      mstore\n      swap1\n      0x01\n      add\n      swap1\n      0x20\n      add\n      dup1\n      dup4\n      gt\n      tag_135\n      jumpi\n      dup3\n      swap1\n      sub\n      0x1f\n      and\n      dup3\n      add\n      swap2\n    tag_133:\n      pop\n      pop\n      pop\n      pop\n      pop\n      swap1\n      dup1\n      0x03\n      add\n      dup1\n      sload\n      tag_136\n      swap1\n      tag_121\n      jump\t// in\n    tag_136:\n      dup1\n      0x1f\n      add\n      0x20\n      dup1\n      swap2\n      div\n      mul\n      0x20\n      add\n      mload(0x40)\n      swap1\n      dup2\n      add\n      0x40\n      mstore\n      dup1\n      swap3\n      swap2\n      swap1\n      dup2\n      dup2\n      mstore\n      0x20\n      add\n      dup3\n      dup1\n      sload\n      tag_137\n      swap1\n      tag_121\n      jump\t// in\n    tag_137:\n      dup1\n      iszero\n      tag_138\n      jumpi\n      dup1\n      0x1f\n      lt\n      tag_139\n      jumpi\n      0x0100\n      dup1\n      dup4\n      sload\n      div\n      mul\n      dup4\n      mstore\n      swap2\n      0x20\n      add\n      swap2\n      jump(tag_138)\n    tag_139:\n      dup3\n      add\n      swap2\n      swap1\n      0x00\n      mstore\n      keccak256(0x00, 0x20)\n      swap1\n    tag_140:\n      dup2\n      sload\n      dup2\n      mstore\n      swap1\n      0x01\n      add\n      swap1\n      0x20\n      add\n      dup1\n      dup4\n      gt\n      tag_140\n      jumpi\n      dup3\n      swap1\n      sub\n      0x1f\n      and\n      dup3\n      add\n      swap2\n    tag_138:\n      pop\n      pop\n      pop\n      pop\n      pop\n      swap1\n      pop\n      dup5\n      jump\t// out\n        /* \"Transaction.sol\":102:143  mapping(address => bool) public carDealer */\n    tag_64:\n      mstore(0x20, 0x01)\n      dup1\n      0x00\n      mstore\n      keccak256(0x00, 0x40)\n      0x00\n      swap2\n      pop\n      sload\n      swap1\n      0x0100\n      exp\n      swap1\n      div\n      0xff\n      and\n      dup2\n      jump\t// out\n        /* \"Transaction.sol\":1138:1236  function addCarDealer(address Address) public restricted{... */\n    tag_68:\n        /* \"Transaction.sol\":675:679  true */\n      0x01\n        /* \"Transaction.sol\":654:679  admin[msg.sender] == true */\n      iszero\n      iszero\n        /* \"Transaction.sol\":654:659  admin */\n      0x00\n        /* \"Transaction.sol\":654:671  admin[msg.sender] */\n      dup1\n        /* \"Transaction.sol\":660:670  msg.sender */\n      caller\n        /* \"Transaction.sol\":654:671  admin[msg.sender] */\n      0xffffffffffffffffffffffffffffffffffffffff\n      and\n      0xffffffffffffffffffffffffffffffffffffffff\n      and\n      dup2\n      mstore\n      0x20\n      add\n      swap1\n      dup2\n      mstore\n      0x20\n      add\n      0x00\n      keccak256\n      0x00\n      swap1\n      sload\n      swap1\n      0x0100\n      exp\n      swap1\n      div\n      0xff\n      and\n        /* \"Transaction.sol\":654:679  admin[msg.sender] == true */\n      iszero\n      iszero\n      eq\n        /* \"Transaction.sol\":646:680  require(admin[msg.sender] == true) */\n      tag_142\n      jumpi\n      0x00\n      dup1\n      revert\n    tag_142:\n        /* \"Transaction.sol\":1225:1229  true */\n      0x01\n        /* \"Transaction.sol\":1204:1213  carDealer */\n      dup1\n        /* \"Transaction.sol\":1204:1222  carDealer[Address] */\n      0x00\n        /* \"Transaction.sol\":1214:1221  Address */\n      dup4\n        /* \"Transaction.sol\":1204:1222  carDealer[Address] */\n      0xffffffffffffffffffffffffffffffffffffffff\n      and\n      0xffffffffffffffffffffffffffffffffffffffff\n      and\n      dup2\n      mstore\n      0x20\n      add\n      swap1\n      dup2\n      mstore\n      0x20\n      add\n      0x00\n      keccak256\n      0x00\n        /* \"Transaction.sol\":1204:1229  carDealer[Address] = true */\n      0x0100\n      exp\n      dup2\n      sload\n      dup2\n      0xff\n      mul\n      not\n      and\n      swap1\n      dup4\n      iszero\n      iszero\n      mul\n      or\n      swap1\n      sstore\n      pop\n        /* \"Transaction.sol\":1138:1236  function addCarDealer(address Address) public restricted{... */\n      pop\n      jump\t// out\n        /* \"Transaction.sol\":1476:1948  function newCar(string memory Vin, string memory Date, string memory Location, string memory Details) public restrictedToCarDealer {... */\n    tag_71:\n        /* \"Transaction.sol\":779:783  true */\n      0x01\n        /* \"Transaction.sol\":754:783  carDealer[msg.sender] == true */\n      iszero\n      iszero\n        /* \"Transaction.sol\":754:763  carDealer */\n      0x01\n        /* \"Transaction.sol\":754:775  carDealer[msg.sender] */\n      0x00\n        /* \"Transaction.sol\":764:774  msg.sender */\n      caller\n        /* \"Transaction.sol\":754:775  carDealer[msg.sender] */\n      0xffffffffffffffffffffffffffffffffffffffff\n      and\n      0xffffffffffffffffffffffffffffffffffffffff\n      and\n      dup2\n      mstore\n      0x20\n      add\n      swap1\n      dup2\n      mstore\n      0x20\n      add\n      0x00\n      keccak256\n      0x00\n      swap1\n      sload\n      swap1\n      0x0100\n      exp\n      swap1\n      div\n      0xff\n      and\n        /* \"Transaction.sol\":754:783  carDealer[msg.sender] == true */\n      iszero\n      iszero\n      eq\n        /* \"Transaction.sol\":746:784  require(carDealer[msg.sender] == true) */\n      tag_145\n      jumpi\n      0x00\n      dup1\n      revert\n    tag_145:\n        /* \"Transaction.sol\":1635:1645  carHistory */\n      0x05\n        /* \"Transaction.sol\":1646:1649  Vin */\n      dup5\n        /* \"Transaction.sol\":1635:1650  carHistory[Vin] */\n      mload(0x40)\n      tag_147\n      swap2\n      swap1\n      tag_81\n      jump\t// in\n    tag_147:\n      swap1\n      dup2\n      mstore\n      0x20\n      add\n      mload(0x40)\n      dup1\n      swap2\n      sub\n      swap1\n      keccak256\n        /* \"Transaction.sol\":1617:1632  allTransactions */\n      0x06\n        /* \"Transaction.sol\":1617:1650  allTransactions = carHistory[Vin] */\n      swap1\n      dup1\n      sload\n      tag_148\n      swap3\n      swap2\n      swap1\n      tag_83\n      jump\t// in\n    tag_148:\n      pop\n        /* \"Transaction.sol\":1660:1688  transactionDetails memory BD */\n      0x00\n        /* \"Transaction.sol\":1691:1829  transactionDetails({... */\n      mload(0x40)\n      dup1\n      0x80\n      add\n      0x40\n      mstore\n      dup1\n        /* \"Transaction.sol\":1729:1732  Vin */\n      dup7\n        /* \"Transaction.sol\":1691:1829  transactionDetails({... */\n      dup2\n      mstore\n      0x20\n      add\n        /* \"Transaction.sol\":1752:1756  Date */\n      dup6\n        /* \"Transaction.sol\":1691:1829  transactionDetails({... */\n      dup2\n      mstore\n      0x20\n      add\n        /* \"Transaction.sol\":1780:1788  Location */\n      dup5\n        /* \"Transaction.sol\":1691:1829  transactionDetails({... */\n      dup2\n      mstore\n      0x20\n      add\n        /* \"Transaction.sol\":1811:1818  Details */\n      dup4\n        /* \"Transaction.sol\":1691:1829  transactionDetails({... */\n      dup2\n      mstore\n      pop\n        /* \"Transaction.sol\":1660:1829  transactionDetails memory BD = transactionDetails({... */\n      swap1\n      pop\n        /* \"Transaction.sol\":1839:1854  allTransactions */\n      0x06\n        /* \"Transaction.sol\":1860:1862  BD */\n      dup2\n        /* \"Transaction.sol\":1839:1863  allTransactions.push(BD) */\n      swap1\n      dup1\n      0x01\n      dup2\n      sload\n      add\n      dup1\n      dup3\n      sstore\n      dup1\n      swap2\n      pop\n      pop\n      0x01\n      swap1\n      sub\n      swap1\n      0x00\n      mstore\n      keccak256(0x00, 0x20)\n      swap1\n      0x04\n      mul\n      add\n      0x00\n      swap1\n      swap2\n      swap1\n      swap2\n      swap1\n      swap2\n      pop\n      0x00\n      dup3\n      add\n      mload\n      dup2\n      0x00\n      add\n      swap1\n      dup1\n      mload\n      swap1\n      0x20\n      add\n      swap1\n      tag_150\n      swap3\n      swap2\n      swap1\n      tag_86\n      jump\t// in\n    tag_150:\n      pop\n      0x20\n      dup3\n      add\n      mload\n      dup2\n      0x01\n      add\n      swap1\n      dup1\n      mload\n      swap1\n      0x20\n      add\n      swap1\n      tag_151\n      swap3\n      swap2\n      swap1\n      tag_86\n      jump\t// in\n    tag_151:\n      pop\n      0x40\n      dup3\n      add\n      mload\n      dup2\n      0x02\n      add\n      swap1\n      dup1\n      mload\n      swap1\n      0x20\n      add\n      swap1\n      tag_152\n      swap3\n      swap2\n      swap1\n      tag_86\n      jump\t// in\n    tag_152:\n      pop\n      0x60\n      dup3\n      add\n      mload\n      dup2\n      0x03\n      add\n      swap1\n      dup1\n      mload\n      swap1\n      0x20\n      add\n      swap1\n      tag_153\n      swap3\n      swap2\n      swap1\n      tag_86\n      jump\t// in\n    tag_153:\n      pop\n      pop\n      pop\n        /* \"Transaction.sol\":1891:1906  allTransactions */\n      0x06\n        /* \"Transaction.sol\":1873:1883  carHistory */\n      0x05\n        /* \"Transaction.sol\":1884:1887  Vin */\n      dup7\n        /* \"Transaction.sol\":1873:1888  carHistory[Vin] */\n      mload(0x40)\n      tag_154\n      swap2\n      swap1\n      tag_81\n      jump\t// in\n    tag_154:\n      swap1\n      dup2\n      mstore\n      0x20\n      add\n      mload(0x40)\n      dup1\n      swap2\n      sub\n      swap1\n      keccak256\n        /* \"Transaction.sol\":1873:1906  carHistory[Vin] = allTransactions */\n      swap1\n      dup1\n      sload\n      tag_155\n      swap3\n      swap2\n      swap1\n      tag_83\n      jump\t// in\n    tag_155:\n      pop\n        /* \"Transaction.sol\":1940:1941  1 */\n      0x01\n        /* \"Transaction.sol\":1916:1932  transactionCount */\n      0x04\n        /* \"Transaction.sol\":1933:1936  Vin */\n      dup7\n        /* \"Transaction.sol\":1916:1937  transactionCount[Vin] */\n      mload(0x40)\n      tag_156\n      swap2\n      swap1\n      tag_81\n      jump\t// in\n    tag_156:\n      swap1\n      dup2\n      mstore\n      0x20\n      add\n      mload(0x40)\n      dup1\n      swap2\n      sub\n      swap1\n      keccak256\n        /* \"Transaction.sol\":1916:1941  transactionCount[Vin] = 1 */\n      dup2\n      swap1\n      sstore\n      pop\n        /* \"Transaction.sol\":1607:1948  {... */\n      pop\n        /* \"Transaction.sol\":1476:1948  function newCar(string memory Vin, string memory Date, string memory Location, string memory Details) public restrictedToCarDealer {... */\n      pop\n      pop\n      pop\n      pop\n      jump\t// out\n        /* \"Transaction.sol\":2928:3055  function displayAll(string memory Vin) public view returns (transactionDetails[] memory){... */\n    tag_74:\n        /* \"Transaction.sol\":2988:3015  transactionDetails[] memory */\n      0x60\n        /* \"Transaction.sol\":3033:3043  carHistory */\n      0x05\n        /* \"Transaction.sol\":3044:3047  Vin */\n      dup3\n        /* \"Transaction.sol\":3033:3048  carHistory[Vin] */\n      mload(0x40)\n      tag_158\n      swap2\n      swap1\n      tag_81\n      jump\t// in\n    tag_158:\n      swap1\n      dup2\n      mstore\n      0x20\n      add\n      mload(0x40)\n      dup1\n      swap2\n      sub\n      swap1\n      keccak256\n        /* \"Transaction.sol\":3026:3048  return carHistory[Vin] */\n      dup1\n      sload\n      dup1\n      0x20\n      mul\n      0x20\n      add\n      mload(0x40)\n      swap1\n      dup2\n      add\n      0x40\n      mstore\n      dup1\n      swap3\n      swap2\n      swap1\n      dup2\n      dup2\n      mstore\n      0x20\n      add\n      0x00\n      swap1\n    tag_159:\n      dup3\n      dup3\n      lt\n      iszero\n      tag_160\n      jumpi\n      dup4\n      dup3\n      swap1\n      0x00\n      mstore\n      keccak256(0x00, 0x20)\n      swap1\n      0x04\n      mul\n      add\n      mload(0x40)\n      dup1\n      0x80\n      add\n      0x40\n      mstore\n      swap1\n      dup2\n      0x00\n      dup3\n      add\n      dup1\n      sload\n      tag_162\n      swap1\n      tag_121\n      jump\t// in\n    tag_162:\n      dup1\n      0x1f\n      add\n      0x20\n      dup1\n      swap2\n      div\n      mul\n      0x20\n      add\n      mload(0x40)\n      swap1\n      dup2\n      add\n      0x40\n      mstore\n      dup1\n      swap3\n      swap2\n      swap1\n      dup2\n      dup2\n      mstore\n      0x20\n      add\n      dup3\n      dup1\n      sload\n      tag_163\n      swap1\n      tag_121\n      jump\t// in\n    tag_163:\n      dup1\n      iszero\n      tag_164\n      jumpi\n      dup1\n      0x1f\n      lt\n      tag_165\n      jumpi\n      0x0100\n      dup1\n      dup4\n      sload\n      div\n      mul\n      dup4\n      mstore\n      swap2\n      0x20\n      add\n      swap2\n      jump(tag_164)\n    tag_165:\n      dup3\n      add\n      swap2\n      swap1\n      0x00\n      mstore\n      keccak256(0x00, 0x20)\n      swap1\n    tag_166:\n      dup2\n      sload\n      dup2\n      mstore\n      swap1\n      0x01\n      add\n      swap1\n      0x20\n      add\n      dup1\n      dup4\n      gt\n      tag_166\n      jumpi\n      dup3\n      swap1\n      sub\n      0x1f\n      and\n      dup3\n      add\n      swap2\n    tag_164:\n      pop\n      pop\n      pop\n      pop\n      pop\n      dup2\n      mstore\n      0x20\n      add\n      0x01\n      dup3\n      add\n      dup1\n      sload\n      tag_167\n      swap1\n      tag_121\n      jump\t// in\n    tag_167:\n      dup1\n      0x1f\n      add\n      0x20\n      dup1\n      swap2\n      div\n      mul\n      0x20\n      add\n      mload(0x40)\n      swap1\n      dup2\n      add\n      0x40\n      mstore\n      dup1\n      swap3\n      swap2\n      swap1\n      dup2\n      dup2\n      mstore\n      0x20\n      add\n      dup3\n      dup1\n      sload\n      tag_168\n      swap1\n      tag_121\n      jump\t// in\n    tag_168:\n      dup1\n      iszero\n      tag_169\n      jumpi\n      dup1\n      0x1f\n      lt\n      tag_170\n      jumpi\n      0x0100\n      dup1\n      dup4\n      sload\n      div\n      mul\n      dup4\n      mstore\n      swap2\n      0x20\n      add\n      swap2\n      jump(tag_169)\n    tag_170:\n      dup3\n      add\n      swap2\n      swap1\n      0x00\n      mstore\n      keccak256(0x00, 0x20)\n      swap1\n    tag_171:\n      dup2\n      sload\n      dup2\n      mstore\n      swap1\n      0x01\n      add\n      swap1\n      0x20\n      add\n      dup1\n      dup4\n      gt\n      tag_171\n      jumpi\n      dup3\n      swap1\n      sub\n      0x1f\n      and\n      dup3\n      add\n      swap2\n    tag_169:\n      pop\n      pop\n      pop\n      pop\n      pop\n      dup2\n      mstore\n      0x20\n      add\n      0x02\n      dup3\n      add\n      dup1\n      sload\n      tag_172\n      swap1\n      tag_121\n      jump\t// in\n    tag_172:\n      dup1\n      0x1f\n      add\n      0x20\n      dup1\n      swap2\n      div\n      mul\n      0x20\n      add\n      mload(0x40)\n      swap1\n      dup2\n      add\n      0x40\n      mstore\n      dup1\n      swap3\n      swap2\n      swap1\n      dup2\n      dup2\n      mstore\n      0x20\n      add\n      dup3\n      dup1\n      sload\n      tag_173\n      swap1\n      tag_121\n      jump\t// in\n    tag_173:\n      dup1\n      iszero\n      tag_174\n      jumpi\n      dup1\n      0x1f\n      lt\n      tag_175\n      jumpi\n      0x0100\n      dup1\n      dup4\n      sload\n      div\n      mul\n      dup4\n      mstore\n      swap2\n      0x20\n      add\n      swap2\n      jump(tag_174)\n    tag_175:\n      dup3\n      add\n      swap2\n      swap1\n      0x00\n      mstore\n      keccak256(0x00, 0x20)\n      swap1\n    tag_176:\n      dup2\n      sload\n      dup2\n      mstore\n      swap1\n      0x01\n      add\n      swap1\n      0x20\n      add\n      dup1\n      dup4\n      gt\n      tag_176\n      jumpi\n      dup3\n      swap1\n      sub\n      0x1f\n      and\n      dup3\n      add\n      swap2\n    tag_174:\n      pop\n      pop\n      pop\n      pop\n      pop\n      dup2\n      mstore\n      0x20\n      add\n      0x03\n      dup3\n      add\n      dup1\n      sload\n      tag_177\n      swap1\n      tag_121\n      jump\t// in\n    tag_177:\n      dup1\n      0x1f\n      add\n      0x20\n      dup1\n      swap2\n      div\n      mul\n      0x20\n      add\n      mload(0x40)\n      swap1\n      dup2\n      add\n      0x40\n      mstore\n      dup1\n      swap3\n      swap2\n      swap1\n      dup2\n      dup2\n      mstore\n      0x20\n      add\n      dup3\n      dup1\n      sload\n      tag_178\n      swap1\n      tag_121\n      jump\t// in\n    tag_178:\n      dup1\n      iszero\n      tag_179\n      jumpi\n      dup1\n      0x1f\n      lt\n      tag_180\n      jumpi\n      0x0100\n      dup1\n      dup4\n      sload\n      div\n      mul\n      dup4\n      mstore\n      swap2\n      0x20\n      add\n      swap2\n      jump(tag_179)\n    tag_180:\n      dup3\n      add\n      swap2\n      swap1\n      0x00\n      mstore\n      keccak256(0x00, 0x20)\n      swap1\n    tag_181:\n      dup2\n      sload\n      dup2\n      mstore\n      swap1\n      0x01\n      add\n      swap1\n      0x20\n      add\n      dup1\n      dup4\n      gt\n      tag_181\n      jumpi\n      dup3\n      swap1\n      sub\n      0x1f\n      and\n      dup3\n      add\n      swap2\n    tag_179:\n      pop\n      pop\n      pop\n      pop\n      pop\n      dup2\n      mstore\n      pop\n      pop\n      dup2\n      mstore\n      0x20\n      add\n      swap1\n      0x01\n      add\n      swap1\n      jump(tag_159)\n    tag_160:\n      pop\n      pop\n      pop\n      pop\n      swap1\n      pop\n        /* \"Transaction.sol\":2928:3055  function displayAll(string memory Vin) public view returns (transactionDetails[] memory){... */\n      swap2\n      swap1\n      pop\n      jump\t// out\n    tag_83:\n      dup3\n      dup1\n      sload\n      dup3\n      dup3\n      sstore\n      swap1\n      0x00\n      mstore\n      keccak256(0x00, 0x20)\n      swap1\n      0x04\n      mul\n      dup2\n      add\n      swap3\n      dup3\n      iszero\n      tag_182\n      jumpi\n      0x00\n      mstore\n      keccak256(0x00, 0x20)\n      swap2\n      0x04\n      mul\n      dup3\n      add\n    tag_183:\n      dup3\n      dup2\n      gt\n      iszero\n      tag_184\n      jumpi\n      dup3\n      dup3\n      0x00\n      dup3\n      add\n      dup2\n      0x00\n      add\n      swap1\n      dup1\n      sload\n      tag_185\n      swap1\n      tag_121\n      jump\t// in\n    tag_185:\n      tag_186\n      swap3\n      swap2\n      swap1\n      tag_187\n      jump\t// in\n    tag_186:\n      pop\n      0x01\n      dup3\n      add\n      dup2\n      0x01\n      add\n      swap1\n      dup1\n      sload\n      tag_188\n      swap1\n      tag_121\n      jump\t// in\n    tag_188:\n      tag_189\n      swap3\n      swap2\n      swap1\n      tag_187\n      jump\t// in\n    tag_189:\n      pop\n      0x02\n      dup3\n      add\n      dup2\n      0x02\n      add\n      swap1\n      dup1\n      sload\n      tag_190\n      swap1\n      tag_121\n      jump\t// in\n    tag_190:\n      tag_191\n      swap3\n      swap2\n      swap1\n      tag_187\n      jump\t// in\n    tag_191:\n      pop\n      0x03\n      dup3\n      add\n      dup2\n      0x03\n      add\n      swap1\n      dup1\n      sload\n      tag_192\n      swap1\n      tag_121\n      jump\t// in\n    tag_192:\n      tag_193\n      swap3\n      swap2\n      swap1\n      tag_187\n      jump\t// in\n    tag_193:\n      pop\n      pop\n      pop\n      swap2\n      0x04\n      add\n      swap2\n      swap1\n      0x04\n      add\n      swap1\n      jump(tag_183)\n    tag_184:\n    tag_182:\n      pop\n      swap1\n      pop\n      tag_194\n      swap2\n      swap1\n      tag_195\n      jump\t// in\n    tag_194:\n      pop\n      swap1\n      jump\t// out\n    tag_86:\n      dup3\n      dup1\n      sload\n      tag_196\n      swap1\n      tag_121\n      jump\t// in\n    tag_196:\n      swap1\n      0x00\n      mstore\n      keccak256(0x00, 0x20)\n      swap1\n      0x1f\n      add\n      0x20\n      swap1\n      div\n      dup2\n      add\n      swap3\n      dup3\n      tag_198\n      jumpi\n      0x00\n      dup6\n      sstore\n      jump(tag_197)\n    tag_198:\n      dup3\n      0x1f\n      lt\n      tag_199\n      jumpi\n      dup1\n      mload\n      not(0xff)\n      and\n      dup4\n      dup1\n      add\n      or\n      dup6\n      sstore\n      jump(tag_197)\n    tag_199:\n      dup3\n      dup1\n      add\n      0x01\n      add\n      dup6\n      sstore\n      dup3\n      iszero\n      tag_197\n      jumpi\n      swap2\n      dup3\n      add\n    tag_200:\n      dup3\n      dup2\n      gt\n      iszero\n      tag_201\n      jumpi\n      dup3\n      mload\n      dup3\n      sstore\n      swap2\n      0x20\n      add\n      swap2\n      swap1\n      0x01\n      add\n      swap1\n      jump(tag_200)\n    tag_201:\n    tag_197:\n      pop\n      swap1\n      pop\n      tag_202\n      swap2\n      swap1\n      tag_203\n      jump\t// in\n    tag_202:\n      pop\n      swap1\n      jump\t// out\n    tag_187:\n      dup3\n      dup1\n      sload\n      tag_204\n      swap1\n      tag_121\n      jump\t// in\n    tag_204:\n      swap1\n      0x00\n      mstore\n      keccak256(0x00, 0x20)\n      swap1\n      0x1f\n      add\n      0x20\n      swap1\n      div\n      dup2\n      add\n      swap3\n      dup3\n      tag_206\n      jumpi\n      0x00\n      dup6\n      sstore\n      jump(tag_205)\n    tag_206:\n      dup3\n      0x1f\n      lt\n      tag_207\n      jumpi\n      dup1\n      sload\n      dup6\n      sstore\n      jump(tag_205)\n    tag_207:\n      dup3\n      dup1\n      add\n      0x01\n      add\n      dup6\n      sstore\n      dup3\n      iszero\n      tag_205\n      jumpi\n      0x00\n      mstore\n      keccak256(0x00, 0x20)\n      swap2\n      0x1f\n      add\n      0x20\n      swap1\n      div\n      dup3\n      add\n    tag_208:\n      dup3\n      dup2\n      gt\n      iszero\n      tag_209\n      jumpi\n      dup3\n      sload\n      dup3\n      sstore\n      swap2\n      0x01\n      add\n      swap2\n      swap1\n      0x01\n      add\n      swap1\n      jump(tag_208)\n    tag_209:\n    tag_205:\n      pop\n      swap1\n      pop\n      tag_210\n      swap2\n      swap1\n      tag_203\n      jump\t// in\n    tag_210:\n      pop\n      swap1\n      jump\t// out\n    tag_195:\n    tag_211:\n      dup1\n      dup3\n      gt\n      iszero\n      tag_212\n      jumpi\n      0x00\n      dup1\n      dup3\n      add\n      0x00\n      tag_213\n      swap2\n      swap1\n      tag_214\n      jump\t// in\n    tag_213:\n      0x01\n      dup3\n      add\n      0x00\n      tag_215\n      swap2\n      swap1\n      tag_214\n      jump\t// in\n    tag_215:\n      0x02\n      dup3\n      add\n      0x00\n      tag_216\n      swap2\n      swap1\n      tag_214\n      jump\t// in\n    tag_216:\n      0x03\n      dup3\n      add\n      0x00\n      tag_217\n      swap2\n      swap1\n      tag_214\n      jump\t// in\n    tag_217:\n      pop\n      0x04\n      add\n      jump(tag_211)\n    tag_212:\n      pop\n      swap1\n      jump\t// out\n    tag_203:\n    tag_218:\n      dup1\n      dup3\n      gt\n      iszero\n      tag_219\n      jumpi\n      0x00\n      dup2\n      0x00\n      swap1\n      sstore\n      pop\n      0x01\n      add\n      jump(tag_218)\n    tag_219:\n      pop\n      swap1\n      jump\t// out\n    tag_214:\n      pop\n      dup1\n      sload\n      tag_220\n      swap1\n      tag_121\n      jump\t// in\n    tag_220:\n      0x00\n      dup3\n      sstore\n      dup1\n      0x1f\n      lt\n      tag_222\n      jumpi\n      pop\n      jump(tag_221)\n    tag_222:\n      0x1f\n      add\n      0x20\n      swap1\n      div\n      swap1\n      0x00\n      mstore\n      keccak256(0x00, 0x20)\n      swap1\n      dup2\n      add\n      swap1\n      tag_223\n      swap2\n      swap1\n      tag_203\n      jump\t// in\n    tag_223:\n    tag_221:\n      pop\n      jump\t// out\n        /* \"#utility.yul\":7:82   */\n    tag_224:\n        /* \"#utility.yul\":40:46   */\n      0x00\n        /* \"#utility.yul\":73:75   */\n      0x40\n        /* \"#utility.yul\":67:76   */\n      mload\n        /* \"#utility.yul\":57:76   */\n      swap1\n      pop\n        /* \"#utility.yul\":7:82   */\n      swap1\n      jump\t// out\n        /* \"#utility.yul\":88:205   */\n    tag_225:\n        /* \"#utility.yul\":197:198   */\n      0x00\n        /* \"#utility.yul\":194:195   */\n      dup1\n        /* \"#utility.yul\":187:199   */\n      revert\n        /* \"#utility.yul\":211:328   */\n    tag_226:\n        /* \"#utility.yul\":320:321   */\n      0x00\n        /* \"#utility.yul\":317:318   */\n      dup1\n        /* \"#utility.yul\":310:322   */\n      revert\n        /* \"#utility.yul\":334:460   */\n    tag_227:\n        /* \"#utility.yul\":371:378   */\n      0x00\n        /* \"#utility.yul\":411:453   */\n      0xffffffffffffffffffffffffffffffffffffffff\n        /* \"#utility.yul\":404:409   */\n      dup3\n        /* \"#utility.yul\":400:454   */\n      and\n        /* \"#utility.yul\":389:454   */\n      swap1\n      pop\n        /* \"#utility.yul\":334:460   */\n      swap2\n      swap1\n      pop\n      jump\t// out\n        /* \"#utility.yul\":466:562   */\n    tag_228:\n        /* \"#utility.yul\":503:510   */\n      0x00\n        /* \"#utility.yul\":532:556   */\n      tag_270\n        /* \"#utility.yul\":550:555   */\n      dup3\n        /* \"#utility.yul\":532:556   */\n      tag_227\n      jump\t// in\n    tag_270:\n        /* \"#utility.yul\":521:556   */\n      swap1\n      pop\n        /* \"#utility.yul\":466:562   */\n      swap2\n      swap1\n      pop\n      jump\t// out\n        /* \"#utility.yul\":568:690   */\n    tag_229:\n        /* \"#utility.yul\":641:665   */\n      tag_272\n        /* \"#utility.yul\":659:664   */\n      dup2\n        /* \"#utility.yul\":641:665   */\n      tag_228\n      jump\t// in\n    tag_272:\n        /* \"#utility.yul\":634:639   */\n      dup2\n        /* \"#utility.yul\":631:666   */\n      eq\n        /* \"#utility.yul\":621:684   */\n      tag_273\n      jumpi\n        /* \"#utility.yul\":680:681   */\n      0x00\n        /* \"#utility.yul\":677:678   */\n      dup1\n        /* \"#utility.yul\":670:682   */\n      revert\n        /* \"#utility.yul\":621:684   */\n    tag_273:\n        /* \"#utility.yul\":568:690   */\n      pop\n      jump\t// out\n        /* \"#utility.yul\":696:835   */\n    tag_230:\n        /* \"#utility.yul\":742:747   */\n      0x00\n        /* \"#utility.yul\":780:786   */\n      dup2\n        /* \"#utility.yul\":767:787   */\n      calldataload\n        /* \"#utility.yul\":758:787   */\n      swap1\n      pop\n        /* \"#utility.yul\":796:829   */\n      tag_275\n        /* \"#utility.yul\":823:828   */\n      dup2\n        /* \"#utility.yul\":796:829   */\n      tag_229\n      jump\t// in\n    tag_275:\n        /* \"#utility.yul\":696:835   */\n      swap3\n      swap2\n      pop\n      pop\n      jump\t// out\n        /* \"#utility.yul\":841:1170   */\n    tag_22:\n        /* \"#utility.yul\":900:906   */\n      0x00\n        /* \"#utility.yul\":949:951   */\n      0x20\n        /* \"#utility.yul\":937:946   */\n      dup3\n        /* \"#utility.yul\":928:935   */\n      dup5\n        /* \"#utility.yul\":924:947   */\n      sub\n        /* \"#utility.yul\":920:952   */\n      slt\n        /* \"#utility.yul\":917:1036   */\n      iszero\n      tag_277\n      jumpi\n        /* \"#utility.yul\":955:1034   */\n      tag_278\n      tag_225\n      jump\t// in\n    tag_278:\n        /* \"#utility.yul\":917:1036   */\n    tag_277:\n        /* \"#utility.yul\":1075:1076   */\n      0x00\n        /* \"#utility.yul\":1100:1153   */\n      tag_279\n        /* \"#utility.yul\":1145:1152   */\n      dup5\n        /* \"#utility.yul\":1136:1142   */\n      dup3\n        /* \"#utility.yul\":1125:1134   */\n      dup6\n        /* \"#utility.yul\":1121:1143   */\n      add\n        /* \"#utility.yul\":1100:1153   */\n      tag_230\n      jump\t// in\n    tag_279:\n        /* \"#utility.yul\":1090:1153   */\n      swap2\n      pop\n        /* \"#utility.yul\":1046:1163   */\n      pop\n        /* \"#utility.yul\":841:1170   */\n      swap3\n      swap2\n      pop\n      pop\n      jump\t// out\n        /* \"#utility.yul\":1176:1266   */\n    tag_231:\n        /* \"#utility.yul\":1210:1217   */\n      0x00\n        /* \"#utility.yul\":1253:1258   */\n      dup2\n        /* \"#utility.yul\":1246:1259   */\n      iszero\n        /* \"#utility.yul\":1239:1260   */\n      iszero\n        /* \"#utility.yul\":1228:1260   */\n      swap1\n      pop\n        /* \"#utility.yul\":1176:1266   */\n      swap2\n      swap1\n      pop\n      jump\t// out\n        /* \"#utility.yul\":1272:1381   */\n    tag_232:\n        /* \"#utility.yul\":1353:1374   */\n      tag_282\n        /* \"#utility.yul\":1368:1373   */\n      dup2\n        /* \"#utility.yul\":1353:1374   */\n      tag_231\n      jump\t// in\n    tag_282:\n        /* \"#utility.yul\":1348:1351   */\n      dup3\n        /* \"#utility.yul\":1341:1375   */\n      mstore\n        /* \"#utility.yul\":1272:1381   */\n      pop\n      pop\n      jump\t// out\n        /* \"#utility.yul\":1387:1597   */\n    tag_25:\n        /* \"#utility.yul\":1474:1478   */\n      0x00\n        /* \"#utility.yul\":1512:1514   */\n      0x20\n        /* \"#utility.yul\":1501:1510   */\n      dup3\n        /* \"#utility.yul\":1497:1515   */\n      add\n        /* \"#utility.yul\":1489:1515   */\n      swap1\n      pop\n        /* \"#utility.yul\":1525:1590   */\n      tag_284\n        /* \"#utility.yul\":1587:1588   */\n      0x00\n        /* \"#utility.yul\":1576:1585   */\n      dup4\n        /* \"#utility.yul\":1572:1589   */\n      add\n        /* \"#utility.yul\":1563:1569   */\n      dup5\n        /* \"#utility.yul\":1525:1590   */\n      tag_232\n      jump\t// in\n    tag_284:\n        /* \"#utility.yul\":1387:1597   */\n      swap3\n      swap2\n      pop\n      pop\n      jump\t// out\n        /* \"#utility.yul\":1603:1720   */\n    tag_233:\n        /* \"#utility.yul\":1712:1713   */\n      0x00\n        /* \"#utility.yul\":1709:1710   */\n      dup1\n        /* \"#utility.yul\":1702:1714   */\n      revert\n        /* \"#utility.yul\":1726:1843   */\n    tag_234:\n        /* \"#utility.yul\":1835:1836   */\n      0x00\n        /* \"#utility.yul\":1832:1833   */\n      dup1\n        /* \"#utility.yul\":1825:1837   */\n      revert\n        /* \"#utility.yul\":1849:1951   */\n    tag_235:\n        /* \"#utility.yul\":1890:1896   */\n      0x00\n        /* \"#utility.yul\":1941:1943   */\n      0x1f\n        /* \"#utility.yul\":1937:1944   */\n      not\n        /* \"#utility.yul\":1932:1934   */\n      0x1f\n        /* \"#utility.yul\":1925:1930   */\n      dup4\n        /* \"#utility.yul\":1921:1935   */\n      add\n        /* \"#utility.yul\":1917:1945   */\n      and\n        /* \"#utility.yul\":1907:1945   */\n      swap1\n      pop\n        /* \"#utility.yul\":1849:1951   */\n      swap2\n      swap1\n      pop\n      jump\t// out\n        /* \"#utility.yul\":1957:2137   */\n    tag_236:\n        /* \"#utility.yul\":2005:2082   */\n      0x4e487b7100000000000000000000000000000000000000000000000000000000\n        /* \"#utility.yul\":2002:2003   */\n      0x00\n        /* \"#utility.yul\":1995:2083   */\n      mstore\n        /* \"#utility.yul\":2102:2106   */\n      0x41\n        /* \"#utility.yul\":2099:2100   */\n      0x04\n        /* \"#utility.yul\":2092:2107   */\n      mstore\n        /* \"#utility.yul\":2126:2130   */\n      0x24\n        /* \"#utility.yul\":2123:2124   */\n      0x00\n        /* \"#utility.yul\":2116:2131   */\n      revert\n        /* \"#utility.yul\":2143:2424   */\n    tag_237:\n        /* \"#utility.yul\":2226:2253   */\n      tag_290\n        /* \"#utility.yul\":2248:2252   */\n      dup3\n        /* \"#utility.yul\":2226:2253   */\n      tag_235\n      jump\t// in\n    tag_290:\n        /* \"#utility.yul\":2218:2224   */\n      dup2\n        /* \"#utility.yul\":2214:2254   */\n      add\n        /* \"#utility.yul\":2356:2362   */\n      dup2\n        /* \"#utility.yul\":2344:2354   */\n      dup2\n        /* \"#utility.yul\":2341:2363   */\n      lt\n        /* \"#utility.yul\":2320:2338   */\n      0xffffffffffffffff\n        /* \"#utility.yul\":2308:2318   */\n      dup3\n        /* \"#utility.yul\":2305:2339   */\n      gt\n        /* \"#utility.yul\":2302:2364   */\n      or\n        /* \"#utility.yul\":2299:2387   */\n      iszero\n      tag_291\n      jumpi\n        /* \"#utility.yul\":2367:2385   */\n      tag_292\n      tag_236\n      jump\t// in\n    tag_292:\n        /* \"#utility.yul\":2299:2387   */\n    tag_291:\n        /* \"#utility.yul\":2407:2417   */\n      dup1\n        /* \"#utility.yul\":2403:2405   */\n      0x40\n        /* \"#utility.yul\":2396:2418   */\n      mstore\n        /* \"#utility.yul\":2186:2424   */\n      pop\n        /* \"#utility.yul\":2143:2424   */\n      pop\n      pop\n      jump\t// out\n        /* \"#utility.yul\":2430:2559   */\n    tag_238:\n        /* \"#utility.yul\":2464:2470   */\n      0x00\n        /* \"#utility.yul\":2491:2511   */\n      tag_294\n      tag_224\n      jump\t// in\n    tag_294:\n        /* \"#utility.yul\":2481:2511   */\n      swap1\n      pop\n        /* \"#utility.yul\":2520:2553   */\n      tag_295\n        /* \"#utility.yul\":2548:2552   */\n      dup3\n        /* \"#utility.yul\":2540:2546   */\n      dup3\n        /* \"#utility.yul\":2520:2553   */\n      tag_237\n      jump\t// in\n    tag_295:\n        /* \"#utility.yul\":2430:2559   */\n      swap2\n      swap1\n      pop\n      jump\t// out\n        /* \"#utility.yul\":2565:2873   */\n    tag_239:\n        /* \"#utility.yul\":2627:2631   */\n      0x00\n        /* \"#utility.yul\":2717:2735   */\n      0xffffffffffffffff\n        /* \"#utility.yul\":2709:2715   */\n      dup3\n        /* \"#utility.yul\":2706:2736   */\n      gt\n        /* \"#utility.yul\":2703:2759   */\n      iszero\n      tag_297\n      jumpi\n        /* \"#utility.yul\":2739:2757   */\n      tag_298\n      tag_236\n      jump\t// in\n    tag_298:\n        /* \"#utility.yul\":2703:2759   */\n    tag_297:\n        /* \"#utility.yul\":2777:2806   */\n      tag_299\n        /* \"#utility.yul\":2799:2805   */\n      dup3\n        /* \"#utility.yul\":2777:2806   */\n      tag_235\n      jump\t// in\n    tag_299:\n        /* \"#utility.yul\":2769:2806   */\n      swap1\n      pop\n        /* \"#utility.yul\":2861:2865   */\n      0x20\n        /* \"#utility.yul\":2855:2859   */\n      dup2\n        /* \"#utility.yul\":2851:2866   */\n      add\n        /* \"#utility.yul\":2843:2866   */\n      swap1\n      pop\n        /* \"#utility.yul\":2565:2873   */\n      swap2\n      swap1\n      pop\n      jump\t// out\n        /* \"#utility.yul\":2879:3033   */\n    tag_240:\n        /* \"#utility.yul\":2963:2969   */\n      dup3\n        /* \"#utility.yul\":2958:2961   */\n      dup2\n        /* \"#utility.yul\":2953:2956   */\n      dup4\n        /* \"#utility.yul\":2940:2970   */\n      calldatacopy\n        /* \"#utility.yul\":3025:3026   */\n      0x00\n        /* \"#utility.yul\":3016:3022   */\n      dup4\n        /* \"#utility.yul\":3011:3014   */\n      dup4\n        /* \"#utility.yul\":3007:3023   */\n      add\n        /* \"#utility.yul\":3000:3027   */\n      mstore\n        /* \"#utility.yul\":2879:3033   */\n      pop\n      pop\n      pop\n      jump\t// out\n        /* \"#utility.yul\":3039:3451   */\n    tag_241:\n        /* \"#utility.yul\":3117:3122   */\n      0x00\n        /* \"#utility.yul\":3142:3208   */\n      tag_302\n        /* \"#utility.yul\":3158:3207   */\n      tag_303\n        /* \"#utility.yul\":3200:3206   */\n      dup5\n        /* \"#utility.yul\":3158:3207   */\n      tag_239\n      jump\t// in\n    tag_303:\n        /* \"#utility.yul\":3142:3208   */\n      tag_238\n      jump\t// in\n    tag_302:\n        /* \"#utility.yul\":3133:3208   */\n      swap1\n      pop\n        /* \"#utility.yul\":3231:3237   */\n      dup3\n        /* \"#utility.yul\":3224:3229   */\n      dup2\n        /* \"#utility.yul\":3217:3238   */\n      mstore\n        /* \"#utility.yul\":3269:3273   */\n      0x20\n        /* \"#utility.yul\":3262:3267   */\n      dup2\n        /* \"#utility.yul\":3258:3274   */\n      add\n        /* \"#utility.yul\":3307:3310   */\n      dup5\n        /* \"#utility.yul\":3298:3304   */\n      dup5\n        /* \"#utility.yul\":3293:3296   */\n      dup5\n        /* \"#utility.yul\":3289:3305   */\n      add\n        /* \"#utility.yul\":3286:3311   */\n      gt\n        /* \"#utility.yul\":3283:3395   */\n      iszero\n      tag_304\n      jumpi\n        /* \"#utility.yul\":3314:3393   */\n      tag_305\n      tag_234\n      jump\t// in\n    tag_305:\n        /* \"#utility.yul\":3283:3395   */\n    tag_304:\n        /* \"#utility.yul\":3404:3445   */\n      tag_306\n        /* \"#utility.yul\":3438:3444   */\n      dup5\n        /* \"#utility.yul\":3433:3436   */\n      dup3\n        /* \"#utility.yul\":3428:3431   */\n      dup6\n        /* \"#utility.yul\":3404:3445   */\n      tag_240\n      jump\t// in\n    tag_306:\n        /* \"#utility.yul\":3123:3451   */\n      pop\n        /* \"#utility.yul\":3039:3451   */\n      swap4\n      swap3\n      pop\n      pop\n      pop\n      jump\t// out\n        /* \"#utility.yul\":3471:3811   */\n    tag_242:\n        /* \"#utility.yul\":3527:3532   */\n      0x00\n        /* \"#utility.yul\":3576:3579   */\n      dup3\n        /* \"#utility.yul\":3569:3573   */\n      0x1f\n        /* \"#utility.yul\":3561:3567   */\n      dup4\n        /* \"#utility.yul\":3557:3574   */\n      add\n        /* \"#utility.yul\":3553:3580   */\n      slt\n        /* \"#utility.yul\":3543:3665   */\n      tag_308\n      jumpi\n        /* \"#utility.yul\":3584:3663   */\n      tag_309\n      tag_233\n      jump\t// in\n    tag_309:\n        /* \"#utility.yul\":3543:3665   */\n    tag_308:\n        /* \"#utility.yul\":3701:3707   */\n      dup2\n        /* \"#utility.yul\":3688:3708   */\n      calldataload\n        /* \"#utility.yul\":3726:3805   */\n      tag_310\n        /* \"#utility.yul\":3801:3804   */\n      dup5\n        /* \"#utility.yul\":3793:3799   */\n      dup3\n        /* \"#utility.yul\":3786:3790   */\n      0x20\n        /* \"#utility.yul\":3778:3784   */\n      dup7\n        /* \"#utility.yul\":3774:3791   */\n      add\n        /* \"#utility.yul\":3726:3805   */\n      tag_241\n      jump\t// in\n    tag_310:\n        /* \"#utility.yul\":3717:3805   */\n      swap2\n      pop\n        /* \"#utility.yul\":3533:3811   */\n      pop\n        /* \"#utility.yul\":3471:3811   */\n      swap3\n      swap2\n      pop\n      pop\n      jump\t// out\n        /* \"#utility.yul\":3817:5302   */\n    tag_28:\n        /* \"#utility.yul\":3943:3949   */\n      0x00\n        /* \"#utility.yul\":3951:3957   */\n      dup1\n        /* \"#utility.yul\":3959:3965   */\n      0x00\n        /* \"#utility.yul\":3967:3973   */\n      dup1\n        /* \"#utility.yul\":4016:4019   */\n      0x80\n        /* \"#utility.yul\":4004:4013   */\n      dup6\n        /* \"#utility.yul\":3995:4002   */\n      dup8\n        /* \"#utility.yul\":3991:4014   */\n      sub\n        /* \"#utility.yul\":3987:4020   */\n      slt\n        /* \"#utility.yul\":3984:4104   */\n      iszero\n      tag_312\n      jumpi\n        /* \"#utility.yul\":4023:4102   */\n      tag_313\n      tag_225\n      jump\t// in\n    tag_313:\n        /* \"#utility.yul\":3984:4104   */\n    tag_312:\n        /* \"#utility.yul\":4171:4172   */\n      0x00\n        /* \"#utility.yul\":4160:4169   */\n      dup6\n        /* \"#utility.yul\":4156:4173   */\n      add\n        /* \"#utility.yul\":4143:4174   */\n      calldataload\n        /* \"#utility.yul\":4201:4219   */\n      0xffffffffffffffff\n        /* \"#utility.yul\":4193:4199   */\n      dup2\n        /* \"#utility.yul\":4190:4220   */\n      gt\n        /* \"#utility.yul\":4187:4304   */\n      iszero\n      tag_314\n      jumpi\n        /* \"#utility.yul\":4223:4302   */\n      tag_315\n      tag_226\n      jump\t// in\n    tag_315:\n        /* \"#utility.yul\":4187:4304   */\n    tag_314:\n        /* \"#utility.yul\":4328:4391   */\n      tag_316\n        /* \"#utility.yul\":4383:4390   */\n      dup8\n        /* \"#utility.yul\":4374:4380   */\n      dup3\n        /* \"#utility.yul\":4363:4372   */\n      dup9\n        /* \"#utility.yul\":4359:4381   */\n      add\n        /* \"#utility.yul\":4328:4391   */\n      tag_242\n      jump\t// in\n    tag_316:\n        /* \"#utility.yul\":4318:4391   */\n      swap5\n      pop\n        /* \"#utility.yul\":4114:4401   */\n      pop\n        /* \"#utility.yul\":4468:4470   */\n      0x20\n        /* \"#utility.yul\":4457:4466   */\n      dup6\n        /* \"#utility.yul\":4453:4471   */\n      add\n        /* \"#utility.yul\":4440:4472   */\n      calldataload\n        /* \"#utility.yul\":4499:4517   */\n      0xffffffffffffffff\n        /* \"#utility.yul\":4491:4497   */\n      dup2\n        /* \"#utility.yul\":4488:4518   */\n      gt\n        /* \"#utility.yul\":4485:4602   */\n      iszero\n      tag_317\n      jumpi\n        /* \"#utility.yul\":4521:4600   */\n      tag_318\n      tag_226\n      jump\t// in\n    tag_318:\n        /* \"#utility.yul\":4485:4602   */\n    tag_317:\n        /* \"#utility.yul\":4626:4689   */\n      tag_319\n        /* \"#utility.yul\":4681:4688   */\n      dup8\n        /* \"#utility.yul\":4672:4678   */\n      dup3\n        /* \"#utility.yul\":4661:4670   */\n      dup9\n        /* \"#utility.yul\":4657:4679   */\n      add\n        /* \"#utility.yul\":4626:4689   */\n      tag_242\n      jump\t// in\n    tag_319:\n        /* \"#utility.yul\":4616:4689   */\n      swap4\n      pop\n        /* \"#utility.yul\":4411:4699   */\n      pop\n        /* \"#utility.yul\":4766:4768   */\n      0x40\n        /* \"#utility.yul\":4755:4764   */\n      dup6\n        /* \"#utility.yul\":4751:4769   */\n      add\n        /* \"#utility.yul\":4738:4770   */\n      calldataload\n        /* \"#utility.yul\":4797:4815   */\n      0xffffffffffffffff\n        /* \"#utility.yul\":4789:4795   */\n      dup2\n        /* \"#utility.yul\":4786:4816   */\n      gt\n        /* \"#utility.yul\":4783:4900   */\n      iszero\n      tag_320\n      jumpi\n        /* \"#utility.yul\":4819:4898   */\n      tag_321\n      tag_226\n      jump\t// in\n    tag_321:\n        /* \"#utility.yul\":4783:4900   */\n    tag_320:\n        /* \"#utility.yul\":4924:4987   */\n      tag_322\n        /* \"#utility.yul\":4979:4986   */\n      dup8\n        /* \"#utility.yul\":4970:4976   */\n      dup3\n        /* \"#utility.yul\":4959:4968   */\n      dup9\n        /* \"#utility.yul\":4955:4977   */\n      add\n        /* \"#utility.yul\":4924:4987   */\n      tag_242\n      jump\t// in\n    tag_322:\n        /* \"#utility.yul\":4914:4987   */\n      swap3\n      pop\n        /* \"#utility.yul\":4709:4997   */\n      pop\n        /* \"#utility.yul\":5064:5066   */\n      0x60\n        /* \"#utility.yul\":5053:5062   */\n      dup6\n        /* \"#utility.yul\":5049:5067   */\n      add\n        /* \"#utility.yul\":5036:5068   */\n      calldataload\n        /* \"#utility.yul\":5095:5113   */\n      0xffffffffffffffff\n        /* \"#utility.yul\":5087:5093   */\n      dup2\n        /* \"#utility.yul\":5084:5114   */\n      gt\n        /* \"#utility.yul\":5081:5198   */\n      iszero\n      tag_323\n      jumpi\n        /* \"#utility.yul\":5117:5196   */\n      tag_324\n      tag_226\n      jump\t// in\n    tag_324:\n        /* \"#utility.yul\":5081:5198   */\n    tag_323:\n        /* \"#utility.yul\":5222:5285   */\n      tag_325\n        /* \"#utility.yul\":5277:5284   */\n      dup8\n        /* \"#utility.yul\":5268:5274   */\n      dup3\n        /* \"#utility.yul\":5257:5266   */\n      dup9\n        /* \"#utility.yul\":5253:5275   */\n      add\n        /* \"#utility.yul\":5222:5285   */\n      tag_242\n      jump\t// in\n    tag_325:\n        /* \"#utility.yul\":5212:5285   */\n      swap2\n      pop\n        /* \"#utility.yul\":5007:5295   */\n      pop\n        /* \"#utility.yul\":3817:5302   */\n      swap3\n      swap6\n      swap2\n      swap5\n      pop\n      swap3\n      pop\n      jump\t// out\n        /* \"#utility.yul\":5308:5817   */\n    tag_35:\n        /* \"#utility.yul\":5377:5383   */\n      0x00\n        /* \"#utility.yul\":5426:5428   */\n      0x20\n        /* \"#utility.yul\":5414:5423   */\n      dup3\n        /* \"#utility.yul\":5405:5412   */\n      dup5\n        /* \"#utility.yul\":5401:5424   */\n      sub\n        /* \"#utility.yul\":5397:5429   */\n      slt\n        /* \"#utility.yul\":5394:5513   */\n      iszero\n      tag_327\n      jumpi\n        /* \"#utility.yul\":5432:5511   */\n      tag_328\n      tag_225\n      jump\t// in\n    tag_328:\n        /* \"#utility.yul\":5394:5513   */\n    tag_327:\n        /* \"#utility.yul\":5580:5581   */\n      0x00\n        /* \"#utility.yul\":5569:5578   */\n      dup3\n        /* \"#utility.yul\":5565:5582   */\n      add\n        /* \"#utility.yul\":5552:5583   */\n      calldataload\n        /* \"#utility.yul\":5610:5628   */\n      0xffffffffffffffff\n        /* \"#utility.yul\":5602:5608   */\n      dup2\n        /* \"#utility.yul\":5599:5629   */\n      gt\n        /* \"#utility.yul\":5596:5713   */\n      iszero\n      tag_329\n      jumpi\n        /* \"#utility.yul\":5632:5711   */\n      tag_330\n      tag_226\n      jump\t// in\n    tag_330:\n        /* \"#utility.yul\":5596:5713   */\n    tag_329:\n        /* \"#utility.yul\":5737:5800   */\n      tag_331\n        /* \"#utility.yul\":5792:5799   */\n      dup5\n        /* \"#utility.yul\":5783:5789   */\n      dup3\n        /* \"#utility.yul\":5772:5781   */\n      dup6\n        /* \"#utility.yul\":5768:5790   */\n      add\n        /* \"#utility.yul\":5737:5800   */\n      tag_242\n      jump\t// in\n    tag_331:\n        /* \"#utility.yul\":5727:5800   */\n      swap2\n      pop\n        /* \"#utility.yul\":5523:5810   */\n      pop\n        /* \"#utility.yul\":5308:5817   */\n      swap3\n      swap2\n      pop\n      pop\n      jump\t// out\n        /* \"#utility.yul\":5823:5900   */\n    tag_243:\n        /* \"#utility.yul\":5860:5867   */\n      0x00\n        /* \"#utility.yul\":5889:5894   */\n      dup2\n        /* \"#utility.yul\":5878:5894   */\n      swap1\n      pop\n        /* \"#utility.yul\":5823:5900   */\n      swap2\n      swap1\n      pop\n      jump\t// out\n        /* \"#utility.yul\":5906:6024   */\n    tag_244:\n        /* \"#utility.yul\":5993:6017   */\n      tag_334\n        /* \"#utility.yul\":6011:6016   */\n      dup2\n        /* \"#utility.yul\":5993:6017   */\n      tag_243\n      jump\t// in\n    tag_334:\n        /* \"#utility.yul\":5988:5991   */\n      dup3\n        /* \"#utility.yul\":5981:6018   */\n      mstore\n        /* \"#utility.yul\":5906:6024   */\n      pop\n      pop\n      jump\t// out\n        /* \"#utility.yul\":6030:6252   */\n    tag_38:\n        /* \"#utility.yul\":6123:6127   */\n      0x00\n        /* \"#utility.yul\":6161:6163   */\n      0x20\n        /* \"#utility.yul\":6150:6159   */\n      dup3\n        /* \"#utility.yul\":6146:6164   */\n      add\n        /* \"#utility.yul\":6138:6164   */\n      swap1\n      pop\n        /* \"#utility.yul\":6174:6245   */\n      tag_336\n        /* \"#utility.yul\":6242:6243   */\n      0x00\n        /* \"#utility.yul\":6231:6240   */\n      dup4\n        /* \"#utility.yul\":6227:6244   */\n      add\n        /* \"#utility.yul\":6218:6224   */\n      dup5\n        /* \"#utility.yul\":6174:6245   */\n      tag_244\n      jump\t// in\n    tag_336:\n        /* \"#utility.yul\":6030:6252   */\n      swap3\n      swap2\n      pop\n      pop\n      jump\t// out\n        /* \"#utility.yul\":6258:6380   */\n    tag_245:\n        /* \"#utility.yul\":6331:6355   */\n      tag_338\n        /* \"#utility.yul\":6349:6354   */\n      dup2\n        /* \"#utility.yul\":6331:6355   */\n      tag_243\n      jump\t// in\n    tag_338:\n        /* \"#utility.yul\":6324:6329   */\n      dup2\n        /* \"#utility.yul\":6321:6356   */\n      eq\n        /* \"#utility.yul\":6311:6374   */\n      tag_339\n      jumpi\n        /* \"#utility.yul\":6370:6371   */\n      0x00\n        /* \"#utility.yul\":6367:6368   */\n      dup1\n        /* \"#utility.yul\":6360:6372   */\n      revert\n        /* \"#utility.yul\":6311:6374   */\n    tag_339:\n        /* \"#utility.yul\":6258:6380   */\n      pop\n      jump\t// out\n        /* \"#utility.yul\":6386:6525   */\n    tag_246:\n        /* \"#utility.yul\":6432:6437   */\n      0x00\n        /* \"#utility.yul\":6470:6476   */\n      dup2\n        /* \"#utility.yul\":6457:6477   */\n      calldataload\n        /* \"#utility.yul\":6448:6477   */\n      swap1\n      pop\n        /* \"#utility.yul\":6486:6519   */\n      tag_341\n        /* \"#utility.yul\":6513:6518   */\n      dup2\n        /* \"#utility.yul\":6486:6519   */\n      tag_245\n      jump\t// in\n    tag_341:\n        /* \"#utility.yul\":6386:6525   */\n      swap3\n      swap2\n      pop\n      pop\n      jump\t// out\n        /* \"#utility.yul\":6531:7185   */\n    tag_58:\n        /* \"#utility.yul\":6609:6615   */\n      0x00\n        /* \"#utility.yul\":6617:6623   */\n      dup1\n        /* \"#utility.yul\":6666:6668   */\n      0x40\n        /* \"#utility.yul\":6654:6663   */\n      dup4\n        /* \"#utility.yul\":6645:6652   */\n      dup6\n        /* \"#utility.yul\":6641:6664   */\n      sub\n        /* \"#utility.yul\":6637:6669   */\n      slt\n        /* \"#utility.yul\":6634:6753   */\n      iszero\n      tag_343\n      jumpi\n        /* \"#utility.yul\":6672:6751   */\n      tag_344\n      tag_225\n      jump\t// in\n    tag_344:\n        /* \"#utility.yul\":6634:6753   */\n    tag_343:\n        /* \"#utility.yul\":6820:6821   */\n      0x00\n        /* \"#utility.yul\":6809:6818   */\n      dup4\n        /* \"#utility.yul\":6805:6822   */\n      add\n        /* \"#utility.yul\":6792:6823   */\n      calldataload\n        /* \"#utility.yul\":6850:6868   */\n      0xffffffffffffffff\n        /* \"#utility.yul\":6842:6848   */\n      dup2\n        /* \"#utility.yul\":6839:6869   */\n      gt\n        /* \"#utility.yul\":6836:6953   */\n      iszero\n      tag_345\n      jumpi\n        /* \"#utility.yul\":6872:6951   */\n      tag_346\n      tag_226\n      jump\t// in\n    tag_346:\n        /* \"#utility.yul\":6836:6953   */\n    tag_345:\n        /* \"#utility.yul\":6977:7040   */\n      tag_347\n        /* \"#utility.yul\":7032:7039   */\n      dup6\n        /* \"#utility.yul\":7023:7029   */\n      dup3\n        /* \"#utility.yul\":7012:7021   */\n      dup7\n        /* \"#utility.yul\":7008:7030   */\n      add\n        /* \"#utility.yul\":6977:7040   */\n      tag_242\n      jump\t// in\n    tag_347:\n        /* \"#utility.yul\":6967:7040   */\n      swap3\n      pop\n        /* \"#utility.yul\":6763:7050   */\n      pop\n        /* \"#utility.yul\":7089:7091   */\n      0x20\n        /* \"#utility.yul\":7115:7168   */\n      tag_348\n        /* \"#utility.yul\":7160:7167   */\n      dup6\n        /* \"#utility.yul\":7151:7157   */\n      dup3\n        /* \"#utility.yul\":7140:7149   */\n      dup7\n        /* \"#utility.yul\":7136:7158   */\n      add\n        /* \"#utility.yul\":7115:7168   */\n      tag_246\n      jump\t// in\n    tag_348:\n        /* \"#utility.yul\":7105:7168   */\n      swap2\n      pop\n        /* \"#utility.yul\":7060:7178   */\n      pop\n        /* \"#utility.yul\":6531:7185   */\n      swap3\n      pop\n      swap3\n      swap1\n      pop\n      jump\t// out\n        /* \"#utility.yul\":7191:7290   */\n    tag_247:\n        /* \"#utility.yul\":7243:7249   */\n      0x00\n        /* \"#utility.yul\":7277:7282   */\n      dup2\n        /* \"#utility.yul\":7271:7283   */\n      mload\n        /* \"#utility.yul\":7261:7283   */\n      swap1\n      pop\n        /* \"#utility.yul\":7191:7290   */\n      swap2\n      swap1\n      pop\n      jump\t// out\n        /* \"#utility.yul\":7296:7465   */\n    tag_248:\n        /* \"#utility.yul\":7380:7391   */\n      0x00\n        /* \"#utility.yul\":7414:7420   */\n      dup3\n        /* \"#utility.yul\":7409:7412   */\n      dup3\n        /* \"#utility.yul\":7402:7421   */\n      mstore\n        /* \"#utility.yul\":7454:7458   */\n      0x20\n        /* \"#utility.yul\":7449:7452   */\n      dup3\n        /* \"#utility.yul\":7445:7459   */\n      add\n        /* \"#utility.yul\":7430:7459   */\n      swap1\n      pop\n        /* \"#utility.yul\":7296:7465   */\n      swap3\n      swap2\n      pop\n      pop\n      jump\t// out\n        /* \"#utility.yul\":7471:7778   */\n    tag_249:\n        /* \"#utility.yul\":7539:7540   */\n      0x00\n        /* \"#utility.yul\":7549:7662   */\n    tag_352:\n        /* \"#utility.yul\":7563:7569   */\n      dup4\n        /* \"#utility.yul\":7560:7561   */\n      dup2\n        /* \"#utility.yul\":7557:7570   */\n      lt\n        /* \"#utility.yul\":7549:7662   */\n      iszero\n      tag_354\n      jumpi\n        /* \"#utility.yul\":7648:7649   */\n      dup1\n        /* \"#utility.yul\":7643:7646   */\n      dup3\n        /* \"#utility.yul\":7639:7650   */\n      add\n        /* \"#utility.yul\":7633:7651   */\n      mload\n        /* \"#utility.yul\":7629:7630   */\n      dup2\n        /* \"#utility.yul\":7624:7627   */\n      dup5\n        /* \"#utility.yul\":7620:7631   */\n      add\n        /* \"#utility.yul\":7613:7652   */\n      mstore\n        /* \"#utility.yul\":7585:7587   */\n      0x20\n        /* \"#utility.yul\":7582:7583   */\n      dup2\n        /* \"#utility.yul\":7578:7588   */\n      add\n        /* \"#utility.yul\":7573:7588   */\n      swap1\n      pop\n        /* \"#utility.yul\":7549:7662   */\n      jump(tag_352)\n    tag_354:\n        /* \"#utility.yul\":7680:7686   */\n      dup4\n        /* \"#utility.yul\":7677:7678   */\n      dup2\n        /* \"#utility.yul\":7674:7687   */\n      gt\n        /* \"#utility.yul\":7671:7772   */\n      iszero\n      tag_355\n      jumpi\n        /* \"#utility.yul\":7760:7761   */\n      0x00\n        /* \"#utility.yul\":7751:7757   */\n      dup5\n        /* \"#utility.yul\":7746:7749   */\n      dup5\n        /* \"#utility.yul\":7742:7758   */\n      add\n        /* \"#utility.yul\":7735:7762   */\n      mstore\n        /* \"#utility.yul\":7671:7772   */\n    tag_355:\n        /* \"#utility.yul\":7520:7778   */\n      pop\n        /* \"#utility.yul\":7471:7778   */\n      pop\n      pop\n      pop\n      jump\t// out\n        /* \"#utility.yul\":7784:8148   */\n    tag_250:\n        /* \"#utility.yul\":7872:7875   */\n      0x00\n        /* \"#utility.yul\":7900:7939   */\n      tag_357\n        /* \"#utility.yul\":7933:7938   */\n      dup3\n        /* \"#utility.yul\":7900:7939   */\n      tag_247\n      jump\t// in\n    tag_357:\n        /* \"#utility.yul\":7955:8026   */\n      tag_358\n        /* \"#utility.yul\":8019:8025   */\n      dup2\n        /* \"#utility.yul\":8014:8017   */\n      dup6\n        /* \"#utility.yul\":7955:8026   */\n      tag_248\n      jump\t// in\n    tag_358:\n        /* \"#utility.yul\":7948:8026   */\n      swap4\n      pop\n        /* \"#utility.yul\":8035:8087   */\n      tag_359\n        /* \"#utility.yul\":8080:8086   */\n      dup2\n        /* \"#utility.yul\":8075:8078   */\n      dup6\n        /* \"#utility.yul\":8068:8072   */\n      0x20\n        /* \"#utility.yul\":8061:8066   */\n      dup7\n        /* \"#utility.yul\":8057:8073   */\n      add\n        /* \"#utility.yul\":8035:8087   */\n      tag_249\n      jump\t// in\n    tag_359:\n        /* \"#utility.yul\":8112:8141   */\n      tag_360\n        /* \"#utility.yul\":8134:8140   */\n      dup2\n        /* \"#utility.yul\":8112:8141   */\n      tag_235\n      jump\t// in\n    tag_360:\n        /* \"#utility.yul\":8107:8110   */\n      dup5\n        /* \"#utility.yul\":8103:8142   */\n      add\n        /* \"#utility.yul\":8096:8142   */\n      swap2\n      pop\n        /* \"#utility.yul\":7876:8148   */\n      pop\n        /* \"#utility.yul\":7784:8148   */\n      swap3\n      swap2\n      pop\n      pop\n      jump\t// out\n        /* \"#utility.yul\":8154:9071   */\n    tag_61:\n        /* \"#utility.yul\":8411:8415   */\n      0x00\n        /* \"#utility.yul\":8449:8452   */\n      0x80\n        /* \"#utility.yul\":8438:8447   */\n      dup3\n        /* \"#utility.yul\":8434:8453   */\n      add\n        /* \"#utility.yul\":8426:8453   */\n      swap1\n      pop\n        /* \"#utility.yul\":8499:8508   */\n      dup2\n        /* \"#utility.yul\":8493:8497   */\n      dup2\n        /* \"#utility.yul\":8489:8509   */\n      sub\n        /* \"#utility.yul\":8485:8486   */\n      0x00\n        /* \"#utility.yul\":8474:8483   */\n      dup4\n        /* \"#utility.yul\":8470:8487   */\n      add\n        /* \"#utility.yul\":8463:8510   */\n      mstore\n        /* \"#utility.yul\":8527:8605   */\n      tag_362\n        /* \"#utility.yul\":8600:8604   */\n      dup2\n        /* \"#utility.yul\":8591:8597   */\n      dup8\n        /* \"#utility.yul\":8527:8605   */\n      tag_250\n      jump\t// in\n    tag_362:\n        /* \"#utility.yul\":8519:8605   */\n      swap1\n      pop\n        /* \"#utility.yul\":8652:8661   */\n      dup2\n        /* \"#utility.yul\":8646:8650   */\n      dup2\n        /* \"#utility.yul\":8642:8662   */\n      sub\n        /* \"#utility.yul\":8637:8639   */\n      0x20\n        /* \"#utility.yul\":8626:8635   */\n      dup4\n        /* \"#utility.yul\":8622:8640   */\n      add\n        /* \"#utility.yul\":8615:8663   */\n      mstore\n        /* \"#utility.yul\":8680:8758   */\n      tag_363\n        /* \"#utility.yul\":8753:8757   */\n      dup2\n        /* \"#utility.yul\":8744:8750   */\n      dup7\n        /* \"#utility.yul\":8680:8758   */\n      tag_250\n      jump\t// in\n    tag_363:\n        /* \"#utility.yul\":8672:8758   */\n      swap1\n      pop\n        /* \"#utility.yul\":8805:8814   */\n      dup2\n        /* \"#utility.yul\":8799:8803   */\n      dup2\n        /* \"#utility.yul\":8795:8815   */\n      sub\n        /* \"#utility.yul\":8790:8792   */\n      0x40\n        /* \"#utility.yul\":8779:8788   */\n      dup4\n        /* \"#utility.yul\":8775:8793   */\n      add\n        /* \"#utility.yul\":8768:8816   */\n      mstore\n        /* \"#utility.yul\":8833:8911   */\n      tag_364\n        /* \"#utility.yul\":8906:8910   */\n      dup2\n        /* \"#utility.yul\":8897:8903   */\n      dup6\n        /* \"#utility.yul\":8833:8911   */\n      tag_250\n      jump\t// in\n    tag_364:\n        /* \"#utility.yul\":8825:8911   */\n      swap1\n      pop\n        /* \"#utility.yul\":8958:8967   */\n      dup2\n        /* \"#utility.yul\":8952:8956   */\n      dup2\n        /* \"#utility.yul\":8948:8968   */\n      sub\n        /* \"#utility.yul\":8943:8945   */\n      0x60\n        /* \"#utility.yul\":8932:8941   */\n      dup4\n        /* \"#utility.yul\":8928:8946   */\n      add\n        /* \"#utility.yul\":8921:8969   */\n      mstore\n        /* \"#utility.yul\":8986:9064   */\n      tag_365\n        /* \"#utility.yul\":9059:9063   */\n      dup2\n        /* \"#utility.yul\":9050:9056   */\n      dup5\n        /* \"#utility.yul\":8986:9064   */\n      tag_250\n      jump\t// in\n    tag_365:\n        /* \"#utility.yul\":8978:9064   */\n      swap1\n      pop\n        /* \"#utility.yul\":8154:9071   */\n      swap6\n      swap5\n      pop\n      pop\n      pop\n      pop\n      pop\n      jump\t// out\n        /* \"#utility.yul\":9077:9225   */\n    tag_251:\n        /* \"#utility.yul\":9178:9184   */\n      0x00\n        /* \"#utility.yul\":9212:9217   */\n      dup2\n        /* \"#utility.yul\":9206:9218   */\n      mload\n        /* \"#utility.yul\":9196:9218   */\n      swap1\n      pop\n        /* \"#utility.yul\":9077:9225   */\n      swap2\n      swap1\n      pop\n      jump\t// out\n        /* \"#utility.yul\":9231:9449   */\n    tag_252:\n        /* \"#utility.yul\":9364:9375   */\n      0x00\n        /* \"#utility.yul\":9398:9404   */\n      dup3\n        /* \"#utility.yul\":9393:9396   */\n      dup3\n        /* \"#utility.yul\":9386:9405   */\n      mstore\n        /* \"#utility.yul\":9438:9442   */\n      0x20\n        /* \"#utility.yul\":9433:9436   */\n      dup3\n        /* \"#utility.yul\":9429:9443   */\n      add\n        /* \"#utility.yul\":9414:9443   */\n      swap1\n      pop\n        /* \"#utility.yul\":9231:9449   */\n      swap3\n      swap2\n      pop\n      pop\n      jump\t// out\n        /* \"#utility.yul\":9455:9621   */\n    tag_253:\n        /* \"#utility.yul\":9556:9560   */\n      0x00\n        /* \"#utility.yul\":9579:9582   */\n      dup2\n        /* \"#utility.yul\":9571:9582   */\n      swap1\n      pop\n        /* \"#utility.yul\":9609:9613   */\n      0x20\n        /* \"#utility.yul\":9604:9607   */\n      dup3\n        /* \"#utility.yul\":9600:9614   */\n      add\n        /* \"#utility.yul\":9592:9614   */\n      swap1\n      pop\n        /* \"#utility.yul\":9455:9621   */\n      swap2\n      swap1\n      pop\n      jump\t// out\n        /* \"#utility.yul\":9627:9786   */\n    tag_254:\n        /* \"#utility.yul\":9701:9712   */\n      0x00\n        /* \"#utility.yul\":9735:9741   */\n      dup3\n        /* \"#utility.yul\":9730:9733   */\n      dup3\n        /* \"#utility.yul\":9723:9742   */\n      mstore\n        /* \"#utility.yul\":9775:9779   */\n      0x20\n        /* \"#utility.yul\":9770:9773   */\n      dup3\n        /* \"#utility.yul\":9766:9780   */\n      add\n        /* \"#utility.yul\":9751:9780   */\n      swap1\n      pop\n        /* \"#utility.yul\":9627:9786   */\n      swap3\n      swap2\n      pop\n      pop\n      jump\t// out\n        /* \"#utility.yul\":9792:10136   */\n    tag_255:\n        /* \"#utility.yul\":9870:9873   */\n      0x00\n        /* \"#utility.yul\":9898:9937   */\n      tag_371\n        /* \"#utility.yul\":9931:9936   */\n      dup3\n        /* \"#utility.yul\":9898:9937   */\n      tag_247\n      jump\t// in\n    tag_371:\n        /* \"#utility.yul\":9953:10014   */\n      tag_372\n        /* \"#utility.yul\":10007:10013   */\n      dup2\n        /* \"#utility.yul\":10002:10005   */\n      dup6\n        /* \"#utility.yul\":9953:10014   */\n      tag_254\n      jump\t// in\n    tag_372:\n        /* \"#utility.yul\":9946:10014   */\n      swap4\n      pop\n        /* \"#utility.yul\":10023:10075   */\n      tag_373\n        /* \"#utility.yul\":10068:10074   */\n      dup2\n        /* \"#utility.yul\":10063:10066   */\n      dup6\n        /* \"#utility.yul\":10056:10060   */\n      0x20\n        /* \"#utility.yul\":10049:10054   */\n      dup7\n        /* \"#utility.yul\":10045:10061   */\n      add\n        /* \"#utility.yul\":10023:10075   */\n      tag_249\n      jump\t// in\n    tag_373:\n        /* \"#utility.yul\":10100:10129   */\n      tag_374\n        /* \"#utility.yul\":10122:10128   */\n      dup2\n        /* \"#utility.yul\":10100:10129   */\n      tag_235\n      jump\t// in\n    tag_374:\n        /* \"#utility.yul\":10095:10098   */\n      dup5\n        /* \"#utility.yul\":10091:10130   */\n      add\n        /* \"#utility.yul\":10084:10130   */\n      swap2\n      pop\n        /* \"#utility.yul\":9874:10136   */\n      pop\n        /* \"#utility.yul\":9792:10136   */\n      swap3\n      swap2\n      pop\n      pop\n      jump\t// out\n        /* \"#utility.yul\":10228:11409   */\n    tag_256:\n        /* \"#utility.yul\":10355:10358   */\n      0x00\n        /* \"#utility.yul\":10391:10395   */\n      0x80\n        /* \"#utility.yul\":10386:10389   */\n      dup4\n        /* \"#utility.yul\":10382:10396   */\n      add\n        /* \"#utility.yul\":10477:10481   */\n      0x00\n        /* \"#utility.yul\":10470:10475   */\n      dup4\n        /* \"#utility.yul\":10466:10482   */\n      add\n        /* \"#utility.yul\":10460:10483   */\n      mload\n        /* \"#utility.yul\":10530:10533   */\n      dup5\n        /* \"#utility.yul\":10524:10528   */\n      dup3\n        /* \"#utility.yul\":10520:10534   */\n      sub\n        /* \"#utility.yul\":10513:10517   */\n      0x00\n        /* \"#utility.yul\":10508:10511   */\n      dup7\n        /* \"#utility.yul\":10504:10518   */\n      add\n        /* \"#utility.yul\":10497:10535   */\n      mstore\n        /* \"#utility.yul\":10556:10629   */\n      tag_376\n        /* \"#utility.yul\":10624:10628   */\n      dup3\n        /* \"#utility.yul\":10610:10622   */\n      dup3\n        /* \"#utility.yul\":10556:10629   */\n      tag_255\n      jump\t// in\n    tag_376:\n        /* \"#utility.yul\":10548:10629   */\n      swap2\n      pop\n        /* \"#utility.yul\":10406:10640   */\n      pop\n        /* \"#utility.yul\":10722:10726   */\n      0x20\n        /* \"#utility.yul\":10715:10720   */\n      dup4\n        /* \"#utility.yul\":10711:10727   */\n      add\n        /* \"#utility.yul\":10705:10728   */\n      mload\n        /* \"#utility.yul\":10775:10778   */\n      dup5\n        /* \"#utility.yul\":10769:10773   */\n      dup3\n        /* \"#utility.yul\":10765:10779   */\n      sub\n        /* \"#utility.yul\":10758:10762   */\n      0x20\n        /* \"#utility.yul\":10753:10756   */\n      dup7\n        /* \"#utility.yul\":10749:10763   */\n      add\n        /* \"#utility.yul\":10742:10780   */\n      mstore\n        /* \"#utility.yul\":10801:10874   */\n      tag_377\n        /* \"#utility.yul\":10869:10873   */\n      dup3\n        /* \"#utility.yul\":10855:10867   */\n      dup3\n        /* \"#utility.yul\":10801:10874   */\n      tag_255\n      jump\t// in\n    tag_377:\n        /* \"#utility.yul\":10793:10874   */\n      swap2\n      pop\n        /* \"#utility.yul\":10650:10885   */\n      pop\n        /* \"#utility.yul\":10971:10975   */\n      0x40\n        /* \"#utility.yul\":10964:10969   */\n      dup4\n        /* \"#utility.yul\":10960:10976   */\n      add\n        /* \"#utility.yul\":10954:10977   */\n      mload\n        /* \"#utility.yul\":11024:11027   */\n      dup5\n        /* \"#utility.yul\":11018:11022   */\n      dup3\n        /* \"#utility.yul\":11014:11028   */\n      sub\n        /* \"#utility.yul\":11007:11011   */\n      0x40\n        /* \"#utility.yul\":11002:11005   */\n      dup7\n        /* \"#utility.yul\":10998:11012   */\n      add\n        /* \"#utility.yul\":10991:11029   */\n      mstore\n        /* \"#utility.yul\":11050:11123   */\n      tag_378\n        /* \"#utility.yul\":11118:11122   */\n      dup3\n        /* \"#utility.yul\":11104:11116   */\n      dup3\n        /* \"#utility.yul\":11050:11123   */\n      tag_255\n      jump\t// in\n    tag_378:\n        /* \"#utility.yul\":11042:11123   */\n      swap2\n      pop\n        /* \"#utility.yul\":10895:11134   */\n      pop\n        /* \"#utility.yul\":11219:11223   */\n      0x60\n        /* \"#utility.yul\":11212:11217   */\n      dup4\n        /* \"#utility.yul\":11208:11224   */\n      add\n        /* \"#utility.yul\":11202:11225   */\n      mload\n        /* \"#utility.yul\":11272:11275   */\n      dup5\n        /* \"#utility.yul\":11266:11270   */\n      dup3\n        /* \"#utility.yul\":11262:11276   */\n      sub\n        /* \"#utility.yul\":11255:11259   */\n      0x60\n        /* \"#utility.yul\":11250:11253   */\n      dup7\n        /* \"#utility.yul\":11246:11260   */\n      add\n        /* \"#utility.yul\":11239:11277   */\n      mstore\n        /* \"#utility.yul\":11298:11371   */\n      tag_379\n        /* \"#utility.yul\":11366:11370   */\n      dup3\n        /* \"#utility.yul\":11352:11364   */\n      dup3\n        /* \"#utility.yul\":11298:11371   */\n      tag_255\n      jump\t// in\n    tag_379:\n        /* \"#utility.yul\":11290:11371   */\n      swap2\n      pop\n        /* \"#utility.yul\":11144:11382   */\n      pop\n        /* \"#utility.yul\":11399:11403   */\n      dup1\n        /* \"#utility.yul\":11392:11403   */\n      swap2\n      pop\n        /* \"#utility.yul\":10360:11409   */\n      pop\n        /* \"#utility.yul\":10228:11409   */\n      swap3\n      swap2\n      pop\n      pop\n      jump\t// out\n        /* \"#utility.yul\":11415:11707   */\n    tag_257:\n        /* \"#utility.yul\":11552:11562   */\n      0x00\n        /* \"#utility.yul\":11587:11701   */\n      tag_381\n        /* \"#utility.yul\":11697:11700   */\n      dup4\n        /* \"#utility.yul\":11689:11695   */\n      dup4\n        /* \"#utility.yul\":11587:11701   */\n      tag_256\n      jump\t// in\n    tag_381:\n        /* \"#utility.yul\":11573:11701   */\n      swap1\n      pop\n        /* \"#utility.yul\":11415:11707   */\n      swap3\n      swap2\n      pop\n      pop\n      jump\t// out\n        /* \"#utility.yul\":11713:11860   */\n    tag_258:\n        /* \"#utility.yul\":11817:11821   */\n      0x00\n        /* \"#utility.yul\":11849:11853   */\n      0x20\n        /* \"#utility.yul\":11844:11847   */\n      dup3\n        /* \"#utility.yul\":11840:11854   */\n      add\n        /* \"#utility.yul\":11832:11854   */\n      swap1\n      pop\n        /* \"#utility.yul\":11713:11860   */\n      swap2\n      swap1\n      pop\n      jump\t// out\n        /* \"#utility.yul\":11956:13139   */\n    tag_259:\n        /* \"#utility.yul\":12143:12146   */\n      0x00\n        /* \"#utility.yul\":12172:12260   */\n      tag_384\n        /* \"#utility.yul\":12254:12259   */\n      dup3\n        /* \"#utility.yul\":12172:12260   */\n      tag_251\n      jump\t// in\n    tag_384:\n        /* \"#utility.yul\":12276:12396   */\n      tag_385\n        /* \"#utility.yul\":12389:12395   */\n      dup2\n        /* \"#utility.yul\":12384:12387   */\n      dup6\n        /* \"#utility.yul\":12276:12396   */\n      tag_252\n      jump\t// in\n    tag_385:\n        /* \"#utility.yul\":12269:12396   */\n      swap4\n      pop\n        /* \"#utility.yul\":12422:12425   */\n      dup4\n        /* \"#utility.yul\":12467:12471   */\n      0x20\n        /* \"#utility.yul\":12459:12465   */\n      dup3\n        /* \"#utility.yul\":12455:12472   */\n      mul\n        /* \"#utility.yul\":12450:12453   */\n      dup6\n        /* \"#utility.yul\":12446:12473   */\n      add\n        /* \"#utility.yul\":12497:12587   */\n      tag_386\n        /* \"#utility.yul\":12581:12586   */\n      dup6\n        /* \"#utility.yul\":12497:12587   */\n      tag_253\n      jump\t// in\n    tag_386:\n        /* \"#utility.yul\":12610:12617   */\n      dup1\n        /* \"#utility.yul\":12641:12642   */\n      0x00\n        /* \"#utility.yul\":12626:13094   */\n    tag_387:\n        /* \"#utility.yul\":12651:12657   */\n      dup6\n        /* \"#utility.yul\":12648:12649   */\n      dup2\n        /* \"#utility.yul\":12645:12658   */\n      lt\n        /* \"#utility.yul\":12626:13094   */\n      iszero\n      tag_389\n      jumpi\n        /* \"#utility.yul\":12722:12731   */\n      dup5\n        /* \"#utility.yul\":12716:12720   */\n      dup5\n        /* \"#utility.yul\":12712:12732   */\n      sub\n        /* \"#utility.yul\":12707:12710   */\n      dup10\n        /* \"#utility.yul\":12700:12733   */\n      mstore\n        /* \"#utility.yul\":12773:12779   */\n      dup2\n        /* \"#utility.yul\":12767:12780   */\n      mload\n        /* \"#utility.yul\":12801:12933   */\n      tag_390\n        /* \"#utility.yul\":12928:12932   */\n      dup6\n        /* \"#utility.yul\":12913:12926   */\n      dup3\n        /* \"#utility.yul\":12801:12933   */\n      tag_257\n      jump\t// in\n    tag_390:\n        /* \"#utility.yul\":12793:12933   */\n      swap5\n      pop\n        /* \"#utility.yul\":12956:13050   */\n      tag_391\n        /* \"#utility.yul\":13043:13049   */\n      dup4\n        /* \"#utility.yul\":12956:13050   */\n      tag_258\n      jump\t// in\n    tag_391:\n        /* \"#utility.yul\":12946:13050   */\n      swap3\n      pop\n        /* \"#utility.yul\":13079:13083   */\n      0x20\n        /* \"#utility.yul\":13074:13077   */\n      dup11\n        /* \"#utility.yul\":13070:13084   */\n      add\n        /* \"#utility.yul\":13063:13084   */\n      swap10\n      pop\n        /* \"#utility.yul\":12686:13094   */\n      pop\n        /* \"#utility.yul\":12673:12674   */\n      0x01\n        /* \"#utility.yul\":12670:12671   */\n      dup2\n        /* \"#utility.yul\":12666:12675   */\n      add\n        /* \"#utility.yul\":12661:12675   */\n      swap1\n      pop\n        /* \"#utility.yul\":12626:13094   */\n      jump(tag_387)\n    tag_389:\n        /* \"#utility.yul\":12630:12644   */\n      pop\n        /* \"#utility.yul\":13110:13114   */\n      dup3\n        /* \"#utility.yul\":13103:13114   */\n      swap8\n      pop\n        /* \"#utility.yul\":13130:13133   */\n      dup8\n        /* \"#utility.yul\":13123:13133   */\n      swap6\n      pop\n        /* \"#utility.yul\":12148:13139   */\n      pop\n      pop\n      pop\n      pop\n      pop\n        /* \"#utility.yul\":11956:13139   */\n      swap3\n      swap2\n      pop\n      pop\n      jump\t// out\n        /* \"#utility.yul\":13145:13654   */\n    tag_76:\n        /* \"#utility.yul\":13356:13360   */\n      0x00\n        /* \"#utility.yul\":13394:13396   */\n      0x20\n        /* \"#utility.yul\":13383:13392   */\n      dup3\n        /* \"#utility.yul\":13379:13397   */\n      add\n        /* \"#utility.yul\":13371:13397   */\n      swap1\n      pop\n        /* \"#utility.yul\":13443:13452   */\n      dup2\n        /* \"#utility.yul\":13437:13441   */\n      dup2\n        /* \"#utility.yul\":13433:13453   */\n      sub\n        /* \"#utility.yul\":13429:13430   */\n      0x00\n        /* \"#utility.yul\":13418:13427   */\n      dup4\n        /* \"#utility.yul\":13414:13431   */\n      add\n        /* \"#utility.yul\":13407:13454   */\n      mstore\n        /* \"#utility.yul\":13471:13647   */\n      tag_393\n        /* \"#utility.yul\":13642:13646   */\n      dup2\n        /* \"#utility.yul\":13633:13639   */\n      dup5\n        /* \"#utility.yul\":13471:13647   */\n      tag_259\n      jump\t// in\n    tag_393:\n        /* \"#utility.yul\":13463:13647   */\n      swap1\n      pop\n        /* \"#utility.yul\":13145:13654   */\n      swap3\n      swap2\n      pop\n      pop\n      jump\t// out\n        /* \"#utility.yul\":13660:13808   */\n    tag_260:\n        /* \"#utility.yul\":13762:13773   */\n      0x00\n        /* \"#utility.yul\":13799:13802   */\n      dup2\n        /* \"#utility.yul\":13784:13802   */\n      swap1\n      pop\n        /* \"#utility.yul\":13660:13808   */\n      swap3\n      swap2\n      pop\n      pop\n      jump\t// out\n        /* \"#utility.yul\":13814:14191   */\n    tag_261:\n        /* \"#utility.yul\":13920:13923   */\n      0x00\n        /* \"#utility.yul\":13948:13987   */\n      tag_396\n        /* \"#utility.yul\":13981:13986   */\n      dup3\n        /* \"#utility.yul\":13948:13987   */\n      tag_247\n      jump\t// in\n    tag_396:\n        /* \"#utility.yul\":14003:14092   */\n      tag_397\n        /* \"#utility.yul\":14085:14091   */\n      dup2\n        /* \"#utility.yul\":14080:14083   */\n      dup6\n        /* \"#utility.yul\":14003:14092   */\n      tag_260\n      jump\t// in\n    tag_397:\n        /* \"#utility.yul\":13996:14092   */\n      swap4\n      pop\n        /* \"#utility.yul\":14101:14153   */\n      tag_398\n        /* \"#utility.yul\":14146:14152   */\n      dup2\n        /* \"#utility.yul\":14141:14144   */\n      dup6\n        /* \"#utility.yul\":14134:14138   */\n      0x20\n        /* \"#utility.yul\":14127:14132   */\n      dup7\n        /* \"#utility.yul\":14123:14139   */\n      add\n        /* \"#utility.yul\":14101:14153   */\n      tag_249\n      jump\t// in\n    tag_398:\n        /* \"#utility.yul\":14178:14184   */\n      dup1\n        /* \"#utility.yul\":14173:14176   */\n      dup5\n        /* \"#utility.yul\":14169:14185   */\n      add\n        /* \"#utility.yul\":14162:14185   */\n      swap2\n      pop\n        /* \"#utility.yul\":13924:14191   */\n      pop\n        /* \"#utility.yul\":13814:14191   */\n      swap3\n      swap2\n      pop\n      pop\n      jump\t// out\n        /* \"#utility.yul\":14197:14472   */\n    tag_81:\n        /* \"#utility.yul\":14329:14332   */\n      0x00\n        /* \"#utility.yul\":14351:14446   */\n      tag_400\n        /* \"#utility.yul\":14442:14445   */\n      dup3\n        /* \"#utility.yul\":14433:14439   */\n      dup5\n        /* \"#utility.yul\":14351:14446   */\n      tag_261\n      jump\t// in\n    tag_400:\n        /* \"#utility.yul\":14344:14446   */\n      swap2\n      pop\n        /* \"#utility.yul\":14463:14466   */\n      dup2\n        /* \"#utility.yul\":14456:14466   */\n      swap1\n      pop\n        /* \"#utility.yul\":14197:14472   */\n      swap3\n      swap2\n      pop\n      pop\n      jump\t// out\n        /* \"#utility.yul\":14478:14658   */\n    tag_262:\n        /* \"#utility.yul\":14526:14603   */\n      0x4e487b7100000000000000000000000000000000000000000000000000000000\n        /* \"#utility.yul\":14523:14524   */\n      0x00\n        /* \"#utility.yul\":14516:14604   */\n      mstore\n        /* \"#utility.yul\":14623:14627   */\n      0x11\n        /* \"#utility.yul\":14620:14621   */\n      0x04\n        /* \"#utility.yul\":14613:14628   */\n      mstore\n        /* \"#utility.yul\":14647:14651   */\n      0x24\n        /* \"#utility.yul\":14644:14645   */\n      0x00\n        /* \"#utility.yul\":14637:14652   */\n      revert\n        /* \"#utility.yul\":14664:14897   */\n    tag_94:\n        /* \"#utility.yul\":14703:14706   */\n      0x00\n        /* \"#utility.yul\":14726:14750   */\n      tag_403\n        /* \"#utility.yul\":14744:14749   */\n      dup3\n        /* \"#utility.yul\":14726:14750   */\n      tag_243\n      jump\t// in\n    tag_403:\n        /* \"#utility.yul\":14717:14750   */\n      swap2\n      pop\n        /* \"#utility.yul\":14772:14838   */\n      0xffffffffffffffffffffffffffffffffffffffffffffffffffffffffffffffff\n        /* \"#utility.yul\":14765:14770   */\n      dup3\n        /* \"#utility.yul\":14762:14839   */\n      eq\n        /* \"#utility.yul\":14759:14862   */\n      iszero\n      tag_404\n      jumpi\n        /* \"#utility.yul\":14842:14860   */\n      tag_405\n      tag_262\n      jump\t// in\n    tag_405:\n        /* \"#utility.yul\":14759:14862   */\n    tag_404:\n        /* \"#utility.yul\":14889:14890   */\n      0x01\n        /* \"#utility.yul\":14882:14887   */\n      dup3\n        /* \"#utility.yul\":14878:14891   */\n      add\n        /* \"#utility.yul\":14871:14891   */\n      swap1\n      pop\n        /* \"#utility.yul\":14664:14897   */\n      swap2\n      swap1\n      pop\n      jump\t// out\n        /* \"#utility.yul\":14903:15083   */\n    tag_263:\n        /* \"#utility.yul\":14951:15028   */\n      0x4e487b7100000000000000000000000000000000000000000000000000000000\n        /* \"#utility.yul\":14948:14949   */\n      0x00\n        /* \"#utility.yul\":14941:15029   */\n      mstore\n        /* \"#utility.yul\":15048:15052   */\n      0x22\n        /* \"#utility.yul\":15045:15046   */\n      0x04\n        /* \"#utility.yul\":15038:15053   */\n      mstore\n        /* \"#utility.yul\":15072:15076   */\n      0x24\n        /* \"#utility.yul\":15069:15070   */\n      0x00\n        /* \"#utility.yul\":15062:15077   */\n      revert\n        /* \"#utility.yul\":15089:15409   */\n    tag_121:\n        /* \"#utility.yul\":15133:15139   */\n      0x00\n        /* \"#utility.yul\":15170:15171   */\n      0x02\n        /* \"#utility.yul\":15164:15168   */\n      dup3\n        /* \"#utility.yul\":15160:15172   */\n      div\n        /* \"#utility.yul\":15150:15172   */\n      swap1\n      pop\n        /* \"#utility.yul\":15217:15218   */\n      0x01\n        /* \"#utility.yul\":15211:15215   */\n      dup3\n        /* \"#utility.yul\":15207:15219   */\n      and\n        /* \"#utility.yul\":15238:15256   */\n      dup1\n        /* \"#utility.yul\":15228:15309   */\n      tag_408\n      jumpi\n        /* \"#utility.yul\":15294:15298   */\n      0x7f\n        /* \"#utility.yul\":15286:15292   */\n      dup3\n        /* \"#utility.yul\":15282:15299   */\n      and\n        /* \"#utility.yul\":15272:15299   */\n      swap2\n      pop\n        /* \"#utility.yul\":15228:15309   */\n    tag_408:\n        /* \"#utility.yul\":15356:15358   */\n      0x20\n        /* \"#utility.yul\":15348:15354   */\n      dup3\n        /* \"#utility.yul\":15345:15359   */\n      lt\n        /* \"#utility.yul\":15325:15343   */\n      dup2\n        /* \"#utility.yul\":15322:15360   */\n      eq\n        /* \"#utility.yul\":15319:15403   */\n      iszero\n      tag_409\n      jumpi\n        /* \"#utility.yul\":15375:15393   */\n      tag_410\n      tag_263\n      jump\t// in\n    tag_410:\n        /* \"#utility.yul\":15319:15403   */\n    tag_409:\n        /* \"#utility.yul\":15140:15409   */\n      pop\n        /* \"#utility.yul\":15089:15409   */\n      swap2\n      swap1\n      pop\n      jump\t// out\n\n    auxdata: 0xa26469706673582212207ab52819569ce6632302d96638e6e339915c53e84678d37f248d587c89a9788e64736f6c63430008090033\n}\n","bytecode":{"linkReferences":{},"object":"608060405234801561001057600080fd5b5060016000803373ffffffffffffffffffffffffffffffffffffffff1673ffffffffffffffffffffffffffffffffffffffff16815260200190815260200160002060006101000a81548160ff021916908315150217905550611b84806100776000396000f3fe608060405234801561001057600080fd5b50600436106100ea5760003560e01c8063704802751161008c578063865ce8e311610066578063865ce8e31461026e578063ab1c5f4a1461029e578063adfb4d07146102ba578063fc2d68f0146102d6576100ea565b806370480275146101ef57806375061fd91461020b5780637e2b3e081461023b576100ea565b80632c92ed07116100c85780632c92ed07146101575780632d7784d6146101875780632ef704f2146101a357806363a846f8146101bf576100ea565b8063061a507a146100ef5780632164bd611461011f5780632b4b8c0d1461013b575b600080fd5b6101096004803603810190610104919061140e565b610306565b6040516101169190611456565b60405180910390f35b610139600480360381019061013491906115b7565b610326565b005b6101556004803603810190610150919061140e565b6104e3565b005b610171600480360381019061016c919061168e565b61059a565b60405161017e91906116f0565b60405180910390f35b6101a1600480360381019061019c919061140e565b6105c8565b005b6101bd60048036038101906101b891906115b7565b61067f565b005b6101d960048036038101906101d4919061140e565b61083c565b6040516101e69190611456565b60405180910390f35b6102096004803603810190610204919061140e565b61085c565b005b6102256004803603810190610220919061140e565b610912565b6040516102329190611456565b60405180910390f35b61025560048036038101906102509190611737565b610932565b604051610265949392919061181b565b60405180910390f35b6102886004803603810190610283919061140e565b610bb5565b6040516102959190611456565b60405180910390f35b6102b860048036038101906102b3919061140e565b610bd5565b005b6102d460048036038101906102cf91906115b7565b610c8b565b005b6102f060048036038101906102eb919061168e565b610e38565b6040516102fd9190611a00565b60405180910390f35b60036020528060005260406000206000915054906101000a900460ff1681565b60011515600260003373ffffffffffffffffffffffffffffffffffffffff1673ffffffffffffffffffffffffffffffffffffffff16815260200190815260200160002060009054906101000a900460ff1615151461038357600080fd5b6005846040516103939190611a5e565b908152602001604051809103902060069080546103b19291906110fd565b50600060405180608001604052808681526020018581526020018481526020018381525090506006819080600181540180825580915050600190039060005260206000209060040201600090919091909150600082015181600001908051906020019061041f9291906111d5565b50602082015181600101908051906020019061043c9291906111d5565b5060408201518160020190805190602001906104599291906111d5565b5060608201518160030190805190602001906104769291906111d5565b505050600660058660405161048b9190611a5e565b90815260200160405180910390209080546104a79291906110fd565b506004856040516104b89190611a5e565b908152602001604051809103902060008154809291906104d790611aa4565b91905055505050505050565b600115156000803373ffffffffffffffffffffffffffffffffffffffff1673ffffffffffffffffffffffffffffffffffffffff16815260200190815260200160002060009054906101000a900460ff1615151461053f57600080fd5b6001600360008373ffffffffffffffffffffffffffffffffffffffff1673ffffffffffffffffffffffffffffffffffffffff16815260200190815260200160002060006101000a81548160ff02191690831515021790555050565b6004818051602081018201805184825260208301602085012081835280955050505050506000915090505481565b600115156000803373ffffffffffffffffffffffffffffffffffffffff1673ffffffffffffffffffffffffffffffffffffffff16815260200190815260200160002060009054906101000a900460ff1615151461062457600080fd5b6001600260008373ffffffffffffffffffffffffffffffffffffffff1673ffffffffffffffffffffffffffffffffffffffff16815260200190815260200160002060006101000a81548160ff02191690831515021790555050565b60011515600360003373ffffffffffffffffffffffffffffffffffffffff1673ffffffffffffffffffffffffffffffffffffffff16815260200190815260200160002060009054906101000a900460ff161515146106dc57600080fd5b6005846040516106ec9190611a5e565b9081526020016040518091039020600690805461070a9291906110fd565b5060006040518060800160405280868152602001858152602001848152602001838152509050600681908060018154018082558091505060019003906000526020600020906004020160009091909190915060008201518160000190805190602001906107789291906111d5565b5060208201518160010190805190602001906107959291906111d5565b5060408201518160020190805190602001906107b29291906111d5565b5060608201518160030190805190602001906107cf9291906111d5565b50505060066005866040516107e49190611a5e565b90815260200160405180910390209080546108009291906110fd565b506004856040516108119190611a5e565b9081526020016040518091039020600081548092919061083090611aa4565b91905055505050505050565b60006020528060005260406000206000915054906101000a900460ff1681565b600115156000803373ffffffffffffffffffffffffffffffffffffffff1673ffffffffffffffffffffffffffffffffffffffff16815260200190815260200160002060009054906101000a900460ff161515146108b857600080fd5b60016000808373ffffffffffffffffffffffffffffffffffffffff1673ffffffffffffffffffffffffffffffffffffffff16815260200190815260200160002060006101000a81548160ff02191690831515021790555050565b60026020528060005260406000206000915054906101000a900460ff1681565b600582805160208101820180518482526020830160208501208183528095505050505050818154811061096457600080fd5b90600052602060002090600402016000915091505080600001805461098890611b1c565b80601f01602080910402602001604051908101604052809291908181526020018280546109b490611b1c565b8015610a015780601f106109d657610100808354040283529160200191610a01565b820191906000526020600020905b8154815290600101906020018083116109e457829003601f168201915b505050505090806001018054610a1690611b1c565b80601f0160208091040260200160405190810160405280929190818152602001828054610a4290611b1c565b8015610a8f5780601f10610a6457610100808354040283529160200191610a8f565b820191906000526020600020905b815481529060010190602001808311610a7257829003601f168201915b505050505090806002018054610aa490611b1c565b80601f0160208091040260200160405190810160405280929190818152602001828054610ad090611b1c565b8015610b1d5780601f10610af257610100808354040283529160200191610b1d565b820191906000526020600020905b815481529060010190602001808311610b0057829003601f168201915b505050505090806003018054610b3290611b1c565b80601f0160208091040260200160405190810160405280929190818152602001828054610b5e90611b1c565b8015610bab5780601f10610b8057610100808354040283529160200191610bab565b820191906000526020600020905b815481529060010190602001808311610b8e57829003601f168201915b5050505050905084565b60016020528060005260406000206000915054906101000a900460ff1681565b600115156000803373ffffffffffffffffffffffffffffffffffffffff1673ffffffffffffffffffffffffffffffffffffffff16815260200190815260200160002060009054906101000a900460ff16151514610c3157600080fd5b60018060008373ffffffffffffffffffffffffffffffffffffffff1673ffffffffffffffffffffffffffffffffffffffff16815260200190815260200160002060006101000a81548160ff02191690831515021790555050565b60011515600160003373ffffffffffffffffffffffffffffffffffffffff1673ffffffffffffffffffffffffffffffffffffffff16815260200190815260200160002060009054906101000a900460ff16151514610ce857600080fd5b600584604051610cf89190611a5e565b90815260200160405180910390206006908054610d169291906110fd565b506000604051806080016040528086815260200185815260200184815260200183815250905060068190806001815401808255809150506001900390600052602060002090600402016000909190919091506000820151816000019080519060200190610d849291906111d5565b506020820151816001019080519060200190610da19291906111d5565b506040820151816002019080519060200190610dbe9291906111d5565b506060820151816003019080519060200190610ddb9291906111d5565b5050506006600586604051610df09190611a5e565b9081526020016040518091039020908054610e0c9291906110fd565b506001600486604051610e1f9190611a5e565b9081526020016040518091039020819055505050505050565b6060600582604051610e4a9190611a5e565b9081526020016040518091039020805480602002602001604051908101604052809291908181526020016000905b828210156110f25783829060005260206000209060040201604051806080016040529081600082018054610eab90611b1c565b80601f0160208091040260200160405190810160405280929190818152602001828054610ed790611b1c565b8015610f245780601f10610ef957610100808354040283529160200191610f24565b820191906000526020600020905b815481529060010190602001808311610f0757829003601f168201915b50505050508152602001600182018054610f3d90611b1c565b80601f0160208091040260200160405190810160405280929190818152602001828054610f6990611b1c565b8015610fb65780601f10610f8b57610100808354040283529160200191610fb6565b820191906000526020600020905b815481529060010190602001808311610f9957829003601f168201915b50505050508152602001600282018054610fcf90611b1c565b80601f0160208091040260200160405190810160405280929190818152602001828054610ffb90611b1c565b80156110485780601f1061101d57610100808354040283529160200191611048565b820191906000526020600020905b81548152906001019060200180831161102b57829003601f168201915b5050505050815260200160038201805461106190611b1c565b80601f016020809104026020016040519081016040528092919081815260200182805461108d90611b1c565b80156110da5780601f106110af576101008083540402835291602001916110da565b820191906000526020600020905b8154815290600101906020018083116110bd57829003601f168201915b50505050508152505081526020019060010190610e78565b505050509050919050565b8280548282559060005260206000209060040281019282156111c45760005260206000209160040282015b828111156111c3578282600082018160000190805461114690611b1c565b61115192919061125b565b50600182018160010190805461116690611b1c565b61117192919061125b565b50600282018160020190805461118690611b1c565b61119192919061125b565b5060038201816003019080546111a690611b1c565b6111b192919061125b565b50505091600401919060040190611128565b5b5090506111d191906112e8565b5090565b8280546111e190611b1c565b90600052602060002090601f016020900481019282611203576000855561124a565b82601f1061121c57805160ff191683800117855561124a565b8280016001018555821561124a579182015b8281111561124957825182559160200191906001019061122e565b5b509050611257919061133f565b5090565b82805461126790611b1c565b90600052602060002090601f01602090048101928261128957600085556112d7565b82601f1061129a57805485556112d7565b828001600101855582156112d757600052602060002091601f016020900482015b828111156112d65782548255916001019190600101906112bb565b5b5090506112e4919061133f565b5090565b5b8082111561133b5760008082016000611302919061135c565b600182016000611312919061135c565b600282016000611322919061135c565b600382016000611332919061135c565b506004016112e9565b5090565b5b80821115611358576000816000905550600101611340565b5090565b50805461136890611b1c565b6000825580601f1061137a5750611399565b601f016020900490600052602060002090810190611398919061133f565b5b50565b6000604051905090565b600080fd5b600080fd5b600073ffffffffffffffffffffffffffffffffffffffff82169050919050565b60006113db826113b0565b9050919050565b6113eb816113d0565b81146113f657600080fd5b50565b600081359050611408816113e2565b92915050565b600060208284031215611424576114236113a6565b5b6000611432848285016113f9565b91505092915050565b60008115159050919050565b6114508161143b565b82525050565b600060208201905061146b6000830184611447565b92915050565b600080fd5b600080fd5b6000601f19601f8301169050919050565b7f4e487b7100000000000000000000000000000000000000000000000000000000600052604160045260246000fd5b6114c48261147b565b810181811067ffffffffffffffff821117156114e3576114e261148c565b5b80604052505050565b60006114f661139c565b905061150282826114bb565b919050565b600067ffffffffffffffff8211156115225761152161148c565b5b61152b8261147b565b9050602081019050919050565b82818337600083830152505050565b600061155a61155584611507565b6114ec565b90508281526020810184848401111561157657611575611476565b5b611581848285611538565b509392505050565b600082601f83011261159e5761159d611471565b5b81356115ae848260208601611547565b91505092915050565b600080600080608085870312156115d1576115d06113a6565b5b600085013567ffffffffffffffff8111156115ef576115ee6113ab565b5b6115fb87828801611589565b945050602085013567ffffffffffffffff81111561161c5761161b6113ab565b5b61162887828801611589565b935050604085013567ffffffffffffffff811115611649576116486113ab565b5b61165587828801611589565b925050606085013567ffffffffffffffff811115611676576116756113ab565b5b61168287828801611589565b91505092959194509250565b6000602082840312156116a4576116a36113a6565b5b600082013567ffffffffffffffff8111156116c2576116c16113ab565b5b6116ce84828501611589565b91505092915050565b6000819050919050565b6116ea816116d7565b82525050565b600060208201905061170560008301846116e1565b92915050565b611714816116d7565b811461171f57600080fd5b50565b6000813590506117318161170b565b92915050565b6000806040838503121561174e5761174d6113a6565b5b600083013567ffffffffffffffff81111561176c5761176b6113ab565b5b61177885828601611589565b925050602061178985828601611722565b9150509250929050565b600081519050919050565b600082825260208201905092915050565b60005b838110156117cd5780820151818401526020810190506117b2565b838111156117dc576000848401525b50505050565b60006117ed82611793565b6117f7818561179e565b93506118078185602086016117af565b6118108161147b565b840191505092915050565b6000608082019050818103600083015261183581876117e2565b9050818103602083015261184981866117e2565b9050818103604083015261185d81856117e2565b9050818103606083015261187181846117e2565b905095945050505050565b600081519050919050565b600082825260208201905092915050565b6000819050602082019050919050565b600082825260208201905092915050565b60006118c482611793565b6118ce81856118a8565b93506118de8185602086016117af565b6118e78161147b565b840191505092915050565b6000608083016000830151848203600086015261190f82826118b9565b9150506020830151848203602086015261192982826118b9565b9150506040830151848203604086015261194382826118b9565b9150506060830151848203606086015261195d82826118b9565b9150508091505092915050565b600061197683836118f2565b905092915050565b6000602082019050919050565b60006119968261187c565b6119a08185611887565b9350836020820285016119b285611898565b8060005b858110156119ee57848403895281516119cf858261196a565b94506119da8361197e565b925060208a019950506001810190506119b6565b50829750879550505050505092915050565b60006020820190508181036000830152611a1a818461198b565b905092915050565b600081905092915050565b6000611a3882611793565b611a428185611a22565b9350611a528185602086016117af565b80840191505092915050565b6000611a6a8284611a2d565b915081905092915050565b7f4e487b7100000000000000000000000000000000000000000000000000000000600052601160045260246000fd5b6000611aaf826116d7565b91507fffffffffffffffffffffffffffffffffffffffffffffffffffffffffffffffff821415611ae257611ae1611a75565b5b600182019050919050565b7f4e487b7100000000000000000000000000000000000000000000000000000000600052602260045260246000fd5b60006002820490506001821680611b3457607f821691505b60208210811415611b4857611b47611aed565b5b5091905056fea26469706673582212207ab52819569ce6632302d96638e6e339915c53e84678d37f248d587c89a9788e64736f6c63430008090033","opcodes":"PUSH1 0x80 PUSH1 0x40 MSTORE CALLVALUE DUP1 ISZERO PUSH2 0x10 JUMPI PUSH1 0x0 DUP1 REVERT JUMPDEST POP PUSH1 0x1 PUSH1 0x0 DUP1 CALLER PUSH20 0xFFFFFFFFFFFFFFFFFFFFFFFFFFFFFFFFFFFFFFFF AND PUSH20 0xFFFFFFFFFFFFFFFFFFFFFFFFFFFFFFFFFFFFFFFF AND DUP2 MSTORE PUSH1 0x20 ADD SWAP1 DUP2 MSTORE PUSH1 0x20 ADD PUSH1 0x0 KECCAK256 PUSH1 0x0 PUSH2 0x100 EXP DUP2 SLOAD DUP2 PUSH1 0xFF MUL NOT AND SWAP1 DUP4 ISZERO ISZERO MUL OR SWAP1 SSTORE POP PUSH2 0x1B84 DUP1 PUSH2 0x77 PUSH1 0x0 CODECOPY PUSH1 0x0 RETURN INVALID PUSH1 0x80 PUSH1 0x40 MSTORE CALLVALUE DUP1 ISZERO PUSH2 0x10 JUMPI PUSH1 0x0 DUP1 REVERT JUMPDEST POP PUSH1 0x4 CALLDATASIZE LT PUSH2 0xEA JUMPI PUSH1 0x0 CALLDATALOAD PUSH1 0xE0 SHR DUP1 PUSH4 0x70480275 GT PUSH2 0x8C JUMPI DUP1 PUSH4 0x865CE8E3 GT PUSH2 0x66 JUMPI DUP1 PUSH4 0x865CE8E3 EQ PUSH2 0x26E JUMPI DUP1 PUSH4 0xAB1C5F4A EQ PUSH2 0x29E JUMPI DUP1 PUSH4 0xADFB4D07 EQ PUSH2 0x2BA JUMPI DUP1 PUSH4 0xFC2D68F0 EQ PUSH2 0x2D6 JUMPI PUSH2 0xEA JUMP JUMPDEST DUP1 PUSH4 0x70480275 EQ PUSH2 0x1EF JUMPI DUP1 PUSH4 0x75061FD9 EQ PUSH2 0x20B JUMPI DUP1 PUSH4 0x7E2B3E08 EQ PUSH2 0x23B JUMPI PUSH2 0xEA JUMP JUMPDEST DUP1 PUSH4 0x2C92ED07 GT PUSH2 0xC8 JUMPI DUP1 PUSH4 0x2C92ED07 EQ PUSH2 0x157 JUMPI DUP1 PUSH4 0x2D7784D6 EQ PUSH2 0x187 JUMPI DUP1 PUSH4 0x2EF704F2 EQ PUSH2 0x1A3 JUMPI DUP1 PUSH4 0x63A846F8 EQ PUSH2 0x1BF JUMPI PUSH2 0xEA JUMP JUMPDEST DUP1 PUSH4 0x61A507A EQ PUSH2 0xEF JUMPI DUP1 PUSH4 0x2164BD61 EQ PUSH2 0x11F JUMPI DUP1 PUSH4 0x2B4B8C0D EQ PUSH2 0x13B JUMPI JUMPDEST PUSH1 0x0 DUP1 REVERT JUMPDEST PUSH2 0x109 PUSH1 0x4 DUP1 CALLDATASIZE SUB DUP2 ADD SWAP1 PUSH2 0x104 SWAP2 SWAP1 PUSH2 0x140E JUMP JUMPDEST PUSH2 0x306 JUMP JUMPDEST PUSH1 0x40 MLOAD PUSH2 0x116 SWAP2 SWAP1 PUSH2 0x1456 JUMP JUMPDEST PUSH1 0x40 MLOAD DUP1 SWAP2 SUB SWAP1 RETURN JUMPDEST PUSH2 0x139 PUSH1 0x4 DUP1 CALLDATASIZE SUB DUP2 ADD SWAP1 PUSH2 0x134 SWAP2 SWAP1 PUSH2 0x15B7 JUMP JUMPDEST PUSH2 0x326 JUMP JUMPDEST STOP JUMPDEST PUSH2 0x155 PUSH1 0x4 DUP1 CALLDATASIZE SUB DUP2 ADD SWAP1 PUSH2 0x150 SWAP2 SWAP1 PUSH2 0x140E JUMP JUMPDEST PUSH2 0x4E3 JUMP JUMPDEST STOP JUMPDEST PUSH2 0x171 PUSH1 0x4 DUP1 CALLDATASIZE SUB DUP2 ADD SWAP1 PUSH2 0x16C SWAP2 SWAP1 PUSH2 0x168E JUMP JUMPDEST PUSH2 0x59A JUMP JUMPDEST PUSH1 0x40 MLOAD PUSH2 0x17E SWAP2 SWAP1 PUSH2 0x16F0 JUMP JUMPDEST PUSH1 0x40 MLOAD DUP1 SWAP2 SUB SWAP1 RETURN JUMPDEST PUSH2 0x1A1 PUSH1 0x4 DUP1 CALLDATASIZE SUB DUP2 ADD SWAP1 PUSH2 0x19C SWAP2 SWAP1 PUSH2 0x140E JUMP JUMPDEST PUSH2 0x5C8 JUMP JUMPDEST STOP JUMPDEST PUSH2 0x1BD PUSH1 0x4 DUP1 CALLDATASIZE SUB DUP2 ADD SWAP1 PUSH2 0x1B8 SWAP2 SWAP1 PUSH2 0x15B7 JUMP JUMPDEST PUSH2 0x67F JUMP JUMPDEST STOP JUMPDEST PUSH2 0x1D9 PUSH1 0x4 DUP1 CALLDATASIZE SUB DUP2 ADD SWAP1 PUSH2 0x1D4 SWAP2 SWAP1 PUSH2 0x140E JUMP JUMPDEST PUSH2 0x83C JUMP JUMPDEST PUSH1 0x40 MLOAD PUSH2 0x1E6 SWAP2 SWAP1 PUSH2 0x1456 JUMP JUMPDEST PUSH1 0x40 MLOAD DUP1 SWAP2 SUB SWAP1 RETURN JUMPDEST PUSH2 0x209 PUSH1 0x4 DUP1 CALLDATASIZE SUB DUP2 ADD SWAP1 PUSH2 0x204 SWAP2 SWAP1 PUSH2 0x140E JUMP JUMPDEST PUSH2 0x85C JUMP JUMPDEST STOP JUMPDEST PUSH2 0x225 PUSH1 0x4 DUP1 CALLDATASIZE SUB DUP2 ADD SWAP1 PUSH2 0x220 SWAP2 SWAP1 PUSH2 0x140E JUMP JUMPDEST PUSH2 0x912 JUMP JUMPDEST PUSH1 0x40 MLOAD PUSH2 0x232 SWAP2 SWAP1 PUSH2 0x1456 JUMP JUMPDEST PUSH1 0x40 MLOAD DUP1 SWAP2 SUB SWAP1 RETURN JUMPDEST PUSH2 0x255 PUSH1 0x4 DUP1 CALLDATASIZE SUB DUP2 ADD SWAP1 PUSH2 0x250 SWAP2 SWAP1 PUSH2 0x1737 JUMP JUMPDEST PUSH2 0x932 JUMP JUMPDEST PUSH1 0x40 MLOAD PUSH2 0x265 SWAP5 SWAP4 SWAP3 SWAP2 SWAP1 PUSH2 0x181B JUMP JUMPDEST PUSH1 0x40 MLOAD DUP1 SWAP2 SUB SWAP1 RETURN JUMPDEST PUSH2 0x288 PUSH1 0x4 DUP1 CALLDATASIZE SUB DUP2 ADD SWAP1 PUSH2 0x283 SWAP2 SWAP1 PUSH2 0x140E JUMP JUMPDEST PUSH2 0xBB5 JUMP JUMPDEST PUSH1 0x40 MLOAD PUSH2 0x295 SWAP2 SWAP1 PUSH2 0x1456 JUMP JUMPDEST PUSH1 0x40 MLOAD DUP1 SWAP2 SUB SWAP1 RETURN JUMPDEST PUSH2 0x2B8 PUSH1 0x4 DUP1 CALLDATASIZE SUB DUP2 ADD SWAP1 PUSH2 0x2B3 SWAP2 SWAP1 PUSH2 0x140E JUMP JUMPDEST PUSH2 0xBD5 JUMP JUMPDEST STOP JUMPDEST PUSH2 0x2D4 PUSH1 0x4 DUP1 CALLDATASIZE SUB DUP2 ADD SWAP1 PUSH2 0x2CF SWAP2 SWAP1 PUSH2 0x15B7 JUMP JUMPDEST PUSH2 0xC8B JUMP JUMPDEST STOP JUMPDEST PUSH2 0x2F0 PUSH1 0x4 DUP1 CALLDATASIZE SUB DUP2 ADD SWAP1 PUSH2 0x2EB SWAP2 SWAP1 PUSH2 0x168E JUMP JUMPDEST PUSH2 0xE38 JUMP JUMPDEST PUSH1 0x40 MLOAD PUSH2 0x2FD SWAP2 SWAP1 PUSH2 0x1A00 JUMP JUMPDEST PUSH1 0x40 MLOAD DUP1 SWAP2 SUB SWAP1 RETURN JUMPDEST PUSH1 0x3 PUSH1 0x20 MSTORE DUP1 PUSH1 0x0 MSTORE PUSH1 0x40 PUSH1 0x0 KECCAK256 PUSH1 0x0 SWAP2 POP SLOAD SWAP1 PUSH2 0x100 EXP SWAP1 DIV PUSH1 0xFF AND DUP2 JUMP JUMPDEST PUSH1 0x1 ISZERO ISZERO PUSH1 0x2 PUSH1 0x0 CALLER PUSH20 0xFFFFFFFFFFFFFFFFFFFFFFFFFFFFFFFFFFFFFFFF AND PUSH20 0xFFFFFFFFFFFFFFFFFFFFFFFFFFFFFFFFFFFFFFFF AND DUP2 MSTORE PUSH1 0x20 ADD SWAP1 DUP2 MSTORE PUSH1 0x20 ADD PUSH1 0x0 KECCAK256 PUSH1 0x0 SWAP1 SLOAD SWAP1 PUSH2 0x100 EXP SWAP1 DIV PUSH1 0xFF AND ISZERO ISZERO EQ PUSH2 0x383 JUMPI PUSH1 0x0 DUP1 REVERT JUMPDEST PUSH1 0x5 DUP5 PUSH1 0x40 MLOAD PUSH2 0x393 SWAP2 SWAP1 PUSH2 0x1A5E JUMP JUMPDEST SWAP1 DUP2 MSTORE PUSH1 0x20 ADD PUSH1 0x40 MLOAD DUP1 SWAP2 SUB SWAP1 KECCAK256 PUSH1 0x6 SWAP1 DUP1 SLOAD PUSH2 0x3B1 SWAP3 SWAP2 SWAP1 PUSH2 0x10FD JUMP JUMPDEST POP PUSH1 0x0 PUSH1 0x40 MLOAD DUP1 PUSH1 0x80 ADD PUSH1 0x40 MSTORE DUP1 DUP7 DUP2 MSTORE PUSH1 0x20 ADD DUP6 DUP2 MSTORE PUSH1 0x20 ADD DUP5 DUP2 MSTORE PUSH1 0x20 ADD DUP4 DUP2 MSTORE POP SWAP1 POP PUSH1 0x6 DUP2 SWAP1 DUP1 PUSH1 0x1 DUP2 SLOAD ADD DUP1 DUP3 SSTORE DUP1 SWAP2 POP POP PUSH1 0x1 SWAP1 SUB SWAP1 PUSH1 0x0 MSTORE PUSH1 0x20 PUSH1 0x0 KECCAK256 SWAP1 PUSH1 0x4 MUL ADD PUSH1 0x0 SWAP1 SWAP2 SWAP1 SWAP2 SWAP1 SWAP2 POP PUSH1 0x0 DUP3 ADD MLOAD DUP2 PUSH1 0x0 ADD SWAP1 DUP1 MLOAD SWAP1 PUSH1 0x20 ADD SWAP1 PUSH2 0x41F SWAP3 SWAP2 SWAP1 PUSH2 0x11D5 JUMP JUMPDEST POP PUSH1 0x20 DUP3 ADD MLOAD DUP2 PUSH1 0x1 ADD SWAP1 DUP1 MLOAD SWAP1 PUSH1 0x20 ADD SWAP1 PUSH2 0x43C SWAP3 SWAP2 SWAP1 PUSH2 0x11D5 JUMP JUMPDEST POP PUSH1 0x40 DUP3 ADD MLOAD DUP2 PUSH1 0x2 ADD SWAP1 DUP1 MLOAD SWAP1 PUSH1 0x20 ADD SWAP1 PUSH2 0x459 SWAP3 SWAP2 SWAP1 PUSH2 0x11D5 JUMP JUMPDEST POP PUSH1 0x60 DUP3 ADD MLOAD DUP2 PUSH1 0x3 ADD SWAP1 DUP1 MLOAD SWAP1 PUSH1 0x20 ADD SWAP1 PUSH2 0x476 SWAP3 SWAP2 SWAP1 PUSH2 0x11D5 JUMP JUMPDEST POP POP POP PUSH1 0x6 PUSH1 0x5 DUP7 PUSH1 0x40 MLOAD PUSH2 0x48B SWAP2 SWAP1 PUSH2 0x1A5E JUMP JUMPDEST SWAP1 DUP2 MSTORE PUSH1 0x20 ADD PUSH1 0x40 MLOAD DUP1 SWAP2 SUB SWAP1 KECCAK256 SWAP1 DUP1 SLOAD PUSH2 0x4A7 SWAP3 SWAP2 SWAP1 PUSH2 0x10FD JUMP JUMPDEST POP PUSH1 0x4 DUP6 PUSH1 0x40 MLOAD PUSH2 0x4B8 SWAP2 SWAP1 PUSH2 0x1A5E JUMP JUMPDEST SWAP1 DUP2 MSTORE PUSH1 0x20 ADD PUSH1 0x40 MLOAD DUP1 SWAP2 SUB SWAP1 KECCAK256 PUSH1 0x0 DUP2 SLOAD DUP1 SWAP3 SWAP2 SWAP1 PUSH2 0x4D7 SWAP1 PUSH2 0x1AA4 JUMP JUMPDEST SWAP2 SWAP1 POP SSTORE POP POP POP POP POP POP JUMP JUMPDEST PUSH1 0x1 ISZERO ISZERO PUSH1 0x0 DUP1 CALLER PUSH20 0xFFFFFFFFFFFFFFFFFFFFFFFFFFFFFFFFFFFFFFFF AND PUSH20 0xFFFFFFFFFFFFFFFFFFFFFFFFFFFFFFFFFFFFFFFF AND DUP2 MSTORE PUSH1 0x20 ADD SWAP1 DUP2 MSTORE PUSH1 0x20 ADD PUSH1 0x0 KECCAK256 PUSH1 0x0 SWAP1 SLOAD SWAP1 PUSH2 0x100 EXP SWAP1 DIV PUSH1 0xFF AND ISZERO ISZERO EQ PUSH2 0x53F JUMPI PUSH1 0x0 DUP1 REVERT JUMPDEST PUSH1 0x1 PUSH1 0x3 PUSH1 0x0 DUP4 PUSH20 0xFFFFFFFFFFFFFFFFFFFFFFFFFFFFFFFFFFFFFFFF AND PUSH20 0xFFFFFFFFFFFFFFFFFFFFFFFFFFFFFFFFFFFFFFFF AND DUP2 MSTORE PUSH1 0x20 ADD SWAP1 DUP2 MSTORE PUSH1 0x20 ADD PUSH1 0x0 KECCAK256 PUSH1 0x0 PUSH2 0x100 EXP DUP2 SLOAD DUP2 PUSH1 0xFF MUL NOT AND SWAP1 DUP4 ISZERO ISZERO MUL OR SWAP1 SSTORE POP POP JUMP JUMPDEST PUSH1 0x4 DUP2 DUP1 MLOAD PUSH1 0x20 DUP2 ADD DUP3 ADD DUP1 MLOAD DUP5 DUP3 MSTORE PUSH1 0x20 DUP4 ADD PUSH1 0x20 DUP6 ADD KECCAK256 DUP2 DUP4 MSTORE DUP1 SWAP6 POP POP POP POP POP POP PUSH1 0x0 SWAP2 POP SWAP1 POP SLOAD DUP2 JUMP JUMPDEST PUSH1 0x1 ISZERO ISZERO PUSH1 0x0 DUP1 CALLER PUSH20 0xFFFFFFFFFFFFFFFFFFFFFFFFFFFFFFFFFFFFFFFF AND PUSH20 0xFFFFFFFFFFFFFFFFFFFFFFFFFFFFFFFFFFFFFFFF AND DUP2 MSTORE PUSH1 0x20 ADD SWAP1 DUP2 MSTORE PUSH1 0x20 ADD PUSH1 0x0 KECCAK256 PUSH1 0x0 SWAP1 SLOAD SWAP1 PUSH2 0x100 EXP SWAP1 DIV PUSH1 0xFF AND ISZERO ISZERO EQ PUSH2 0x624 JUMPI PUSH1 0x0 DUP1 REVERT JUMPDEST PUSH1 0x1 PUSH1 0x2 PUSH1 0x0 DUP4 PUSH20 0xFFFFFFFFFFFFFFFFFFFFFFFFFFFFFFFFFFFFFFFF AND PUSH20 0xFFFFFFFFFFFFFFFFFFFFFFFFFFFFFFFFFFFFFFFF AND DUP2 MSTORE PUSH1 0x20 ADD SWAP1 DUP2 MSTORE PUSH1 0x20 ADD PUSH1 0x0 KECCAK256 PUSH1 0x0 PUSH2 0x100 EXP DUP2 SLOAD DUP2 PUSH1 0xFF MUL NOT AND SWAP1 DUP4 ISZERO ISZERO MUL OR SWAP1 SSTORE POP POP JUMP JUMPDEST PUSH1 0x1 ISZERO ISZERO PUSH1 0x3 PUSH1 0x0 CALLER PUSH20 0xFFFFFFFFFFFFFFFFFFFFFFFFFFFFFFFFFFFFFFFF AND PUSH20 0xFFFFFFFFFFFFFFFFFFFFFFFFFFFFFFFFFFFFFFFF AND DUP2 MSTORE PUSH1 0x20 ADD SWAP1 DUP2 MSTORE PUSH1 0x20 ADD PUSH1 0x0 KECCAK256 PUSH1 0x0 SWAP1 SLOAD SWAP1 PUSH2 0x100 EXP SWAP1 DIV PUSH1 0xFF AND ISZERO ISZERO EQ PUSH2 0x6DC JUMPI PUSH1 0x0 DUP1 REVERT JUMPDEST PUSH1 0x5 DUP5 PUSH1 0x40 MLOAD PUSH2 0x6EC SWAP2 SWAP1 PUSH2 0x1A5E JUMP JUMPDEST SWAP1 DUP2 MSTORE PUSH1 0x20 ADD PUSH1 0x40 MLOAD DUP1 SWAP2 SUB SWAP1 KECCAK256 PUSH1 0x6 SWAP1 DUP1 SLOAD PUSH2 0x70A SWAP3 SWAP2 SWAP1 PUSH2 0x10FD JUMP JUMPDEST POP PUSH1 0x0 PUSH1 0x40 MLOAD DUP1 PUSH1 0x80 ADD PUSH1 0x40 MSTORE DUP1 DUP7 DUP2 MSTORE PUSH1 0x20 ADD DUP6 DUP2 MSTORE PUSH1 0x20 ADD DUP5 DUP2 MSTORE PUSH1 0x20 ADD DUP4 DUP2 MSTORE POP SWAP1 POP PUSH1 0x6 DUP2 SWAP1 DUP1 PUSH1 0x1 DUP2 SLOAD ADD DUP1 DUP3 SSTORE DUP1 SWAP2 POP POP PUSH1 0x1 SWAP1 SUB SWAP1 PUSH1 0x0 MSTORE PUSH1 0x20 PUSH1 0x0 KECCAK256 SWAP1 PUSH1 0x4 MUL ADD PUSH1 0x0 SWAP1 SWAP2 SWAP1 SWAP2 SWAP1 SWAP2 POP PUSH1 0x0 DUP3 ADD MLOAD DUP2 PUSH1 0x0 ADD SWAP1 DUP1 MLOAD SWAP1 PUSH1 0x20 ADD SWAP1 PUSH2 0x778 SWAP3 SWAP2 SWAP1 PUSH2 0x11D5 JUMP JUMPDEST POP PUSH1 0x20 DUP3 ADD MLOAD DUP2 PUSH1 0x1 ADD SWAP1 DUP1 MLOAD SWAP1 PUSH1 0x20 ADD SWAP1 PUSH2 0x795 SWAP3 SWAP2 SWAP1 PUSH2 0x11D5 JUMP JUMPDEST POP PUSH1 0x40 DUP3 ADD MLOAD DUP2 PUSH1 0x2 ADD SWAP1 DUP1 MLOAD SWAP1 PUSH1 0x20 ADD SWAP1 PUSH2 0x7B2 SWAP3 SWAP2 SWAP1 PUSH2 0x11D5 JUMP JUMPDEST POP PUSH1 0x60 DUP3 ADD MLOAD DUP2 PUSH1 0x3 ADD SWAP1 DUP1 MLOAD SWAP1 PUSH1 0x20 ADD SWAP1 PUSH2 0x7CF SWAP3 SWAP2 SWAP1 PUSH2 0x11D5 JUMP JUMPDEST POP POP POP PUSH1 0x6 PUSH1 0x5 DUP7 PUSH1 0x40 MLOAD PUSH2 0x7E4 SWAP2 SWAP1 PUSH2 0x1A5E JUMP JUMPDEST SWAP1 DUP2 MSTORE PUSH1 0x20 ADD PUSH1 0x40 MLOAD DUP1 SWAP2 SUB SWAP1 KECCAK256 SWAP1 DUP1 SLOAD PUSH2 0x800 SWAP3 SWAP2 SWAP1 PUSH2 0x10FD JUMP JUMPDEST POP PUSH1 0x4 DUP6 PUSH1 0x40 MLOAD PUSH2 0x811 SWAP2 SWAP1 PUSH2 0x1A5E JUMP JUMPDEST SWAP1 DUP2 MSTORE PUSH1 0x20 ADD PUSH1 0x40 MLOAD DUP1 SWAP2 SUB SWAP1 KECCAK256 PUSH1 0x0 DUP2 SLOAD DUP1 SWAP3 SWAP2 SWAP1 PUSH2 0x830 SWAP1 PUSH2 0x1AA4 JUMP JUMPDEST SWAP2 SWAP1 POP SSTORE POP POP POP POP POP POP JUMP JUMPDEST PUSH1 0x0 PUSH1 0x20 MSTORE DUP1 PUSH1 0x0 MSTORE PUSH1 0x40 PUSH1 0x0 KECCAK256 PUSH1 0x0 SWAP2 POP SLOAD SWAP1 PUSH2 0x100 EXP SWAP1 DIV PUSH1 0xFF AND DUP2 JUMP JUMPDEST PUSH1 0x1 ISZERO ISZERO PUSH1 0x0 DUP1 CALLER PUSH20 0xFFFFFFFFFFFFFFFFFFFFFFFFFFFFFFFFFFFFFFFF AND PUSH20 0xFFFFFFFFFFFFFFFFFFFFFFFFFFFFFFFFFFFFFFFF AND DUP2 MSTORE PUSH1 0x20 ADD SWAP1 DUP2 MSTORE PUSH1 0x20 ADD PUSH1 0x0 KECCAK256 PUSH1 0x0 SWAP1 SLOAD SWAP1 PUSH2 0x100 EXP SWAP1 DIV PUSH1 0xFF AND ISZERO ISZERO EQ PUSH2 0x8B8 JUMPI PUSH1 0x0 DUP1 REVERT JUMPDEST PUSH1 0x1 PUSH1 0x0 DUP1 DUP4 PUSH20 0xFFFFFFFFFFFFFFFFFFFFFFFFFFFFFFFFFFFFFFFF AND PUSH20 0xFFFFFFFFFFFFFFFFFFFFFFFFFFFFFFFFFFFFFFFF AND DUP2 MSTORE PUSH1 0x20 ADD SWAP1 DUP2 MSTORE PUSH1 0x20 ADD PUSH1 0x0 KECCAK256 PUSH1 0x0 PUSH2 0x100 EXP DUP2 SLOAD DUP2 PUSH1 0xFF MUL NOT AND SWAP1 DUP4 ISZERO ISZERO MUL OR SWAP1 SSTORE POP POP JUMP JUMPDEST PUSH1 0x2 PUSH1 0x20 MSTORE DUP1 PUSH1 0x0 MSTORE PUSH1 0x40 PUSH1 0x0 KECCAK256 PUSH1 0x0 SWAP2 POP SLOAD SWAP1 PUSH2 0x100 EXP SWAP1 DIV PUSH1 0xFF AND DUP2 JUMP JUMPDEST PUSH1 0x5 DUP3 DUP1 MLOAD PUSH1 0x20 DUP2 ADD DUP3 ADD DUP1 MLOAD DUP5 DUP3 MSTORE PUSH1 0x20 DUP4 ADD PUSH1 0x20 DUP6 ADD KECCAK256 DUP2 DUP4 MSTORE DUP1 SWAP6 POP POP POP POP POP POP DUP2 DUP2 SLOAD DUP2 LT PUSH2 0x964 JUMPI PUSH1 0x0 DUP1 REVERT JUMPDEST SWAP1 PUSH1 0x0 MSTORE PUSH1 0x20 PUSH1 0x0 KECCAK256 SWAP1 PUSH1 0x4 MUL ADD PUSH1 0x0 SWAP2 POP SWAP2 POP POP DUP1 PUSH1 0x0 ADD DUP1 SLOAD PUSH2 0x988 SWAP1 PUSH2 0x1B1C JUMP JUMPDEST DUP1 PUSH1 0x1F ADD PUSH1 0x20 DUP1 SWAP2 DIV MUL PUSH1 0x20 ADD PUSH1 0x40 MLOAD SWAP1 DUP2 ADD PUSH1 0x40 MSTORE DUP1 SWAP3 SWAP2 SWAP1 DUP2 DUP2 MSTORE PUSH1 0x20 ADD DUP3 DUP1 SLOAD PUSH2 0x9B4 SWAP1 PUSH2 0x1B1C JUMP JUMPDEST DUP1 ISZERO PUSH2 0xA01 JUMPI DUP1 PUSH1 0x1F LT PUSH2 0x9D6 JUMPI PUSH2 0x100 DUP1 DUP4 SLOAD DIV MUL DUP4 MSTORE SWAP2 PUSH1 0x20 ADD SWAP2 PUSH2 0xA01 JUMP JUMPDEST DUP3 ADD SWAP2 SWAP1 PUSH1 0x0 MSTORE PUSH1 0x20 PUSH1 0x0 KECCAK256 SWAP1 JUMPDEST DUP2 SLOAD DUP2 MSTORE SWAP1 PUSH1 0x1 ADD SWAP1 PUSH1 0x20 ADD DUP1 DUP4 GT PUSH2 0x9E4 JUMPI DUP3 SWAP1 SUB PUSH1 0x1F AND DUP3 ADD SWAP2 JUMPDEST POP POP POP POP POP SWAP1 DUP1 PUSH1 0x1 ADD DUP1 SLOAD PUSH2 0xA16 SWAP1 PUSH2 0x1B1C JUMP JUMPDEST DUP1 PUSH1 0x1F ADD PUSH1 0x20 DUP1 SWAP2 DIV MUL PUSH1 0x20 ADD PUSH1 0x40 MLOAD SWAP1 DUP2 ADD PUSH1 0x40 MSTORE DUP1 SWAP3 SWAP2 SWAP1 DUP2 DUP2 MSTORE PUSH1 0x20 ADD DUP3 DUP1 SLOAD PUSH2 0xA42 SWAP1 PUSH2 0x1B1C JUMP JUMPDEST DUP1 ISZERO PUSH2 0xA8F JUMPI DUP1 PUSH1 0x1F LT PUSH2 0xA64 JUMPI PUSH2 0x100 DUP1 DUP4 SLOAD DIV MUL DUP4 MSTORE SWAP2 PUSH1 0x20 ADD SWAP2 PUSH2 0xA8F JUMP JUMPDEST DUP3 ADD SWAP2 SWAP1 PUSH1 0x0 MSTORE PUSH1 0x20 PUSH1 0x0 KECCAK256 SWAP1 JUMPDEST DUP2 SLOAD DUP2 MSTORE SWAP1 PUSH1 0x1 ADD SWAP1 PUSH1 0x20 ADD DUP1 DUP4 GT PUSH2 0xA72 JUMPI DUP3 SWAP1 SUB PUSH1 0x1F AND DUP3 ADD SWAP2 JUMPDEST POP POP POP POP POP SWAP1 DUP1 PUSH1 0x2 ADD DUP1 SLOAD PUSH2 0xAA4 SWAP1 PUSH2 0x1B1C JUMP JUMPDEST DUP1 PUSH1 0x1F ADD PUSH1 0x20 DUP1 SWAP2 DIV MUL PUSH1 0x20 ADD PUSH1 0x40 MLOAD SWAP1 DUP2 ADD PUSH1 0x40 MSTORE DUP1 SWAP3 SWAP2 SWAP1 DUP2 DUP2 MSTORE PUSH1 0x20 ADD DUP3 DUP1 SLOAD PUSH2 0xAD0 SWAP1 PUSH2 0x1B1C JUMP JUMPDEST DUP1 ISZERO PUSH2 0xB1D JUMPI DUP1 PUSH1 0x1F LT PUSH2 0xAF2 JUMPI PUSH2 0x100 DUP1 DUP4 SLOAD DIV MUL DUP4 MSTORE SWAP2 PUSH1 0x20 ADD SWAP2 PUSH2 0xB1D JUMP JUMPDEST DUP3 ADD SWAP2 SWAP1 PUSH1 0x0 MSTORE PUSH1 0x20 PUSH1 0x0 KECCAK256 SWAP1 JUMPDEST DUP2 SLOAD DUP2 MSTORE SWAP1 PUSH1 0x1 ADD SWAP1 PUSH1 0x20 ADD DUP1 DUP4 GT PUSH2 0xB00 JUMPI DUP3 SWAP1 SUB PUSH1 0x1F AND DUP3 ADD SWAP2 JUMPDEST POP POP POP POP POP SWAP1 DUP1 PUSH1 0x3 ADD DUP1 SLOAD PUSH2 0xB32 SWAP1 PUSH2 0x1B1C JUMP JUMPDEST DUP1 PUSH1 0x1F ADD PUSH1 0x20 DUP1 SWAP2 DIV MUL PUSH1 0x20 ADD PUSH1 0x40 MLOAD SWAP1 DUP2 ADD PUSH1 0x40 MSTORE DUP1 SWAP3 SWAP2 SWAP1 DUP2 DUP2 MSTORE PUSH1 0x20 ADD DUP3 DUP1 SLOAD PUSH2 0xB5E SWAP1 PUSH2 0x1B1C JUMP JUMPDEST DUP1 ISZERO PUSH2 0xBAB JUMPI DUP1 PUSH1 0x1F LT PUSH2 0xB80 JUMPI PUSH2 0x100 DUP1 DUP4 SLOAD DIV MUL DUP4 MSTORE SWAP2 PUSH1 0x20 ADD SWAP2 PUSH2 0xBAB JUMP JUMPDEST DUP3 ADD SWAP2 SWAP1 PUSH1 0x0 MSTORE PUSH1 0x20 PUSH1 0x0 KECCAK256 SWAP1 JUMPDEST DUP2 SLOAD DUP2 MSTORE SWAP1 PUSH1 0x1 ADD SWAP1 PUSH1 0x20 ADD DUP1 DUP4 GT PUSH2 0xB8E JUMPI DUP3 SWAP1 SUB PUSH1 0x1F AND DUP3 ADD SWAP2 JUMPDEST POP POP POP POP POP SWAP1 POP DUP5 JUMP JUMPDEST PUSH1 0x1 PUSH1 0x20 MSTORE DUP1 PUSH1 0x0 MSTORE PUSH1 0x40 PUSH1 0x0 KECCAK256 PUSH1 0x0 SWAP2 POP SLOAD SWAP1 PUSH2 0x100 EXP SWAP1 DIV PUSH1 0xFF AND DUP2 JUMP JUMPDEST PUSH1 0x1 ISZERO ISZERO PUSH1 0x0 DUP1 CALLER PUSH20 0xFFFFFFFFFFFFFFFFFFFFFFFFFFFFFFFFFFFFFFFF AND PUSH20 0xFFFFFFFFFFFFFFFFFFFFFFFFFFFFFFFFFFFFFFFF AND DUP2 MSTORE PUSH1 0x20 ADD SWAP1 DUP2 MSTORE PUSH1 0x20 ADD PUSH1 0x0 KECCAK256 PUSH1 0x0 SWAP1 SLOAD SWAP1 PUSH2 0x100 EXP SWAP1 DIV PUSH1 0xFF AND ISZERO ISZERO EQ PUSH2 0xC31 JUMPI PUSH1 0x0 DUP1 REVERT JUMPDEST PUSH1 0x1 DUP1 PUSH1 0x0 DUP4 PUSH20 0xFFFFFFFFFFFFFFFFFFFFFFFFFFFFFFFFFFFFFFFF AND PUSH20 0xFFFFFFFFFFFFFFFFFFFFFFFFFFFFFFFFFFFFFFFF AND DUP2 MSTORE PUSH1 0x20 ADD SWAP1 DUP2 MSTORE PUSH1 0x20 ADD PUSH1 0x0 KECCAK256 PUSH1 0x0 PUSH2 0x100 EXP DUP2 SLOAD DUP2 PUSH1 0xFF MUL NOT AND SWAP1 DUP4 ISZERO ISZERO MUL OR SWAP1 SSTORE POP POP JUMP JUMPDEST PUSH1 0x1 ISZERO ISZERO PUSH1 0x1 PUSH1 0x0 CALLER PUSH20 0xFFFFFFFFFFFFFFFFFFFFFFFFFFFFFFFFFFFFFFFF AND PUSH20 0xFFFFFFFFFFFFFFFFFFFFFFFFFFFFFFFFFFFFFFFF AND DUP2 MSTORE PUSH1 0x20 ADD SWAP1 DUP2 MSTORE PUSH1 0x20 ADD PUSH1 0x0 KECCAK256 PUSH1 0x0 SWAP1 SLOAD SWAP1 PUSH2 0x100 EXP SWAP1 DIV PUSH1 0xFF AND ISZERO ISZERO EQ PUSH2 0xCE8 JUMPI PUSH1 0x0 DUP1 REVERT JUMPDEST PUSH1 0x5 DUP5 PUSH1 0x40 MLOAD PUSH2 0xCF8 SWAP2 SWAP1 PUSH2 0x1A5E JUMP JUMPDEST SWAP1 DUP2 MSTORE PUSH1 0x20 ADD PUSH1 0x40 MLOAD DUP1 SWAP2 SUB SWAP1 KECCAK256 PUSH1 0x6 SWAP1 DUP1 SLOAD PUSH2 0xD16 SWAP3 SWAP2 SWAP1 PUSH2 0x10FD JUMP JUMPDEST POP PUSH1 0x0 PUSH1 0x40 MLOAD DUP1 PUSH1 0x80 ADD PUSH1 0x40 MSTORE DUP1 DUP7 DUP2 MSTORE PUSH1 0x20 ADD DUP6 DUP2 MSTORE PUSH1 0x20 ADD DUP5 DUP2 MSTORE PUSH1 0x20 ADD DUP4 DUP2 MSTORE POP SWAP1 POP PUSH1 0x6 DUP2 SWAP1 DUP1 PUSH1 0x1 DUP2 SLOAD ADD DUP1 DUP3 SSTORE DUP1 SWAP2 POP POP PUSH1 0x1 SWAP1 SUB SWAP1 PUSH1 0x0 MSTORE PUSH1 0x20 PUSH1 0x0 KECCAK256 SWAP1 PUSH1 0x4 MUL ADD PUSH1 0x0 SWAP1 SWAP2 SWAP1 SWAP2 SWAP1 SWAP2 POP PUSH1 0x0 DUP3 ADD MLOAD DUP2 PUSH1 0x0 ADD SWAP1 DUP1 MLOAD SWAP1 PUSH1 0x20 ADD SWAP1 PUSH2 0xD84 SWAP3 SWAP2 SWAP1 PUSH2 0x11D5 JUMP JUMPDEST POP PUSH1 0x20 DUP3 ADD MLOAD DUP2 PUSH1 0x1 ADD SWAP1 DUP1 MLOAD SWAP1 PUSH1 0x20 ADD SWAP1 PUSH2 0xDA1 SWAP3 SWAP2 SWAP1 PUSH2 0x11D5 JUMP JUMPDEST POP PUSH1 0x40 DUP3 ADD MLOAD DUP2 PUSH1 0x2 ADD SWAP1 DUP1 MLOAD SWAP1 PUSH1 0x20 ADD SWAP1 PUSH2 0xDBE SWAP3 SWAP2 SWAP1 PUSH2 0x11D5 JUMP JUMPDEST POP PUSH1 0x60 DUP3 ADD MLOAD DUP2 PUSH1 0x3 ADD SWAP1 DUP1 MLOAD SWAP1 PUSH1 0x20 ADD SWAP1 PUSH2 0xDDB SWAP3 SWAP2 SWAP1 PUSH2 0x11D5 JUMP JUMPDEST POP POP POP PUSH1 0x6 PUSH1 0x5 DUP7 PUSH1 0x40 MLOAD PUSH2 0xDF0 SWAP2 SWAP1 PUSH2 0x1A5E JUMP JUMPDEST SWAP1 DUP2 MSTORE PUSH1 0x20 ADD PUSH1 0x40 MLOAD DUP1 SWAP2 SUB SWAP1 KECCAK256 SWAP1 DUP1 SLOAD PUSH2 0xE0C SWAP3 SWAP2 SWAP1 PUSH2 0x10FD JUMP JUMPDEST POP PUSH1 0x1 PUSH1 0x4 DUP7 PUSH1 0x40 MLOAD PUSH2 0xE1F SWAP2 SWAP1 PUSH2 0x1A5E JUMP JUMPDEST SWAP1 DUP2 MSTORE PUSH1 0x20 ADD PUSH1 0x40 MLOAD DUP1 SWAP2 SUB SWAP1 KECCAK256 DUP2 SWAP1 SSTORE POP POP POP POP POP POP JUMP JUMPDEST PUSH1 0x60 PUSH1 0x5 DUP3 PUSH1 0x40 MLOAD PUSH2 0xE4A SWAP2 SWAP1 PUSH2 0x1A5E JUMP JUMPDEST SWAP1 DUP2 MSTORE PUSH1 0x20 ADD PUSH1 0x40 MLOAD DUP1 SWAP2 SUB SWAP1 KECCAK256 DUP1 SLOAD DUP1 PUSH1 0x20 MUL PUSH1 0x20 ADD PUSH1 0x40 MLOAD SWAP1 DUP2 ADD PUSH1 0x40 MSTORE DUP1 SWAP3 SWAP2 SWAP1 DUP2 DUP2 MSTORE PUSH1 0x20 ADD PUSH1 0x0 SWAP1 JUMPDEST DUP3 DUP3 LT ISZERO PUSH2 0x10F2 JUMPI DUP4 DUP3 SWAP1 PUSH1 0x0 MSTORE PUSH1 0x20 PUSH1 0x0 KECCAK256 SWAP1 PUSH1 0x4 MUL ADD PUSH1 0x40 MLOAD DUP1 PUSH1 0x80 ADD PUSH1 0x40 MSTORE SWAP1 DUP2 PUSH1 0x0 DUP3 ADD DUP1 SLOAD PUSH2 0xEAB SWAP1 PUSH2 0x1B1C JUMP JUMPDEST DUP1 PUSH1 0x1F ADD PUSH1 0x20 DUP1 SWAP2 DIV MUL PUSH1 0x20 ADD PUSH1 0x40 MLOAD SWAP1 DUP2 ADD PUSH1 0x40 MSTORE DUP1 SWAP3 SWAP2 SWAP1 DUP2 DUP2 MSTORE PUSH1 0x20 ADD DUP3 DUP1 SLOAD PUSH2 0xED7 SWAP1 PUSH2 0x1B1C JUMP JUMPDEST DUP1 ISZERO PUSH2 0xF24 JUMPI DUP1 PUSH1 0x1F LT PUSH2 0xEF9 JUMPI PUSH2 0x100 DUP1 DUP4 SLOAD DIV MUL DUP4 MSTORE SWAP2 PUSH1 0x20 ADD SWAP2 PUSH2 0xF24 JUMP JUMPDEST DUP3 ADD SWAP2 SWAP1 PUSH1 0x0 MSTORE PUSH1 0x20 PUSH1 0x0 KECCAK256 SWAP1 JUMPDEST DUP2 SLOAD DUP2 MSTORE SWAP1 PUSH1 0x1 ADD SWAP1 PUSH1 0x20 ADD DUP1 DUP4 GT PUSH2 0xF07 JUMPI DUP3 SWAP1 SUB PUSH1 0x1F AND DUP3 ADD SWAP2 JUMPDEST POP POP POP POP POP DUP2 MSTORE PUSH1 0x20 ADD PUSH1 0x1 DUP3 ADD DUP1 SLOAD PUSH2 0xF3D SWAP1 PUSH2 0x1B1C JUMP JUMPDEST DUP1 PUSH1 0x1F ADD PUSH1 0x20 DUP1 SWAP2 DIV MUL PUSH1 0x20 ADD PUSH1 0x40 MLOAD SWAP1 DUP2 ADD PUSH1 0x40 MSTORE DUP1 SWAP3 SWAP2 SWAP1 DUP2 DUP2 MSTORE PUSH1 0x20 ADD DUP3 DUP1 SLOAD PUSH2 0xF69 SWAP1 PUSH2 0x1B1C JUMP JUMPDEST DUP1 ISZERO PUSH2 0xFB6 JUMPI DUP1 PUSH1 0x1F LT PUSH2 0xF8B JUMPI PUSH2 0x100 DUP1 DUP4 SLOAD DIV MUL DUP4 MSTORE SWAP2 PUSH1 0x20 ADD SWAP2 PUSH2 0xFB6 JUMP JUMPDEST DUP3 ADD SWAP2 SWAP1 PUSH1 0x0 MSTORE PUSH1 0x20 PUSH1 0x0 KECCAK256 SWAP1 JUMPDEST DUP2 SLOAD DUP2 MSTORE SWAP1 PUSH1 0x1 ADD SWAP1 PUSH1 0x20 ADD DUP1 DUP4 GT PUSH2 0xF99 JUMPI DUP3 SWAP1 SUB PUSH1 0x1F AND DUP3 ADD SWAP2 JUMPDEST POP POP POP POP POP DUP2 MSTORE PUSH1 0x20 ADD PUSH1 0x2 DUP3 ADD DUP1 SLOAD PUSH2 0xFCF SWAP1 PUSH2 0x1B1C JUMP JUMPDEST DUP1 PUSH1 0x1F ADD PUSH1 0x20 DUP1 SWAP2 DIV MUL PUSH1 0x20 ADD PUSH1 0x40 MLOAD SWAP1 DUP2 ADD PUSH1 0x40 MSTORE DUP1 SWAP3 SWAP2 SWAP1 DUP2 DUP2 MSTORE PUSH1 0x20 ADD DUP3 DUP1 SLOAD PUSH2 0xFFB SWAP1 PUSH2 0x1B1C JUMP JUMPDEST DUP1 ISZERO PUSH2 0x1048 JUMPI DUP1 PUSH1 0x1F LT PUSH2 0x101D JUMPI PUSH2 0x100 DUP1 DUP4 SLOAD DIV MUL DUP4 MSTORE SWAP2 PUSH1 0x20 ADD SWAP2 PUSH2 0x1048 JUMP JUMPDEST DUP3 ADD SWAP2 SWAP1 PUSH1 0x0 MSTORE PUSH1 0x20 PUSH1 0x0 KECCAK256 SWAP1 JUMPDEST DUP2 SLOAD DUP2 MSTORE SWAP1 PUSH1 0x1 ADD SWAP1 PUSH1 0x20 ADD DUP1 DUP4 GT PUSH2 0x102B JUMPI DUP3 SWAP1 SUB PUSH1 0x1F AND DUP3 ADD SWAP2 JUMPDEST POP POP POP POP POP DUP2 MSTORE PUSH1 0x20 ADD PUSH1 0x3 DUP3 ADD DUP1 SLOAD PUSH2 0x1061 SWAP1 PUSH2 0x1B1C JUMP JUMPDEST DUP1 PUSH1 0x1F ADD PUSH1 0x20 DUP1 SWAP2 DIV MUL PUSH1 0x20 ADD PUSH1 0x40 MLOAD SWAP1 DUP2 ADD PUSH1 0x40 MSTORE DUP1 SWAP3 SWAP2 SWAP1 DUP2 DUP2 MSTORE PUSH1 0x20 ADD DUP3 DUP1 SLOAD PUSH2 0x108D SWAP1 PUSH2 0x1B1C JUMP JUMPDEST DUP1 ISZERO PUSH2 0x10DA JUMPI DUP1 PUSH1 0x1F LT PUSH2 0x10AF JUMPI PUSH2 0x100 DUP1 DUP4 SLOAD DIV MUL DUP4 MSTORE SWAP2 PUSH1 0x20 ADD SWAP2 PUSH2 0x10DA JUMP JUMPDEST DUP3 ADD SWAP2 SWAP1 PUSH1 0x0 MSTORE PUSH1 0x20 PUSH1 0x0 KECCAK256 SWAP1 JUMPDEST DUP2 SLOAD DUP2 MSTORE SWAP1 PUSH1 0x1 ADD SWAP1 PUSH1 0x20 ADD DUP1 DUP4 GT PUSH2 0x10BD JUMPI DUP3 SWAP1 SUB PUSH1 0x1F AND DUP3 ADD SWAP2 JUMPDEST POP POP POP POP POP DUP2 MSTORE POP POP DUP2 MSTORE PUSH1 0x20 ADD SWAP1 PUSH1 0x1 ADD SWAP1 PUSH2 0xE78 JUMP JUMPDEST POP POP POP POP SWAP1 POP SWAP2 SWAP1 POP JUMP JUMPDEST DUP3 DUP1 SLOAD DUP3 DUP3 SSTORE SWAP1 PUSH1 0x0 MSTORE PUSH1 0x20 PUSH1 0x0 KECCAK256 SWAP1 PUSH1 0x4 MUL DUP2 ADD SWAP3 DUP3 ISZERO PUSH2 0x11C4 JUMPI PUSH1 0x0 MSTORE PUSH1 0x20 PUSH1 0x0 KECCAK256 SWAP2 PUSH1 0x4 MUL DUP3 ADD JUMPDEST DUP3 DUP2 GT ISZERO PUSH2 0x11C3 JUMPI DUP3 DUP3 PUSH1 0x0 DUP3 ADD DUP2 PUSH1 0x0 ADD SWAP1 DUP1 SLOAD PUSH2 0x1146 SWAP1 PUSH2 0x1B1C JUMP JUMPDEST PUSH2 0x1151 SWAP3 SWAP2 SWAP1 PUSH2 0x125B JUMP JUMPDEST POP PUSH1 0x1 DUP3 ADD DUP2 PUSH1 0x1 ADD SWAP1 DUP1 SLOAD PUSH2 0x1166 SWAP1 PUSH2 0x1B1C JUMP JUMPDEST PUSH2 0x1171 SWAP3 SWAP2 SWAP1 PUSH2 0x125B JUMP JUMPDEST POP PUSH1 0x2 DUP3 ADD DUP2 PUSH1 0x2 ADD SWAP1 DUP1 SLOAD PUSH2 0x1186 SWAP1 PUSH2 0x1B1C JUMP JUMPDEST PUSH2 0x1191 SWAP3 SWAP2 SWAP1 PUSH2 0x125B JUMP JUMPDEST POP PUSH1 0x3 DUP3 ADD DUP2 PUSH1 0x3 ADD SWAP1 DUP1 SLOAD PUSH2 0x11A6 SWAP1 PUSH2 0x1B1C JUMP JUMPDEST PUSH2 0x11B1 SWAP3 SWAP2 SWAP1 PUSH2 0x125B JUMP JUMPDEST POP POP POP SWAP2 PUSH1 0x4 ADD SWAP2 SWAP1 PUSH1 0x4 ADD SWAP1 PUSH2 0x1128 JUMP JUMPDEST JUMPDEST POP SWAP1 POP PUSH2 0x11D1 SWAP2 SWAP1 PUSH2 0x12E8 JUMP JUMPDEST POP SWAP1 JUMP JUMPDEST DUP3 DUP1 SLOAD PUSH2 0x11E1 SWAP1 PUSH2 0x1B1C JUMP JUMPDEST SWAP1 PUSH1 0x0 MSTORE PUSH1 0x20 PUSH1 0x0 KECCAK256 SWAP1 PUSH1 0x1F ADD PUSH1 0x20 SWAP1 DIV DUP2 ADD SWAP3 DUP3 PUSH2 0x1203 JUMPI PUSH1 0x0 DUP6 SSTORE PUSH2 0x124A JUMP JUMPDEST DUP3 PUSH1 0x1F LT PUSH2 0x121C JUMPI DUP1 MLOAD PUSH1 0xFF NOT AND DUP4 DUP1 ADD OR DUP6 SSTORE PUSH2 0x124A JUMP JUMPDEST DUP3 DUP1 ADD PUSH1 0x1 ADD DUP6 SSTORE DUP3 ISZERO PUSH2 0x124A JUMPI SWAP2 DUP3 ADD JUMPDEST DUP3 DUP2 GT ISZERO PUSH2 0x1249 JUMPI DUP3 MLOAD DUP3 SSTORE SWAP2 PUSH1 0x20 ADD SWAP2 SWAP1 PUSH1 0x1 ADD SWAP1 PUSH2 0x122E JUMP JUMPDEST JUMPDEST POP SWAP1 POP PUSH2 0x1257 SWAP2 SWAP1 PUSH2 0x133F JUMP JUMPDEST POP SWAP1 JUMP JUMPDEST DUP3 DUP1 SLOAD PUSH2 0x1267 SWAP1 PUSH2 0x1B1C JUMP JUMPDEST SWAP1 PUSH1 0x0 MSTORE PUSH1 0x20 PUSH1 0x0 KECCAK256 SWAP1 PUSH1 0x1F ADD PUSH1 0x20 SWAP1 DIV DUP2 ADD SWAP3 DUP3 PUSH2 0x1289 JUMPI PUSH1 0x0 DUP6 SSTORE PUSH2 0x12D7 JUMP JUMPDEST DUP3 PUSH1 0x1F LT PUSH2 0x129A JUMPI DUP1 SLOAD DUP6 SSTORE PUSH2 0x12D7 JUMP JUMPDEST DUP3 DUP1 ADD PUSH1 0x1 ADD DUP6 SSTORE DUP3 ISZERO PUSH2 0x12D7 JUMPI PUSH1 0x0 MSTORE PUSH1 0x20 PUSH1 0x0 KECCAK256 SWAP2 PUSH1 0x1F ADD PUSH1 0x20 SWAP1 DIV DUP3 ADD JUMPDEST DUP3 DUP2 GT ISZERO PUSH2 0x12D6 JUMPI DUP3 SLOAD DUP3 SSTORE SWAP2 PUSH1 0x1 ADD SWAP2 SWAP1 PUSH1 0x1 ADD SWAP1 PUSH2 0x12BB JUMP JUMPDEST JUMPDEST POP SWAP1 POP PUSH2 0x12E4 SWAP2 SWAP1 PUSH2 0x133F JUMP JUMPDEST POP SWAP1 JUMP JUMPDEST JUMPDEST DUP1 DUP3 GT ISZERO PUSH2 0x133B JUMPI PUSH1 0x0 DUP1 DUP3 ADD PUSH1 0x0 PUSH2 0x1302 SWAP2 SWAP1 PUSH2 0x135C JUMP JUMPDEST PUSH1 0x1 DUP3 ADD PUSH1 0x0 PUSH2 0x1312 SWAP2 SWAP1 PUSH2 0x135C JUMP JUMPDEST PUSH1 0x2 DUP3 ADD PUSH1 0x0 PUSH2 0x1322 SWAP2 SWAP1 PUSH2 0x135C JUMP JUMPDEST PUSH1 0x3 DUP3 ADD PUSH1 0x0 PUSH2 0x1332 SWAP2 SWAP1 PUSH2 0x135C JUMP JUMPDEST POP PUSH1 0x4 ADD PUSH2 0x12E9 JUMP JUMPDEST POP SWAP1 JUMP JUMPDEST JUMPDEST DUP1 DUP3 GT ISZERO PUSH2 0x1358 JUMPI PUSH1 0x0 DUP2 PUSH1 0x0 SWAP1 SSTORE POP PUSH1 0x1 ADD PUSH2 0x1340 JUMP JUMPDEST POP SWAP1 JUMP JUMPDEST POP DUP1 SLOAD PUSH2 0x1368 SWAP1 PUSH2 0x1B1C JUMP JUMPDEST PUSH1 0x0 DUP3 SSTORE DUP1 PUSH1 0x1F LT PUSH2 0x137A JUMPI POP PUSH2 0x1399 JUMP JUMPDEST PUSH1 0x1F ADD PUSH1 0x20 SWAP1 DIV SWAP1 PUSH1 0x0 MSTORE PUSH1 0x20 PUSH1 0x0 KECCAK256 SWAP1 DUP2 ADD SWAP1 PUSH2 0x1398 SWAP2 SWAP1 PUSH2 0x133F JUMP JUMPDEST JUMPDEST POP JUMP JUMPDEST PUSH1 0x0 PUSH1 0x40 MLOAD SWAP1 POP SWAP1 JUMP JUMPDEST PUSH1 0x0 DUP1 REVERT JUMPDEST PUSH1 0x0 DUP1 REVERT JUMPDEST PUSH1 0x0 PUSH20 0xFFFFFFFFFFFFFFFFFFFFFFFFFFFFFFFFFFFFFFFF DUP3 AND SWAP1 POP SWAP2 SWAP1 POP JUMP JUMPDEST PUSH1 0x0 PUSH2 0x13DB DUP3 PUSH2 0x13B0 JUMP JUMPDEST SWAP1 POP SWAP2 SWAP1 POP JUMP JUMPDEST PUSH2 0x13EB DUP2 PUSH2 0x13D0 JUMP JUMPDEST DUP2 EQ PUSH2 0x13F6 JUMPI PUSH1 0x0 DUP1 REVERT JUMPDEST POP JUMP JUMPDEST PUSH1 0x0 DUP2 CALLDATALOAD SWAP1 POP PUSH2 0x1408 DUP2 PUSH2 0x13E2 JUMP JUMPDEST SWAP3 SWAP2 POP POP JUMP JUMPDEST PUSH1 0x0 PUSH1 0x20 DUP3 DUP5 SUB SLT ISZERO PUSH2 0x1424 JUMPI PUSH2 0x1423 PUSH2 0x13A6 JUMP JUMPDEST JUMPDEST PUSH1 0x0 PUSH2 0x1432 DUP5 DUP3 DUP6 ADD PUSH2 0x13F9 JUMP JUMPDEST SWAP2 POP POP SWAP3 SWAP2 POP POP JUMP JUMPDEST PUSH1 0x0 DUP2 ISZERO ISZERO SWAP1 POP SWAP2 SWAP1 POP JUMP JUMPDEST PUSH2 0x1450 DUP2 PUSH2 0x143B JUMP JUMPDEST DUP3 MSTORE POP POP JUMP JUMPDEST PUSH1 0x0 PUSH1 0x20 DUP3 ADD SWAP1 POP PUSH2 0x146B PUSH1 0x0 DUP4 ADD DUP5 PUSH2 0x1447 JUMP JUMPDEST SWAP3 SWAP2 POP POP JUMP JUMPDEST PUSH1 0x0 DUP1 REVERT JUMPDEST PUSH1 0x0 DUP1 REVERT JUMPDEST PUSH1 0x0 PUSH1 0x1F NOT PUSH1 0x1F DUP4 ADD AND SWAP1 POP SWAP2 SWAP1 POP JUMP JUMPDEST PUSH32 0x4E487B7100000000000000000000000000000000000000000000000000000000 PUSH1 0x0 MSTORE PUSH1 0x41 PUSH1 0x4 MSTORE PUSH1 0x24 PUSH1 0x0 REVERT JUMPDEST PUSH2 0x14C4 DUP3 PUSH2 0x147B JUMP JUMPDEST DUP2 ADD DUP2 DUP2 LT PUSH8 0xFFFFFFFFFFFFFFFF DUP3 GT OR ISZERO PUSH2 0x14E3 JUMPI PUSH2 0x14E2 PUSH2 0x148C JUMP JUMPDEST JUMPDEST DUP1 PUSH1 0x40 MSTORE POP POP POP JUMP JUMPDEST PUSH1 0x0 PUSH2 0x14F6 PUSH2 0x139C JUMP JUMPDEST SWAP1 POP PUSH2 0x1502 DUP3 DUP3 PUSH2 0x14BB JUMP JUMPDEST SWAP2 SWAP1 POP JUMP JUMPDEST PUSH1 0x0 PUSH8 0xFFFFFFFFFFFFFFFF DUP3 GT ISZERO PUSH2 0x1522 JUMPI PUSH2 0x1521 PUSH2 0x148C JUMP JUMPDEST JUMPDEST PUSH2 0x152B DUP3 PUSH2 0x147B JUMP JUMPDEST SWAP1 POP PUSH1 0x20 DUP2 ADD SWAP1 POP SWAP2 SWAP1 POP JUMP JUMPDEST DUP3 DUP2 DUP4 CALLDATACOPY PUSH1 0x0 DUP4 DUP4 ADD MSTORE POP POP POP JUMP JUMPDEST PUSH1 0x0 PUSH2 0x155A PUSH2 0x1555 DUP5 PUSH2 0x1507 JUMP JUMPDEST PUSH2 0x14EC JUMP JUMPDEST SWAP1 POP DUP3 DUP2 MSTORE PUSH1 0x20 DUP2 ADD DUP5 DUP5 DUP5 ADD GT ISZERO PUSH2 0x1576 JUMPI PUSH2 0x1575 PUSH2 0x1476 JUMP JUMPDEST JUMPDEST PUSH2 0x1581 DUP5 DUP3 DUP6 PUSH2 0x1538 JUMP JUMPDEST POP SWAP4 SWAP3 POP POP POP JUMP JUMPDEST PUSH1 0x0 DUP3 PUSH1 0x1F DUP4 ADD SLT PUSH2 0x159E JUMPI PUSH2 0x159D PUSH2 0x1471 JUMP JUMPDEST JUMPDEST DUP2 CALLDATALOAD PUSH2 0x15AE DUP5 DUP3 PUSH1 0x20 DUP7 ADD PUSH2 0x1547 JUMP JUMPDEST SWAP2 POP POP SWAP3 SWAP2 POP POP JUMP JUMPDEST PUSH1 0x0 DUP1 PUSH1 0x0 DUP1 PUSH1 0x80 DUP6 DUP8 SUB SLT ISZERO PUSH2 0x15D1 JUMPI PUSH2 0x15D0 PUSH2 0x13A6 JUMP JUMPDEST JUMPDEST PUSH1 0x0 DUP6 ADD CALLDATALOAD PUSH8 0xFFFFFFFFFFFFFFFF DUP2 GT ISZERO PUSH2 0x15EF JUMPI PUSH2 0x15EE PUSH2 0x13AB JUMP JUMPDEST JUMPDEST PUSH2 0x15FB DUP8 DUP3 DUP9 ADD PUSH2 0x1589 JUMP JUMPDEST SWAP5 POP POP PUSH1 0x20 DUP6 ADD CALLDATALOAD PUSH8 0xFFFFFFFFFFFFFFFF DUP2 GT ISZERO PUSH2 0x161C JUMPI PUSH2 0x161B PUSH2 0x13AB JUMP JUMPDEST JUMPDEST PUSH2 0x1628 DUP8 DUP3 DUP9 ADD PUSH2 0x1589 JUMP JUMPDEST SWAP4 POP POP PUSH1 0x40 DUP6 ADD CALLDATALOAD PUSH8 0xFFFFFFFFFFFFFFFF DUP2 GT ISZERO PUSH2 0x1649 JUMPI PUSH2 0x1648 PUSH2 0x13AB JUMP JUMPDEST JUMPDEST PUSH2 0x1655 DUP8 DUP3 DUP9 ADD PUSH2 0x1589 JUMP JUMPDEST SWAP3 POP POP PUSH1 0x60 DUP6 ADD CALLDATALOAD PUSH8 0xFFFFFFFFFFFFFFFF DUP2 GT ISZERO PUSH2 0x1676 JUMPI PUSH2 0x1675 PUSH2 0x13AB JUMP JUMPDEST JUMPDEST PUSH2 0x1682 DUP8 DUP3 DUP9 ADD PUSH2 0x1589 JUMP JUMPDEST SWAP2 POP POP SWAP3 SWAP6 SWAP2 SWAP5 POP SWAP3 POP JUMP JUMPDEST PUSH1 0x0 PUSH1 0x20 DUP3 DUP5 SUB SLT ISZERO PUSH2 0x16A4 JUMPI PUSH2 0x16A3 PUSH2 0x13A6 JUMP JUMPDEST JUMPDEST PUSH1 0x0 DUP3 ADD CALLDATALOAD PUSH8 0xFFFFFFFFFFFFFFFF DUP2 GT ISZERO PUSH2 0x16C2 JUMPI PUSH2 0x16C1 PUSH2 0x13AB JUMP JUMPDEST JUMPDEST PUSH2 0x16CE DUP5 DUP3 DUP6 ADD PUSH2 0x1589 JUMP JUMPDEST SWAP2 POP POP SWAP3 SWAP2 POP POP JUMP JUMPDEST PUSH1 0x0 DUP2 SWAP1 POP SWAP2 SWAP1 POP JUMP JUMPDEST PUSH2 0x16EA DUP2 PUSH2 0x16D7 JUMP JUMPDEST DUP3 MSTORE POP POP JUMP JUMPDEST PUSH1 0x0 PUSH1 0x20 DUP3 ADD SWAP1 POP PUSH2 0x1705 PUSH1 0x0 DUP4 ADD DUP5 PUSH2 0x16E1 JUMP JUMPDEST SWAP3 SWAP2 POP POP JUMP JUMPDEST PUSH2 0x1714 DUP2 PUSH2 0x16D7 JUMP JUMPDEST DUP2 EQ PUSH2 0x171F JUMPI PUSH1 0x0 DUP1 REVERT JUMPDEST POP JUMP JUMPDEST PUSH1 0x0 DUP2 CALLDATALOAD SWAP1 POP PUSH2 0x1731 DUP2 PUSH2 0x170B JUMP JUMPDEST SWAP3 SWAP2 POP POP JUMP JUMPDEST PUSH1 0x0 DUP1 PUSH1 0x40 DUP4 DUP6 SUB SLT ISZERO PUSH2 0x174E JUMPI PUSH2 0x174D PUSH2 0x13A6 JUMP JUMPDEST JUMPDEST PUSH1 0x0 DUP4 ADD CALLDATALOAD PUSH8 0xFFFFFFFFFFFFFFFF DUP2 GT ISZERO PUSH2 0x176C JUMPI PUSH2 0x176B PUSH2 0x13AB JUMP JUMPDEST JUMPDEST PUSH2 0x1778 DUP6 DUP3 DUP7 ADD PUSH2 0x1589 JUMP JUMPDEST SWAP3 POP POP PUSH1 0x20 PUSH2 0x1789 DUP6 DUP3 DUP7 ADD PUSH2 0x1722 JUMP JUMPDEST SWAP2 POP POP SWAP3 POP SWAP3 SWAP1 POP JUMP JUMPDEST PUSH1 0x0 DUP2 MLOAD SWAP1 POP SWAP2 SWAP1 POP JUMP JUMPDEST PUSH1 0x0 DUP3 DUP3 MSTORE PUSH1 0x20 DUP3 ADD SWAP1 POP SWAP3 SWAP2 POP POP JUMP JUMPDEST PUSH1 0x0 JUMPDEST DUP4 DUP2 LT ISZERO PUSH2 0x17CD JUMPI DUP1 DUP3 ADD MLOAD DUP2 DUP5 ADD MSTORE PUSH1 0x20 DUP2 ADD SWAP1 POP PUSH2 0x17B2 JUMP JUMPDEST DUP4 DUP2 GT ISZERO PUSH2 0x17DC JUMPI PUSH1 0x0 DUP5 DUP5 ADD MSTORE JUMPDEST POP POP POP POP JUMP JUMPDEST PUSH1 0x0 PUSH2 0x17ED DUP3 PUSH2 0x1793 JUMP JUMPDEST PUSH2 0x17F7 DUP2 DUP6 PUSH2 0x179E JUMP JUMPDEST SWAP4 POP PUSH2 0x1807 DUP2 DUP6 PUSH1 0x20 DUP7 ADD PUSH2 0x17AF JUMP JUMPDEST PUSH2 0x1810 DUP2 PUSH2 0x147B JUMP JUMPDEST DUP5 ADD SWAP2 POP POP SWAP3 SWAP2 POP POP JUMP JUMPDEST PUSH1 0x0 PUSH1 0x80 DUP3 ADD SWAP1 POP DUP2 DUP2 SUB PUSH1 0x0 DUP4 ADD MSTORE PUSH2 0x1835 DUP2 DUP8 PUSH2 0x17E2 JUMP JUMPDEST SWAP1 POP DUP2 DUP2 SUB PUSH1 0x20 DUP4 ADD MSTORE PUSH2 0x1849 DUP2 DUP7 PUSH2 0x17E2 JUMP JUMPDEST SWAP1 POP DUP2 DUP2 SUB PUSH1 0x40 DUP4 ADD MSTORE PUSH2 0x185D DUP2 DUP6 PUSH2 0x17E2 JUMP JUMPDEST SWAP1 POP DUP2 DUP2 SUB PUSH1 0x60 DUP4 ADD MSTORE PUSH2 0x1871 DUP2 DUP5 PUSH2 0x17E2 JUMP JUMPDEST SWAP1 POP SWAP6 SWAP5 POP POP POP POP POP JUMP JUMPDEST PUSH1 0x0 DUP2 MLOAD SWAP1 POP SWAP2 SWAP1 POP JUMP JUMPDEST PUSH1 0x0 DUP3 DUP3 MSTORE PUSH1 0x20 DUP3 ADD SWAP1 POP SWAP3 SWAP2 POP POP JUMP JUMPDEST PUSH1 0x0 DUP2 SWAP1 POP PUSH1 0x20 DUP3 ADD SWAP1 POP SWAP2 SWAP1 POP JUMP JUMPDEST PUSH1 0x0 DUP3 DUP3 MSTORE PUSH1 0x20 DUP3 ADD SWAP1 POP SWAP3 SWAP2 POP POP JUMP JUMPDEST PUSH1 0x0 PUSH2 0x18C4 DUP3 PUSH2 0x1793 JUMP JUMPDEST PUSH2 0x18CE DUP2 DUP6 PUSH2 0x18A8 JUMP JUMPDEST SWAP4 POP PUSH2 0x18DE DUP2 DUP6 PUSH1 0x20 DUP7 ADD PUSH2 0x17AF JUMP JUMPDEST PUSH2 0x18E7 DUP2 PUSH2 0x147B JUMP JUMPDEST DUP5 ADD SWAP2 POP POP SWAP3 SWAP2 POP POP JUMP JUMPDEST PUSH1 0x0 PUSH1 0x80 DUP4 ADD PUSH1 0x0 DUP4 ADD MLOAD DUP5 DUP3 SUB PUSH1 0x0 DUP7 ADD MSTORE PUSH2 0x190F DUP3 DUP3 PUSH2 0x18B9 JUMP JUMPDEST SWAP2 POP POP PUSH1 0x20 DUP4 ADD MLOAD DUP5 DUP3 SUB PUSH1 0x20 DUP7 ADD MSTORE PUSH2 0x1929 DUP3 DUP3 PUSH2 0x18B9 JUMP JUMPDEST SWAP2 POP POP PUSH1 0x40 DUP4 ADD MLOAD DUP5 DUP3 SUB PUSH1 0x40 DUP7 ADD MSTORE PUSH2 0x1943 DUP3 DUP3 PUSH2 0x18B9 JUMP JUMPDEST SWAP2 POP POP PUSH1 0x60 DUP4 ADD MLOAD DUP5 DUP3 SUB PUSH1 0x60 DUP7 ADD MSTORE PUSH2 0x195D DUP3 DUP3 PUSH2 0x18B9 JUMP JUMPDEST SWAP2 POP POP DUP1 SWAP2 POP POP SWAP3 SWAP2 POP POP JUMP JUMPDEST PUSH1 0x0 PUSH2 0x1976 DUP4 DUP4 PUSH2 0x18F2 JUMP JUMPDEST SWAP1 POP SWAP3 SWAP2 POP POP JUMP JUMPDEST PUSH1 0x0 PUSH1 0x20 DUP3 ADD SWAP1 POP SWAP2 SWAP1 POP JUMP JUMPDEST PUSH1 0x0 PUSH2 0x1996 DUP3 PUSH2 0x187C JUMP JUMPDEST PUSH2 0x19A0 DUP2 DUP6 PUSH2 0x1887 JUMP JUMPDEST SWAP4 POP DUP4 PUSH1 0x20 DUP3 MUL DUP6 ADD PUSH2 0x19B2 DUP6 PUSH2 0x1898 JUMP JUMPDEST DUP1 PUSH1 0x0 JUMPDEST DUP6 DUP2 LT ISZERO PUSH2 0x19EE JUMPI DUP5 DUP5 SUB DUP10 MSTORE DUP2 MLOAD PUSH2 0x19CF DUP6 DUP3 PUSH2 0x196A JUMP JUMPDEST SWAP5 POP PUSH2 0x19DA DUP4 PUSH2 0x197E JUMP JUMPDEST SWAP3 POP PUSH1 0x20 DUP11 ADD SWAP10 POP POP PUSH1 0x1 DUP2 ADD SWAP1 POP PUSH2 0x19B6 JUMP JUMPDEST POP DUP3 SWAP8 POP DUP8 SWAP6 POP POP POP POP POP POP SWAP3 SWAP2 POP POP JUMP JUMPDEST PUSH1 0x0 PUSH1 0x20 DUP3 ADD SWAP1 POP DUP2 DUP2 SUB PUSH1 0x0 DUP4 ADD MSTORE PUSH2 0x1A1A DUP2 DUP5 PUSH2 0x198B JUMP JUMPDEST SWAP1 POP SWAP3 SWAP2 POP POP JUMP JUMPDEST PUSH1 0x0 DUP2 SWAP1 POP SWAP3 SWAP2 POP POP JUMP JUMPDEST PUSH1 0x0 PUSH2 0x1A38 DUP3 PUSH2 0x1793 JUMP JUMPDEST PUSH2 0x1A42 DUP2 DUP6 PUSH2 0x1A22 JUMP JUMPDEST SWAP4 POP PUSH2 0x1A52 DUP2 DUP6 PUSH1 0x20 DUP7 ADD PUSH2 0x17AF JUMP JUMPDEST DUP1 DUP5 ADD SWAP2 POP POP SWAP3 SWAP2 POP POP JUMP JUMPDEST PUSH1 0x0 PUSH2 0x1A6A DUP3 DUP5 PUSH2 0x1A2D JUMP JUMPDEST SWAP2 POP DUP2 SWAP1 POP SWAP3 SWAP2 POP POP JUMP JUMPDEST PUSH32 0x4E487B7100000000000000000000000000000000000000000000000000000000 PUSH1 0x0 MSTORE PUSH1 0x11 PUSH1 0x4 MSTORE PUSH1 0x24 PUSH1 0x0 REVERT JUMPDEST PUSH1 0x0 PUSH2 0x1AAF DUP3 PUSH2 0x16D7 JUMP JUMPDEST SWAP2 POP PUSH32 0xFFFFFFFFFFFFFFFFFFFFFFFFFFFFFFFFFFFFFFFFFFFFFFFFFFFFFFFFFFFFFFFF DUP3 EQ ISZERO PUSH2 0x1AE2 JUMPI PUSH2 0x1AE1 PUSH2 0x1A75 JUMP JUMPDEST JUMPDEST PUSH1 0x1 DUP3 ADD SWAP1 POP SWAP2 SWAP1 POP JUMP JUMPDEST PUSH32 0x4E487B7100000000000000000000000000000000000000000000000000000000 PUSH1 0x0 MSTORE PUSH1 0x22 PUSH1 0x4 MSTORE PUSH1 0x24 PUSH1 0x0 REVERT JUMPDEST PUSH1 0x0 PUSH1 0x2 DUP3 DIV SWAP1 POP PUSH1 0x1 DUP3 AND DUP1 PUSH2 0x1B34 JUMPI PUSH1 0x7F DUP3 AND SWAP2 POP JUMPDEST PUSH1 0x20 DUP3 LT DUP2 EQ ISZERO PUSH2 0x1B48 JUMPI PUSH2 0x1B47 PUSH2 0x1AED JUMP JUMPDEST JUMPDEST POP SWAP2 SWAP1 POP JUMP INVALID LOG2 PUSH5 0x6970667358 0x22 SLT KECCAK256 PUSH27 0xB52819569CE6632302D96638E6E339915C53E84678D37F248D587C DUP10 0xA9 PUSH25 0x8E64736F6C6343000809003300000000000000000000000000 "},"gasEstimates":{"creation":{"codeDepositCost":"1408800","executionCost":"25828","totalCost":"1434628"},"external":{"addAdmin(address)":"27095","addCarDealer(address)":"27116","addCarMaintenance(address)":"27117","addSecondHandCarSale(address)":"27140","admin(address)":"2934","carDealer(address)":"2867","carHistory(string,uint256)":"infinite","carMaintenance(address)":"2890","changeOwner(string,string,string,string)":"infinite","displayAll(string)":"infinite","maintenance(string,string,string,string)":"infinite","newCar(string,string,string,string)":"infinite","secondHandCarSale(address)":"2869","transactionCount(string)":"infinite"}},"methodIdentifiers":{"addAdmin(address)":"70480275","addCarDealer(address)":"ab1c5f4a","addCarMaintenance(address)":"2d7784d6","addSecondHandCarSale(address)":"2b4b8c0d","admin(address)":"63a846f8","carDealer(address)":"865ce8e3","carHistory(string,uint256)":"7e2b3e08","carMaintenance(address)":"75061fd9","changeOwner(string,string,string,string)":"2ef704f2","displayAll(string)":"fc2d68f0","maintenance(string,string,string,string)":"2164bd61","newCar(string,string,string,string)":"adfb4d07","secondHandCarSale(address)":"061a507a","transactionCount(string)":"2c92ed07"}},"storageLayout":{"storage":[{"astId":5,"contract":"Transaction.sol:transaction","label":"admin","offset":0,"slot":"0","type":"t_mapping(t_address,t_bool)"},{"astId":9,"contract":"Transaction.sol:transaction","label":"carDealer","offset":0,"slot":"1","type":"t_mapping(t_address,t_bool)"},{"astId":13,"contract":"Transaction.sol:transaction","label":"carMaintenance","offset":0,"slot":"2","type":"t_mapping(t_address,t_bool)"},{"astId":17,"contract":"Transaction.sol:transaction","label":"secondHandCarSale","offset":0,"slot":"3","type":"t_mapping(t_address,t_bool)"},{"astId":21,"contract":"Transaction.sol:transaction","label":"transactionCount","offset":0,"slot":"4","type":"t_mapping(t_string_memory_ptr,t_uint256)"},{"astId":36,"contract":"Transaction.sol:transaction","label":"carHistory","offset":0,"slot":"5","type":"t_mapping(t_string_memory_ptr,t_array(t_struct(transactionDetails)30_storage)dyn_storage)"},{"astId":40,"contract":"Transaction.sol:transaction","label":"allTransactions","offset":0,"slot":"6","type":"t_array(t_struct(transactionDetails)30_storage)dyn_storage"}],"types":{"t_address":{"encoding":"inplace","label":"address","numberOfBytes":"20"},"t_array(t_struct(transactionDetails)30_storage)dyn_storage":{"base":"t_struct(transactionDetails)30_storage","encoding":"dynamic_array","label":"struct transaction.transactionDetails[]","numberOfBytes":"32"},"t_bool":{"encoding":"inplace","label":"bool","numberOfBytes":"1"},"t_mapping(t_address,t_bool)":{"encoding":"mapping","key":"t_address","label":"mapping(address => bool)","numberOfBytes":"32","value":"t_bool"},"t_mapping(t_string_memory_ptr,t_array(t_struct(transactionDetails)30_storage)dyn_storage)":{"encoding":"mapping","key":"t_string_memory_ptr","label":"mapping(string => struct transaction.transactionDetails[])","numberOfBytes":"32","value":"t_array(t_struct(transactionDetails)30_storage)dyn_storage"},"t_mapping(t_string_memory_ptr,t_uint256)":{"encoding":"mapping","key":"t_string_memory_ptr","label":"mapping(string => uint256)","numberOfBytes":"32","value":"t_uint256"},"t_string_memory_ptr":{"encoding":"bytes","label":"string","numberOfBytes":"32"},"t_string_storage":{"encoding":"bytes","label":"string","numberOfBytes":"32"},"t_struct(transactionDetails)30_storage":{"encoding":"inplace","label":"struct transaction.transactionDetails","members":[{"astId":23,"contract":"Transaction.sol:transaction","label":"VIN","offset":0,"slot":"0","type":"t_string_storage"},{"astId":25,"contract":"Transaction.sol:transaction","label":"date","offset":0,"slot":"1","type":"t_string_storage"},{"astId":27,"contract":"Transaction.sol:transaction","label":"location","offset":0,"slot":"2","type":"t_string_storage"},{"astId":29,"contract":"Transaction.sol:transaction","label":"details","offset":0,"slot":"3","type":"t_string_storage"}],"numberOfBytes":"128"},"t_uint256":{"encoding":"inplace","label":"uint256","numberOfBytes":"32"}}},"userdoc":{"kind":"user","methods":{},"version":1}}